{
	"contracts/Swapper.sol": {
		"Swapper": {
			"abi": [
				{
					"inputs": [
						{
							"internalType": "address",
							"name": "target",
							"type": "address"
						}
					],
					"name": "AddressEmptyCode",
					"type": "error"
				},
				{
					"inputs": [
						{
							"internalType": "address",
							"name": "implementation",
							"type": "address"
						}
					],
					"name": "ERC1967InvalidImplementation",
					"type": "error"
				},
				{
					"inputs": [],
					"name": "ERC1967NonPayable",
					"type": "error"
				},
				{
					"inputs": [],
					"name": "EnforcedPause",
					"type": "error"
				},
				{
					"inputs": [],
					"name": "ExpectedPause",
					"type": "error"
				},
				{
					"inputs": [],
					"name": "FailedCall",
					"type": "error"
				},
				{
					"inputs": [],
					"name": "InvalidInitialization",
					"type": "error"
				},
				{
					"inputs": [],
					"name": "NotInitializing",
					"type": "error"
				},
				{
					"inputs": [
						{
							"internalType": "address",
							"name": "owner",
							"type": "address"
						}
					],
					"name": "OwnableInvalidOwner",
					"type": "error"
				},
				{
					"inputs": [
						{
							"internalType": "address",
							"name": "account",
							"type": "address"
						}
					],
					"name": "OwnableUnauthorizedAccount",
					"type": "error"
				},
				{
					"inputs": [],
					"name": "ReentrancyGuardReentrantCall",
					"type": "error"
				},
				{
					"inputs": [
						{
							"internalType": "address",
							"name": "token",
							"type": "address"
						}
					],
					"name": "SafeERC20FailedOperation",
					"type": "error"
				},
				{
					"inputs": [],
					"name": "UUPSUnauthorizedCallContext",
					"type": "error"
				},
				{
					"inputs": [
						{
							"internalType": "bytes32",
							"name": "slot",
							"type": "bytes32"
						}
					],
					"name": "UUPSUnsupportedProxiableUUID",
					"type": "error"
				},
				{
					"anonymous": false,
					"inputs": [
						{
							"indexed": true,
							"internalType": "address",
							"name": "admin",
							"type": "address"
						}
					],
					"name": "AdminAdded",
					"type": "event"
				},
				{
					"anonymous": false,
					"inputs": [
						{
							"indexed": true,
							"internalType": "address",
							"name": "admin",
							"type": "address"
						}
					],
					"name": "AdminRemoved",
					"type": "event"
				},
				{
					"anonymous": false,
					"inputs": [
						{
							"indexed": false,
							"internalType": "uint64",
							"name": "version",
							"type": "uint64"
						}
					],
					"name": "Initialized",
					"type": "event"
				},
				{
					"anonymous": false,
					"inputs": [
						{
							"indexed": true,
							"internalType": "address",
							"name": "previousOwner",
							"type": "address"
						},
						{
							"indexed": true,
							"internalType": "address",
							"name": "newOwner",
							"type": "address"
						}
					],
					"name": "OwnershipTransferred",
					"type": "event"
				},
				{
					"anonymous": false,
					"inputs": [
						{
							"indexed": false,
							"internalType": "address",
							"name": "account",
							"type": "address"
						}
					],
					"name": "Paused",
					"type": "event"
				},
				{
					"anonymous": false,
					"inputs": [
						{
							"indexed": false,
							"internalType": "uint256",
							"name": "newFeePercentage",
							"type": "uint256"
						}
					],
					"name": "SwapFeeUpdated",
					"type": "event"
				},
				{
					"anonymous": false,
					"inputs": [
						{
							"indexed": true,
							"internalType": "address",
							"name": "user",
							"type": "address"
						},
						{
							"indexed": true,
							"internalType": "address",
							"name": "inputToken",
							"type": "address"
						},
						{
							"indexed": true,
							"internalType": "address",
							"name": "outputToken",
							"type": "address"
						},
						{
							"indexed": false,
							"internalType": "uint256",
							"name": "inputAmount",
							"type": "uint256"
						},
						{
							"indexed": false,
							"internalType": "uint256",
							"name": "outputAmount",
							"type": "uint256"
						},
						{
							"indexed": false,
							"internalType": "uint256",
							"name": "fee",
							"type": "uint256"
						}
					],
					"name": "Swapped",
					"type": "event"
				},
				{
					"anonymous": false,
					"inputs": [
						{
							"indexed": false,
							"internalType": "address",
							"name": "account",
							"type": "address"
						}
					],
					"name": "Unpaused",
					"type": "event"
				},
				{
					"anonymous": false,
					"inputs": [
						{
							"indexed": true,
							"internalType": "address",
							"name": "implementation",
							"type": "address"
						}
					],
					"name": "Upgraded",
					"type": "event"
				},
				{
					"inputs": [],
					"name": "NATIVE_TOKEN",
					"outputs": [
						{
							"internalType": "address",
							"name": "",
							"type": "address"
						}
					],
					"stateMutability": "view",
					"type": "function"
				},
				{
					"inputs": [],
					"name": "UPGRADE_INTERFACE_VERSION",
					"outputs": [
						{
							"internalType": "string",
							"name": "",
							"type": "string"
						}
					],
					"stateMutability": "view",
					"type": "function"
				},
				{
					"inputs": [
						{
							"internalType": "address",
							"name": "_admin",
							"type": "address"
						}
					],
					"name": "addAdmin",
					"outputs": [],
					"stateMutability": "nonpayable",
					"type": "function"
				},
				{
					"inputs": [
						{
							"internalType": "address",
							"name": "_token",
							"type": "address"
						}
					],
					"name": "getBalance",
					"outputs": [
						{
							"internalType": "uint256",
							"name": "",
							"type": "uint256"
						}
					],
					"stateMutability": "view",
					"type": "function"
				},
				{
					"inputs": [
						{
							"internalType": "address",
							"name": "_swapAdmin",
							"type": "address"
						}
					],
					"name": "initialize",
					"outputs": [],
					"stateMutability": "nonpayable",
					"type": "function"
				},
				{
					"inputs": [],
					"name": "newExchange",
					"outputs": [
						{
							"internalType": "address",
							"name": "",
							"type": "address"
						}
					],
					"stateMutability": "view",
					"type": "function"
				},
				{
					"inputs": [],
					"name": "owner",
					"outputs": [
						{
							"internalType": "address",
							"name": "",
							"type": "address"
						}
					],
					"stateMutability": "view",
					"type": "function"
				},
				{
					"inputs": [],
					"name": "pause",
					"outputs": [],
					"stateMutability": "nonpayable",
					"type": "function"
				},
				{
					"inputs": [],
					"name": "paused",
					"outputs": [
						{
							"internalType": "bool",
							"name": "",
							"type": "bool"
						}
					],
					"stateMutability": "view",
					"type": "function"
				},
				{
					"inputs": [],
					"name": "proxiableUUID",
					"outputs": [
						{
							"internalType": "bytes32",
							"name": "",
							"type": "bytes32"
						}
					],
					"stateMutability": "view",
					"type": "function"
				},
				{
					"inputs": [],
					"name": "renounceOwnership",
					"outputs": [],
					"stateMutability": "nonpayable",
					"type": "function"
				},
				{
					"inputs": [
						{
							"internalType": "address",
							"name": "_newExchange",
							"type": "address"
						}
					],
					"name": "setNewExchange",
					"outputs": [],
					"stateMutability": "nonpayable",
					"type": "function"
				},
				{
					"inputs": [
						{
							"internalType": "bytes",
							"name": "_data",
							"type": "bytes"
						},
						{
							"internalType": "address",
							"name": "_swapper",
							"type": "address"
						}
					],
					"name": "swap",
					"outputs": [],
					"stateMutability": "payable",
					"type": "function"
				},
				{
					"inputs": [],
					"name": "swapAdmin",
					"outputs": [
						{
							"internalType": "address",
							"name": "",
							"type": "address"
						}
					],
					"stateMutability": "view",
					"type": "function"
				},
				{
					"inputs": [],
					"name": "swapFeePercentage",
					"outputs": [
						{
							"internalType": "uint256",
							"name": "",
							"type": "uint256"
						}
					],
					"stateMutability": "view",
					"type": "function"
				},
				{
					"inputs": [
						{
							"internalType": "address",
							"name": "newOwner",
							"type": "address"
						}
					],
					"name": "transferOwnership",
					"outputs": [],
					"stateMutability": "nonpayable",
					"type": "function"
				},
				{
					"inputs": [],
					"name": "unpause",
					"outputs": [],
					"stateMutability": "nonpayable",
					"type": "function"
				},
				{
					"inputs": [
						{
							"internalType": "uint256",
							"name": "_newFeePercentage",
							"type": "uint256"
						}
					],
					"name": "updateSwapFee",
					"outputs": [],
					"stateMutability": "nonpayable",
					"type": "function"
				},
				{
					"inputs": [
						{
							"internalType": "address",
							"name": "newImplementation",
							"type": "address"
						},
						{
							"internalType": "bytes",
							"name": "data",
							"type": "bytes"
						}
					],
					"name": "upgradeToAndCall",
					"outputs": [],
					"stateMutability": "payable",
					"type": "function"
				},
				{
					"stateMutability": "payable",
					"type": "receive"
				}
			],
			"devdoc": {
				"errors": {
					"AddressEmptyCode(address)": [
						{
							"details": "There's no code at `target` (it is not a contract)."
						}
					],
					"ERC1967InvalidImplementation(address)": [
						{
							"details": "The `implementation` of the proxy is invalid."
						}
					],
					"ERC1967NonPayable()": [
						{
							"details": "An upgrade function sees `msg.value > 0` that may be lost."
						}
					],
					"EnforcedPause()": [
						{
							"details": "The operation failed because the contract is paused."
						}
					],
					"ExpectedPause()": [
						{
							"details": "The operation failed because the contract is not paused."
						}
					],
					"FailedCall()": [
						{
							"details": "A call to an address target failed. The target may have reverted."
						}
					],
					"InvalidInitialization()": [
						{
							"details": "The contract is already initialized."
						}
					],
					"NotInitializing()": [
						{
							"details": "The contract is not initializing."
						}
					],
					"OwnableInvalidOwner(address)": [
						{
							"details": "The owner is not a valid owner account. (eg. `address(0)`)"
						}
					],
					"OwnableUnauthorizedAccount(address)": [
						{
							"details": "The caller account is not authorized to perform an operation."
						}
					],
					"ReentrancyGuardReentrantCall()": [
						{
							"details": "Unauthorized reentrant call."
						}
					],
					"SafeERC20FailedOperation(address)": [
						{
							"details": "An operation with an ERC-20 token failed."
						}
					],
					"UUPSUnauthorizedCallContext()": [
						{
							"details": "The call is from an unauthorized context."
						}
					],
					"UUPSUnsupportedProxiableUUID(bytes32)": [
						{
							"details": "The storage `slot` is unsupported as a UUID."
						}
					]
				},
				"events": {
					"Initialized(uint64)": {
						"details": "Triggered when the contract has been initialized or reinitialized."
					},
					"Paused(address)": {
						"details": "Emitted when the pause is triggered by `account`."
					},
					"Unpaused(address)": {
						"details": "Emitted when the pause is lifted by `account`."
					},
					"Upgraded(address)": {
						"details": "Emitted when the implementation is upgraded."
					}
				},
				"kind": "dev",
				"methods": {
					"owner()": {
						"details": "Returns the address of the current owner."
					},
					"paused()": {
						"details": "Returns true if the contract is paused, and false otherwise."
					},
					"proxiableUUID()": {
						"details": "Implementation of the ERC-1822 {proxiableUUID} function. This returns the storage slot used by the implementation. It is used to validate the implementation's compatibility when performing an upgrade. IMPORTANT: A proxy pointing at a proxiable contract should not be considered proxiable itself, because this risks bricking a proxy that upgrades to it, by delegating to itself until out of gas. Thus it is critical that this function revert if invoked through a proxy. This is guaranteed by the `notDelegated` modifier."
					},
					"renounceOwnership()": {
						"details": "Leaves the contract without owner. It will not be possible to call `onlyOwner` functions. Can only be called by the current owner. NOTE: Renouncing ownership will leave the contract without an owner, thereby disabling any functionality that is only available to the owner."
					},
					"transferOwnership(address)": {
						"details": "Transfers ownership of the contract to a new account (`newOwner`). Can only be called by the current owner."
					},
					"upgradeToAndCall(address,bytes)": {
						"custom:oz-upgrades-unsafe-allow-reachable": "delegatecall",
						"details": "Upgrade the implementation of the proxy to `newImplementation`, and subsequently execute the function call encoded in `data`. Calls {_authorizeUpgrade}. Emits an {Upgraded} event."
					}
				},
				"version": 1
			},
			"evm": {
				"assembly": "    /* \"contracts/Swapper.sol\":636:6389  contract Swapper is... */\n  mstore(0x40, 0xa0)\n    /* \"@openzeppelin/contracts-upgradeable/proxy/utils/UUPSUpgradeable.sol\":1171:1175  this */\n  address\n    /* \"@openzeppelin/contracts-upgradeable/proxy/utils/UUPSUpgradeable.sol\":1128:1176  address private immutable __self = address(this) */\n  0x80\n  mstore\n    /* \"contracts/Swapper.sol\":636:6389  contract Swapper is... */\n  callvalue\n  dup1\n  iszero\n  tag_1\n  jumpi\n  0x00\n  dup1\n  revert\ntag_1:\n  pop\n  mload(0x80)\n  codecopy(0x00, dataOffset(sub_0), dataSize(sub_0))\n  0x00\n  assignImmutable(\"0x0b83f23a4eeb8c3f5f7d5934a2289bcf0186d09a12e1b7f20adf54e4b179db15\")\n  return(0x00, dataSize(sub_0))\nstop\n\nsub_0: assembly {\n        /* \"contracts/Swapper.sol\":636:6389  contract Swapper is... */\n      mstore(0x40, 0x80)\n      jumpi(tag_1, lt(calldatasize, 0x04))\n      shr(0xe0, calldataload(0x00))\n      dup1\n      0x715018a6\n      gt\n      tag_22\n      jumpi\n      dup1\n      0xae0caeb3\n      gt\n      tag_23\n      jumpi\n      dup1\n      0xae0caeb3\n      eq\n      tag_17\n      jumpi\n      dup1\n      0xbf16f65a\n      eq\n      tag_18\n      jumpi\n      dup1\n      0xc4d66de8\n      eq\n      tag_19\n      jumpi\n      dup1\n      0xf2fde38b\n      eq\n      tag_20\n      jumpi\n      dup1\n      0xf8b2cb4f\n      eq\n      tag_21\n      jumpi\n      0x00\n      dup1\n      revert\n    tag_23:\n      dup1\n      0x715018a6\n      eq\n      tag_12\n      jumpi\n      dup1\n      0x8456cb59\n      eq\n      tag_13\n      jumpi\n      dup1\n      0x8da5cb5b\n      eq\n      tag_14\n      jumpi\n      dup1\n      0xa4ac0d49\n      eq\n      tag_15\n      jumpi\n      dup1\n      0xad3cb1cc\n      eq\n      tag_16\n      jumpi\n      0x00\n      dup1\n      revert\n    tag_22:\n      dup1\n      0x52d1902d\n      gt\n      tag_24\n      jumpi\n      dup1\n      0x52d1902d\n      eq\n      tag_7\n      jumpi\n      dup1\n      0x540907bb\n      eq\n      tag_8\n      jumpi\n      dup1\n      0x5c975abb\n      eq\n      tag_9\n      jumpi\n      dup1\n      0x5dc0b769\n      eq\n      tag_10\n      jumpi\n      dup1\n      0x70480275\n      eq\n      tag_11\n      jumpi\n      0x00\n      dup1\n      revert\n    tag_24:\n      dup1\n      0x0380fd03\n      eq\n      tag_3\n      jumpi\n      dup1\n      0x31f7d964\n      eq\n      tag_4\n      jumpi\n      dup1\n      0x3f4ba83a\n      eq\n      tag_5\n      jumpi\n      dup1\n      0x4f1ef286\n      eq\n      tag_6\n      jumpi\n      0x00\n      dup1\n      revert\n    tag_1:\n      jumpi(tag_2, calldatasize)\n      stop\n    tag_2:\n      0x00\n      dup1\n      revert\n        /* \"contracts/Swapper.sol\":1023:1049  address public newExchange */\n    tag_3:\n      callvalue\n      dup1\n      iszero\n      tag_27\n      jumpi\n      0x00\n      dup1\n      revert\n    tag_27:\n      pop\n      sload(0x00)\n      tag_28\n      swap1\n      sub(shl(0xa0, 0x01), 0x01)\n      and\n      dup2\n      jump\n    tag_28:\n      mload(0x40)\n      sub(shl(0xa0, 0x01), 0x01)\n        /* \"#utility.yul\":178:210   */\n      swap1\n      swap2\n      and\n        /* \"#utility.yul\":160:211   */\n      dup2\n      mstore\n        /* \"#utility.yul\":148:150   */\n      0x20\n        /* \"#utility.yul\":133:151   */\n      add\n        /* \"contracts/Swapper.sol\":1023:1049  address public newExchange */\n    tag_30:\n      mload(0x40)\n      dup1\n      swap2\n      sub\n      swap1\n      return\n        /* \"contracts/Swapper.sol\":928:1017  address public constant NATIVE_TOKEN =... */\n    tag_4:\n      callvalue\n      dup1\n      iszero\n      tag_32\n      jumpi\n      0x00\n      dup1\n      revert\n    tag_32:\n      pop\n      tag_28\n        /* \"contracts/Swapper.sol\":975:1017  0xEeeeeEeeeEeEeeEeEeEeeEEEeeeeEeeeeeeeEEeE */\n      0xeeeeeeeeeeeeeeeeeeeeeeeeeeeeeeeeeeeeeeee\n        /* \"contracts/Swapper.sol\":928:1017  address public constant NATIVE_TOKEN =... */\n      dup2\n      jump\n        /* \"contracts/Swapper.sol\":6321:6386  function unpause() external onlyOwner {... */\n    tag_5:\n      callvalue\n      dup1\n      iszero\n      tag_36\n      jumpi\n      0x00\n      dup1\n      revert\n    tag_36:\n      pop\n      tag_37\n      tag_38\n      jump\t// in\n    tag_37:\n      stop\n        /* \"@openzeppelin/contracts-upgradeable/proxy/utils/UUPSUpgradeable.sol\":4161:4375  function upgradeToAndCall(address newImplementation, bytes memory data) public payable virtual onlyProxy {... */\n    tag_6:\n      tag_37\n      tag_40\n      calldatasize\n      0x04\n      tag_41\n      jump\t// in\n    tag_40:\n      tag_42\n      jump\t// in\n        /* \"@openzeppelin/contracts-upgradeable/proxy/utils/UUPSUpgradeable.sol\":3708:3842  function proxiableUUID() external view virtual notDelegated returns (bytes32) {... */\n    tag_7:\n      callvalue\n      dup1\n      iszero\n      tag_43\n      jumpi\n      0x00\n      dup1\n      revert\n    tag_43:\n      pop\n      tag_44\n      tag_45\n      jump\t// in\n    tag_44:\n      mload(0x40)\n        /* \"#utility.yul\":1826:1851   */\n      swap1\n      dup2\n      mstore\n        /* \"#utility.yul\":1814:1816   */\n      0x20\n        /* \"#utility.yul\":1799:1817   */\n      add\n        /* \"@openzeppelin/contracts-upgradeable/proxy/utils/UUPSUpgradeable.sol\":3708:3842  function proxiableUUID() external view virtual notDelegated returns (bytes32) {... */\n      tag_30\n        /* \"#utility.yul\":1680:1857   */\n      jump\n        /* \"contracts/Swapper.sol\":4609:4785  function setNewExchange(address _newExchange) external onlyOwner {... */\n    tag_8:\n      callvalue\n      dup1\n      iszero\n      tag_48\n      jumpi\n      0x00\n      dup1\n      revert\n    tag_48:\n      pop\n      tag_37\n      tag_50\n      calldatasize\n      0x04\n      tag_51\n      jump\t// in\n    tag_50:\n      tag_52\n      jump\t// in\n        /* \"@openzeppelin/contracts-upgradeable/utils/PausableUpgradeable.sol\":2692:2837  function paused() public view virtual returns (bool) {... */\n    tag_9:\n      callvalue\n      dup1\n      iszero\n      tag_53\n      jumpi\n      0x00\n      dup1\n      revert\n    tag_53:\n      pop\n      0x00\n      dup1\n      mload\n      0x20\n      data_c0c65a3718f3702d917c44106b91645b509d2e2d0979b70495c3babce192339f\n      dup4\n      codecopy\n      dup2\n      mload\n      swap2\n      mstore\n        /* \"@openzeppelin/contracts-upgradeable/utils/PausableUpgradeable.sol\":2821:2830  $._paused */\n      sload\n      0xff\n      and\n        /* \"@openzeppelin/contracts-upgradeable/utils/PausableUpgradeable.sol\":2692:2837  function paused() public view virtual returns (bool) {... */\n      mload(0x40)\n        /* \"#utility.yul\":2279:2293   */\n      swap1\n      iszero\n        /* \"#utility.yul\":2272:2294   */\n      iszero\n        /* \"#utility.yul\":2254:2295   */\n      dup2\n      mstore\n        /* \"#utility.yul\":2242:2244   */\n      0x20\n        /* \"#utility.yul\":2227:2245   */\n      add\n        /* \"@openzeppelin/contracts-upgradeable/utils/PausableUpgradeable.sol\":2692:2837  function paused() public view virtual returns (bool) {... */\n      tag_30\n        /* \"#utility.yul\":2114:2301   */\n      jump\n        /* \"contracts/Swapper.sol\":1056:1081  address public  swapAdmin */\n    tag_10:\n      callvalue\n      dup1\n      iszero\n      tag_58\n      jumpi\n      0x00\n      dup1\n      revert\n    tag_58:\n      pop\n      sload(0x01)\n      tag_28\n      swap1\n      sub(shl(0xa0, 0x01), 0x01)\n      and\n      dup2\n      jump\n        /* \"contracts/Swapper.sol\":4418:4603  function addAdmin(address _admin) external onlyOwner {... */\n    tag_11:\n      callvalue\n      dup1\n      iszero\n      tag_62\n      jumpi\n      0x00\n      dup1\n      revert\n    tag_62:\n      pop\n      tag_37\n      tag_64\n      calldatasize\n      0x04\n      tag_51\n      jump\t// in\n    tag_64:\n      tag_65\n      jump\t// in\n        /* \"@openzeppelin/contracts-upgradeable/access/OwnableUpgradeable.sol\":3155:3256  function renounceOwnership() public virtual onlyOwner {... */\n    tag_12:\n      callvalue\n      dup1\n      iszero\n      tag_66\n      jumpi\n      0x00\n      dup1\n      revert\n    tag_66:\n      pop\n      tag_37\n      tag_68\n      jump\t// in\n        /* \"contracts/Swapper.sol\":6254:6315  function pause() external onlyOwner {... */\n    tag_13:\n      callvalue\n      dup1\n      iszero\n      tag_69\n      jumpi\n      0x00\n      dup1\n      revert\n    tag_69:\n      pop\n      tag_37\n      tag_71\n      jump\t// in\n        /* \"@openzeppelin/contracts-upgradeable/access/OwnableUpgradeable.sol\":2441:2585  function owner() public view virtual returns (address) {... */\n    tag_14:\n      callvalue\n      dup1\n      iszero\n      tag_72\n      jumpi\n      0x00\n      dup1\n      revert\n    tag_72:\n      pop\n        /* \"@openzeppelin/contracts-upgradeable/access/OwnableUpgradeable.sol\":1313:1335  OwnableStorageLocation */\n      0x9016d09d72d40fdae2fd8ceac6b6234c7706214fd39c1cd1e609a0528c199300\n        /* \"@openzeppelin/contracts-upgradeable/access/OwnableUpgradeable.sol\":2570:2578  $._owner */\n      sload\n      sub(shl(0xa0, 0x01), 0x01)\n      and\n        /* \"@openzeppelin/contracts-upgradeable/access/OwnableUpgradeable.sol\":2441:2585  function owner() public view virtual returns (address) {... */\n      jump(tag_28)\n        /* \"contracts/Swapper.sol\":1087:1119  uint256 public swapFeePercentage */\n    tag_15:\n      callvalue\n      dup1\n      iszero\n      tag_76\n      jumpi\n      0x00\n      dup1\n      revert\n    tag_76:\n      pop\n      tag_44\n      sload(0x02)\n      dup2\n      jump\n        /* \"@openzeppelin/contracts-upgradeable/proxy/utils/UUPSUpgradeable.sol\":1819:1877  string public constant UPGRADE_INTERFACE_VERSION = \"5.0.0\" */\n    tag_16:\n      callvalue\n      dup1\n      iszero\n      tag_81\n      jumpi\n      0x00\n      dup1\n      revert\n    tag_81:\n      pop\n      tag_82\n      mload(0x40)\n      dup1\n      0x40\n      add\n      0x40\n      mstore\n      dup1\n      0x05\n      dup2\n      mstore\n      0x20\n      add\n      shl(0xdc, 0x0352e302e3)\n      dup2\n      mstore\n      pop\n      dup2\n      jump\n    tag_82:\n      mload(0x40)\n      tag_30\n      swap2\n      swap1\n      tag_85\n      jump\t// in\n        /* \"contracts/Swapper.sol\":2063:3874  function swap(bytes calldata _data, address _swapper)... */\n    tag_17:\n      tag_37\n      tag_87\n      calldatasize\n      0x04\n      tag_88\n      jump\t// in\n    tag_87:\n      tag_89\n      jump\t// in\n        /* \"contracts/Swapper.sol\":3880:4187  function updateSwapFee(uint256 _newFeePercentage) external onlyOwner {... */\n    tag_18:\n      callvalue\n      dup1\n      iszero\n      tag_90\n      jumpi\n      0x00\n      dup1\n      revert\n    tag_90:\n      pop\n      tag_37\n      tag_92\n      calldatasize\n      0x04\n      tag_93\n      jump\t// in\n    tag_92:\n      tag_94\n      jump\t// in\n        /* \"contracts/Swapper.sol\":1596:1904  function initialize(address _swapAdmin)... */\n    tag_19:\n      callvalue\n      dup1\n      iszero\n      tag_95\n      jumpi\n      0x00\n      dup1\n      revert\n    tag_95:\n      pop\n      tag_37\n      tag_97\n      calldatasize\n      0x04\n      tag_51\n      jump\t// in\n    tag_97:\n      tag_98\n      jump\t// in\n        /* \"@openzeppelin/contracts-upgradeable/access/OwnableUpgradeable.sol\":3405:3620  function transferOwnership(address newOwner) public virtual onlyOwner {... */\n    tag_20:\n      callvalue\n      dup1\n      iszero\n      tag_99\n      jumpi\n      0x00\n      dup1\n      revert\n    tag_99:\n      pop\n      tag_37\n      tag_101\n      calldatasize\n      0x04\n      tag_51\n      jump\t// in\n    tag_101:\n      tag_102\n      jump\t// in\n        /* \"contracts/Swapper.sol\":4193:4412  function getBalance(address _token) public view returns (uint256) {... */\n    tag_21:\n      callvalue\n      dup1\n      iszero\n      tag_103\n      jumpi\n      0x00\n      dup1\n      revert\n    tag_103:\n      pop\n      tag_44\n      tag_105\n      calldatasize\n      0x04\n      tag_51\n      jump\t// in\n    tag_105:\n      tag_106\n      jump\t// in\n        /* \"contracts/Swapper.sol\":6321:6386  function unpause() external onlyOwner {... */\n    tag_38:\n        /* \"@openzeppelin/contracts-upgradeable/access/OwnableUpgradeable.sol\":2334:2347  _checkOwner() */\n      tag_109\n        /* \"@openzeppelin/contracts-upgradeable/access/OwnableUpgradeable.sol\":2334:2345  _checkOwner */\n      tag_110\n        /* \"@openzeppelin/contracts-upgradeable/access/OwnableUpgradeable.sol\":2334:2347  _checkOwner() */\n      jump\t// in\n    tag_109:\n        /* \"contracts/Swapper.sol\":6369:6379  _unpause() */\n      tag_112\n        /* \"contracts/Swapper.sol\":6369:6377  _unpause */\n      tag_113\n        /* \"contracts/Swapper.sol\":6369:6379  _unpause() */\n      jump\t// in\n    tag_112:\n        /* \"contracts/Swapper.sol\":6321:6386  function unpause() external onlyOwner {... */\n      jump\t// out\n        /* \"@openzeppelin/contracts-upgradeable/proxy/utils/UUPSUpgradeable.sol\":4161:4375  function upgradeToAndCall(address newImplementation, bytes memory data) public payable virtual onlyProxy {... */\n    tag_42:\n        /* \"@openzeppelin/contracts-upgradeable/proxy/utils/UUPSUpgradeable.sol\":2655:2668  _checkProxy() */\n      tag_115\n        /* \"@openzeppelin/contracts-upgradeable/proxy/utils/UUPSUpgradeable.sol\":2655:2666  _checkProxy */\n      tag_116\n        /* \"@openzeppelin/contracts-upgradeable/proxy/utils/UUPSUpgradeable.sol\":2655:2668  _checkProxy() */\n      jump\t// in\n    tag_115:\n        /* \"@openzeppelin/contracts-upgradeable/proxy/utils/UUPSUpgradeable.sol\":4276:4312  _authorizeUpgrade(newImplementation) */\n      tag_118\n        /* \"@openzeppelin/contracts-upgradeable/proxy/utils/UUPSUpgradeable.sol\":4294:4311  newImplementation */\n      dup3\n        /* \"@openzeppelin/contracts-upgradeable/proxy/utils/UUPSUpgradeable.sol\":4276:4293  _authorizeUpgrade */\n      tag_119\n        /* \"@openzeppelin/contracts-upgradeable/proxy/utils/UUPSUpgradeable.sol\":4276:4312  _authorizeUpgrade(newImplementation) */\n      jump\t// in\n    tag_118:\n        /* \"@openzeppelin/contracts-upgradeable/proxy/utils/UUPSUpgradeable.sol\":4322:4368  _upgradeToAndCallUUPS(newImplementation, data) */\n      tag_120\n        /* \"@openzeppelin/contracts-upgradeable/proxy/utils/UUPSUpgradeable.sol\":4344:4361  newImplementation */\n      dup3\n        /* \"@openzeppelin/contracts-upgradeable/proxy/utils/UUPSUpgradeable.sol\":4363:4367  data */\n      dup3\n        /* \"@openzeppelin/contracts-upgradeable/proxy/utils/UUPSUpgradeable.sol\":4322:4343  _upgradeToAndCallUUPS */\n      tag_121\n        /* \"@openzeppelin/contracts-upgradeable/proxy/utils/UUPSUpgradeable.sol\":4322:4368  _upgradeToAndCallUUPS(newImplementation, data) */\n      jump\t// in\n    tag_120:\n        /* \"@openzeppelin/contracts-upgradeable/proxy/utils/UUPSUpgradeable.sol\":4161:4375  function upgradeToAndCall(address newImplementation, bytes memory data) public payable virtual onlyProxy {... */\n      pop\n      pop\n      jump\t// out\n        /* \"@openzeppelin/contracts-upgradeable/proxy/utils/UUPSUpgradeable.sol\":3708:3842  function proxiableUUID() external view virtual notDelegated returns (bytes32) {... */\n    tag_45:\n        /* \"@openzeppelin/contracts-upgradeable/proxy/utils/UUPSUpgradeable.sol\":3777:3784  bytes32 */\n      0x00\n        /* \"@openzeppelin/contracts-upgradeable/proxy/utils/UUPSUpgradeable.sol\":2926:2946  _checkNotDelegated() */\n      tag_123\n        /* \"@openzeppelin/contracts-upgradeable/proxy/utils/UUPSUpgradeable.sol\":2926:2944  _checkNotDelegated */\n      tag_124\n        /* \"@openzeppelin/contracts-upgradeable/proxy/utils/UUPSUpgradeable.sol\":2926:2946  _checkNotDelegated() */\n      jump\t// in\n    tag_123:\n      pop\n      0x00\n      dup1\n      mload\n      0x20\n      data_75b20eef8615de99c108b05f0dbda081c91897128caa336d75dffb97c4132b4d\n      dup4\n      codecopy\n      dup2\n      mload\n      swap2\n      mstore\n        /* \"@openzeppelin/contracts-upgradeable/proxy/utils/UUPSUpgradeable.sol\":3708:3842  function proxiableUUID() external view virtual notDelegated returns (bytes32) {... */\n      swap1\n      jump\t// out\n        /* \"contracts/Swapper.sol\":4609:4785  function setNewExchange(address _newExchange) external onlyOwner {... */\n    tag_52:\n        /* \"@openzeppelin/contracts-upgradeable/access/OwnableUpgradeable.sol\":2334:2347  _checkOwner() */\n      tag_127\n        /* \"@openzeppelin/contracts-upgradeable/access/OwnableUpgradeable.sol\":2334:2345  _checkOwner */\n      tag_110\n        /* \"@openzeppelin/contracts-upgradeable/access/OwnableUpgradeable.sol\":2334:2347  _checkOwner() */\n      jump\t// in\n    tag_127:\n      sub(shl(0xa0, 0x01), 0x01)\n        /* \"contracts/Swapper.sol\":4692:4718  _newExchange != address(0) */\n      dup2\n      and\n        /* \"contracts/Swapper.sol\":4684:4742  require(_newExchange != address(0), \"zero address params\") */\n      tag_129\n      jumpi\n      mload(0x40)\n      shl(0xe5, 0x461bcd)\n      dup2\n      mstore\n        /* \"#utility.yul\":4309:4311   */\n      0x20\n        /* \"contracts/Swapper.sol\":4684:4742  require(_newExchange != address(0), \"zero address params\") */\n      0x04\n      dup3\n      add\n        /* \"#utility.yul\":4291:4312   */\n      mstore\n        /* \"#utility.yul\":4348:4350   */\n      0x13\n        /* \"#utility.yul\":4328:4346   */\n      0x24\n      dup3\n      add\n        /* \"#utility.yul\":4321:4351   */\n      mstore\n      shl(0x68, 0x7a65726f206164647265737320706172616d73)\n        /* \"#utility.yul\":4367:4385   */\n      0x44\n      dup3\n      add\n        /* \"#utility.yul\":4360:4409   */\n      mstore\n        /* \"#utility.yul\":4426:4444   */\n      0x64\n      add\n        /* \"contracts/Swapper.sol\":4684:4742  require(_newExchange != address(0), \"zero address params\") */\n    tag_130:\n      mload(0x40)\n      dup1\n      swap2\n      sub\n      swap1\n      revert\n    tag_129:\n        /* \"contracts/Swapper.sol\":4752:4763  newExchange */\n      0x00\n        /* \"contracts/Swapper.sol\":4752:4778  newExchange = _newExchange */\n      dup1\n      sload\n      not(sub(shl(0xa0, 0x01), 0x01))\n      and\n      sub(shl(0xa0, 0x01), 0x01)\n      swap3\n      swap1\n      swap3\n      and\n      swap2\n      swap1\n      swap2\n      or\n      swap1\n      sstore\n        /* \"contracts/Swapper.sol\":4609:4785  function setNewExchange(address _newExchange) external onlyOwner {... */\n      jump\t// out\n        /* \"contracts/Swapper.sol\":4418:4603  function addAdmin(address _admin) external onlyOwner {... */\n    tag_65:\n        /* \"@openzeppelin/contracts-upgradeable/access/OwnableUpgradeable.sol\":2334:2347  _checkOwner() */\n      tag_136\n        /* \"@openzeppelin/contracts-upgradeable/access/OwnableUpgradeable.sol\":2334:2345  _checkOwner */\n      tag_110\n        /* \"@openzeppelin/contracts-upgradeable/access/OwnableUpgradeable.sol\":2334:2347  _checkOwner() */\n      jump\t// in\n    tag_136:\n      sub(shl(0xa0, 0x01), 0x01)\n        /* \"contracts/Swapper.sol\":4489:4509  _admin != address(0) */\n      dup2\n      and\n        /* \"contracts/Swapper.sol\":4481:4535  require(_admin != address(0), \"Invalid admin address\") */\n      tag_138\n      jumpi\n      mload(0x40)\n      shl(0xe5, 0x461bcd)\n      dup2\n      mstore\n        /* \"#utility.yul\":4657:4659   */\n      0x20\n        /* \"contracts/Swapper.sol\":4481:4535  require(_admin != address(0), \"Invalid admin address\") */\n      0x04\n      dup3\n      add\n        /* \"#utility.yul\":4639:4660   */\n      mstore\n        /* \"#utility.yul\":4696:4698   */\n      0x15\n        /* \"#utility.yul\":4676:4694   */\n      0x24\n      dup3\n      add\n        /* \"#utility.yul\":4669:4699   */\n      mstore\n      shl(0x58, 0x496e76616c69642061646d696e2061646472657373)\n        /* \"#utility.yul\":4715:4733   */\n      0x44\n      dup3\n      add\n        /* \"#utility.yul\":4708:4759   */\n      mstore\n        /* \"#utility.yul\":4776:4794   */\n      0x64\n      add\n        /* \"contracts/Swapper.sol\":4481:4535  require(_admin != address(0), \"Invalid admin address\") */\n      tag_130\n        /* \"#utility.yul\":4455:4800   */\n      jump\n        /* \"contracts/Swapper.sol\":4481:4535  require(_admin != address(0), \"Invalid admin address\") */\n    tag_138:\n        /* \"contracts/Swapper.sol\":4545:4554  swapAdmin */\n      0x01\n        /* \"contracts/Swapper.sol\":4545:4563  swapAdmin = _admin */\n      dup1\n      sload\n      not(sub(shl(0xa0, 0x01), 0x01))\n      and\n      sub(shl(0xa0, 0x01), 0x01)\n      dup4\n      and\n      swap1\n      dup2\n      or\n      swap1\n      swap2\n      sstore\n        /* \"contracts/Swapper.sol\":4578:4596  AdminAdded(_admin) */\n      mload(0x40)\n      0x44d6d25963f097ad14f29f06854a01f575648a1ef82f30e562ccd3889717e339\n      swap1\n      0x00\n      swap1\n      log2\n        /* \"contracts/Swapper.sol\":4418:4603  function addAdmin(address _admin) external onlyOwner {... */\n      pop\n      jump\t// out\n        /* \"@openzeppelin/contracts-upgradeable/access/OwnableUpgradeable.sol\":3155:3256  function renounceOwnership() public virtual onlyOwner {... */\n    tag_68:\n        /* \"@openzeppelin/contracts-upgradeable/access/OwnableUpgradeable.sol\":2334:2347  _checkOwner() */\n      tag_142\n        /* \"@openzeppelin/contracts-upgradeable/access/OwnableUpgradeable.sol\":2334:2345  _checkOwner */\n      tag_110\n        /* \"@openzeppelin/contracts-upgradeable/access/OwnableUpgradeable.sol\":2334:2347  _checkOwner() */\n      jump\t// in\n    tag_142:\n        /* \"@openzeppelin/contracts-upgradeable/access/OwnableUpgradeable.sol\":3219:3249  _transferOwnership(address(0)) */\n      tag_112\n        /* \"@openzeppelin/contracts-upgradeable/access/OwnableUpgradeable.sol\":3246:3247  0 */\n      0x00\n        /* \"@openzeppelin/contracts-upgradeable/access/OwnableUpgradeable.sol\":3219:3237  _transferOwnership */\n      tag_145\n        /* \"@openzeppelin/contracts-upgradeable/access/OwnableUpgradeable.sol\":3219:3249  _transferOwnership(address(0)) */\n      jump\t// in\n        /* \"contracts/Swapper.sol\":6254:6315  function pause() external onlyOwner {... */\n    tag_71:\n        /* \"@openzeppelin/contracts-upgradeable/access/OwnableUpgradeable.sol\":2334:2347  _checkOwner() */\n      tag_147\n        /* \"@openzeppelin/contracts-upgradeable/access/OwnableUpgradeable.sol\":2334:2345  _checkOwner */\n      tag_110\n        /* \"@openzeppelin/contracts-upgradeable/access/OwnableUpgradeable.sol\":2334:2347  _checkOwner() */\n      jump\t// in\n    tag_147:\n        /* \"contracts/Swapper.sol\":6300:6308  _pause() */\n      tag_112\n        /* \"contracts/Swapper.sol\":6300:6306  _pause */\n      tag_150\n        /* \"contracts/Swapper.sol\":6300:6308  _pause() */\n      jump\t// in\n        /* \"contracts/Swapper.sol\":2063:3874  function swap(bytes calldata _data, address _swapper)... */\n    tag_89:\n        /* \"@openzeppelin/contracts-upgradeable/utils/PausableUpgradeable.sol\":2316:2335  _requireNotPaused() */\n      tag_155\n        /* \"@openzeppelin/contracts-upgradeable/utils/PausableUpgradeable.sol\":2316:2333  _requireNotPaused */\n      tag_156\n        /* \"@openzeppelin/contracts-upgradeable/utils/PausableUpgradeable.sol\":2316:2335  _requireNotPaused() */\n      jump\t// in\n    tag_155:\n        /* \"@openzeppelin/contracts-upgradeable/utils/ReentrancyGuardUpgradeable.sol\":3395:3416  _nonReentrantBefore() */\n      tag_158\n        /* \"@openzeppelin/contracts-upgradeable/utils/ReentrancyGuardUpgradeable.sol\":3395:3414  _nonReentrantBefore */\n      tag_159\n        /* \"@openzeppelin/contracts-upgradeable/utils/ReentrancyGuardUpgradeable.sol\":3395:3416  _nonReentrantBefore() */\n      jump\t// in\n    tag_158:\n        /* \"contracts/Swapper.sol\":2207:2238  SwapDescription memory swapDesc */\n      0x00\n        /* \"contracts/Swapper.sol\":2241:2255  _decode(_data) */\n      tag_161\n        /* \"contracts/Swapper.sol\":2249:2254  _data */\n      dup5\n      dup5\n        /* \"contracts/Swapper.sol\":2241:2248  _decode */\n      tag_162\n        /* \"contracts/Swapper.sol\":2241:2255  _decode(_data) */\n      jump\t// in\n    tag_161:\n        /* \"contracts/Swapper.sol\":2207:2255  SwapDescription memory swapDesc = _decode(_data) */\n      swap1\n      pop\n        /* \"contracts/Swapper.sol\":2273:2281  swapDesc */\n      dup1\n        /* \"contracts/Swapper.sol\":2273:2288  swapDesc.amount */\n      0x40\n      add\n      mload\n        /* \"contracts/Swapper.sol\":2292:2293  0 */\n      0x00\n        /* \"contracts/Swapper.sol\":2273:2293  swapDesc.amount != 0 */\n      sub\n        /* \"contracts/Swapper.sol\":2265:2309  require(swapDesc.amount != 0, \"amount == 0\") */\n      tag_163\n      jumpi\n      mload(0x40)\n      shl(0xe5, 0x461bcd)\n      dup2\n      mstore\n        /* \"#utility.yul\":5007:5009   */\n      0x20\n        /* \"contracts/Swapper.sol\":2265:2309  require(swapDesc.amount != 0, \"amount == 0\") */\n      0x04\n      dup3\n      add\n        /* \"#utility.yul\":4989:5010   */\n      mstore\n        /* \"#utility.yul\":5046:5048   */\n      0x0b\n        /* \"#utility.yul\":5026:5044   */\n      0x24\n      dup3\n      add\n        /* \"#utility.yul\":5019:5049   */\n      mstore\n      shl(0xac, 0x0616d6f756e74203d3d203)\n        /* \"#utility.yul\":5065:5083   */\n      0x44\n      dup3\n      add\n        /* \"#utility.yul\":5058:5099   */\n      mstore\n        /* \"#utility.yul\":5116:5134   */\n      0x64\n      add\n        /* \"contracts/Swapper.sol\":2265:2309  require(swapDesc.amount != 0, \"amount == 0\") */\n      tag_130\n        /* \"#utility.yul\":4805:5140   */\n      jump\n        /* \"contracts/Swapper.sol\":2265:2309  require(swapDesc.amount != 0, \"amount == 0\") */\n    tag_163:\n        /* \"contracts/Swapper.sol\":2340:2357  swapDesc.srcToken */\n      dup1\n      mload\n      sub(shl(0xa0, 0x01), 0x01)\n        /* \"contracts/Swapper.sol\":2340:2371  swapDesc.srcToken != address(0) */\n      and\n      iszero\n      dup1\n      iszero\n      swap1\n        /* \"contracts/Swapper.sol\":2340:2406  swapDesc.srcToken != address(0) && swapDesc.dstToken != address(0) */\n      tag_166\n      jumpi\n      pop\n        /* \"contracts/Swapper.sol\":2375:2392  swapDesc.dstToken */\n      0x20\n      dup2\n      add\n      mload\n      sub(shl(0xa0, 0x01), 0x01)\n        /* \"contracts/Swapper.sol\":2375:2406  swapDesc.dstToken != address(0) */\n      and\n      iszero\n      iszero\n        /* \"contracts/Swapper.sol\":2340:2406  swapDesc.srcToken != address(0) && swapDesc.dstToken != address(0) */\n    tag_166:\n        /* \"contracts/Swapper.sol\":2319:2446  require(... */\n      tag_167\n      jumpi\n      mload(0x40)\n      shl(0xe5, 0x461bcd)\n      dup2\n      mstore\n        /* \"#utility.yul\":5347:5349   */\n      0x20\n        /* \"contracts/Swapper.sol\":2319:2446  require(... */\n      0x04\n      dup3\n      add\n        /* \"#utility.yul\":5329:5350   */\n      mstore\n        /* \"#utility.yul\":5386:5388   */\n      0x0e\n        /* \"#utility.yul\":5366:5384   */\n      0x24\n      dup3\n      add\n        /* \"#utility.yul\":5359:5389   */\n      mstore\n      shl(0x90, 0x696e76616c696420746f6b656e73)\n        /* \"#utility.yul\":5405:5423   */\n      0x44\n      dup3\n      add\n        /* \"#utility.yul\":5398:5442   */\n      mstore\n        /* \"#utility.yul\":5459:5477   */\n      0x64\n      add\n        /* \"contracts/Swapper.sol\":2319:2446  require(... */\n      tag_130\n        /* \"#utility.yul\":5145:5483   */\n      jump\n        /* \"contracts/Swapper.sol\":2319:2446  require(... */\n    tag_167:\n        /* \"contracts/Swapper.sol\":2498:2506  swapDesc */\n      dup1\n        /* \"contracts/Swapper.sol\":2498:2515  swapDesc.dstToken */\n      0x20\n      add\n      mload\n      sub(shl(0xa0, 0x01), 0x01)\n        /* \"contracts/Swapper.sol\":2477:2515  swapDesc.srcToken != swapDesc.dstToken */\n      and\n        /* \"contracts/Swapper.sol\":2477:2485  swapDesc */\n      dup2\n        /* \"contracts/Swapper.sol\":2477:2494  swapDesc.srcToken */\n      0x00\n      add\n      mload\n      sub(shl(0xa0, 0x01), 0x01)\n        /* \"contracts/Swapper.sol\":2477:2515  swapDesc.srcToken != swapDesc.dstToken */\n      and\n      sub\n        /* \"contracts/Swapper.sol\":2456:2563  require(... */\n      tag_170\n      jumpi\n      mload(0x40)\n      shl(0xe5, 0x461bcd)\n      dup2\n      mstore\n        /* \"#utility.yul\":5690:5692   */\n      0x20\n        /* \"contracts/Swapper.sol\":2456:2563  require(... */\n      0x04\n      dup3\n      add\n        /* \"#utility.yul\":5672:5693   */\n      mstore\n        /* \"#utility.yul\":5729:5731   */\n      0x16\n        /* \"#utility.yul\":5709:5727   */\n      0x24\n      dup3\n      add\n        /* \"#utility.yul\":5702:5732   */\n      mstore\n      shl(0x51, 0x39b931903a37b5b2b7101e9e903239ba103a37b5b2b7)\n        /* \"#utility.yul\":5748:5766   */\n      0x44\n      dup3\n      add\n        /* \"#utility.yul\":5741:5793   */\n      mstore\n        /* \"#utility.yul\":5810:5828   */\n      0x64\n      add\n        /* \"contracts/Swapper.sol\":2456:2563  require(... */\n      tag_130\n        /* \"#utility.yul\":5488:5834   */\n      jump\n        /* \"contracts/Swapper.sol\":2456:2563  require(... */\n    tag_170:\n        /* \"contracts/Swapper.sol\":2577:2587  msg.sender */\n      caller\n        /* \"contracts/Swapper.sol\":2599:2603  this */\n      address\n        /* \"contracts/Swapper.sol\":2577:2604  msg.sender != address(this) */\n      eq\n        /* \"contracts/Swapper.sol\":2573:2683  if (msg.sender != address(this)) {... */\n      tag_174\n      jumpi\n        /* \"contracts/Swapper.sol\":2628:2638  msg.sender */\n      caller\n      sub(shl(0xa0, 0x01), 0x01)\n        /* \"contracts/Swapper.sol\":2628:2650  msg.sender == _swapper */\n      dup4\n      and\n      eq\n        /* \"contracts/Swapper.sol\":2620:2672  require(msg.sender == _swapper, \"caller != swapper\") */\n      tag_174\n      jumpi\n      mload(0x40)\n      shl(0xe5, 0x461bcd)\n      dup2\n      mstore\n        /* \"#utility.yul\":6041:6043   */\n      0x20\n        /* \"contracts/Swapper.sol\":2620:2672  require(msg.sender == _swapper, \"caller != swapper\") */\n      0x04\n      dup3\n      add\n        /* \"#utility.yul\":6023:6044   */\n      mstore\n        /* \"#utility.yul\":6080:6082   */\n      0x11\n        /* \"#utility.yul\":6060:6078   */\n      0x24\n      dup3\n      add\n        /* \"#utility.yul\":6053:6083   */\n      mstore\n      shl(0x79, 0x31b0b63632b910109e9039bbb0b83832b9)\n        /* \"#utility.yul\":6099:6117   */\n      0x44\n      dup3\n      add\n        /* \"#utility.yul\":6092:6139   */\n      mstore\n        /* \"#utility.yul\":6156:6174   */\n      0x64\n      add\n        /* \"contracts/Swapper.sol\":2620:2672  require(msg.sender == _swapper, \"caller != swapper\") */\n      tag_130\n        /* \"#utility.yul\":5839:6180   */\n      jump\n        /* \"contracts/Swapper.sol\":2620:2672  require(msg.sender == _swapper, \"caller != swapper\") */\n    tag_174:\n        /* \"contracts/Swapper.sol\":2696:2713  swapDesc.srcToken */\n      dup1\n      mload\n      sub(shl(0xa0, 0x01), 0x01)\n        /* \"contracts/Swapper.sol\":2696:2729  swapDesc.srcToken == NATIVE_TOKEN */\n      and\n      not(0xeeeeeeeeeeeeeeeeeeeeeeeeeeeeeeeeeeeeeeed)\n      add\n        /* \"contracts/Swapper.sol\":2692:3209  if (swapDesc.srcToken == NATIVE_TOKEN) {... */\n      tag_177\n      jumpi\n        /* \"contracts/Swapper.sol\":2766:2774  swapDesc */\n      dup1\n        /* \"contracts/Swapper.sol\":2766:2781  swapDesc.amount */\n      0x40\n      add\n      mload\n        /* \"contracts/Swapper.sol\":2753:2762  msg.value */\n      callvalue\n        /* \"contracts/Swapper.sol\":2753:2781  msg.value == swapDesc.amount */\n      eq\n        /* \"contracts/Swapper.sol\":2745:2805  require(msg.value == swapDesc.amount, \"msg.value != amount\") */\n      tag_178\n      jumpi\n      mload(0x40)\n      shl(0xe5, 0x461bcd)\n      dup2\n      mstore\n        /* \"#utility.yul\":6387:6389   */\n      0x20\n        /* \"contracts/Swapper.sol\":2745:2805  require(msg.value == swapDesc.amount, \"msg.value != amount\") */\n      0x04\n      dup3\n      add\n        /* \"#utility.yul\":6369:6390   */\n      mstore\n        /* \"#utility.yul\":6426:6428   */\n      0x13\n        /* \"#utility.yul\":6406:6424   */\n      0x24\n      dup3\n      add\n        /* \"#utility.yul\":6399:6429   */\n      mstore\n      shl(0x6a, 0x1b5cd9cb9d985b1d5948084f48185b5bdd5b9d)\n        /* \"#utility.yul\":6445:6463   */\n      0x44\n      dup3\n      add\n        /* \"#utility.yul\":6438:6487   */\n      mstore\n        /* \"#utility.yul\":6504:6522   */\n      0x64\n      add\n        /* \"contracts/Swapper.sol\":2745:2805  require(msg.value == swapDesc.amount, \"msg.value != amount\") */\n      tag_130\n        /* \"#utility.yul\":6185:6528   */\n      jump\n        /* \"contracts/Swapper.sol\":2745:2805  require(msg.value == swapDesc.amount, \"msg.value != amount\") */\n    tag_178:\n        /* \"contracts/Swapper.sol\":2692:3209  if (swapDesc.srcToken == NATIVE_TOKEN) {... */\n      jump(tag_195)\n    tag_177:\n        /* \"contracts/Swapper.sol\":2844:2853  msg.value */\n      callvalue\n        /* \"contracts/Swapper.sol\":2844:2858  msg.value == 0 */\n      iszero\n        /* \"contracts/Swapper.sol\":2836:2877  require(msg.value == 0, \"msg.value != 0\") */\n      tag_182\n      jumpi\n      mload(0x40)\n      shl(0xe5, 0x461bcd)\n      dup2\n      mstore\n        /* \"#utility.yul\":6735:6737   */\n      0x20\n        /* \"contracts/Swapper.sol\":2836:2877  require(msg.value == 0, \"msg.value != 0\") */\n      0x04\n      dup3\n      add\n        /* \"#utility.yul\":6717:6738   */\n      mstore\n        /* \"#utility.yul\":6774:6776   */\n      0x0e\n        /* \"#utility.yul\":6754:6772   */\n      0x24\n      dup3\n      add\n        /* \"#utility.yul\":6747:6777   */\n      mstore\n      shl(0x94, 0x06d73672e76616c756520213d203)\n        /* \"#utility.yul\":6793:6811   */\n      0x44\n      dup3\n      add\n        /* \"#utility.yul\":6786:6830   */\n      mstore\n        /* \"#utility.yul\":6847:6865   */\n      0x64\n      add\n        /* \"contracts/Swapper.sol\":2836:2877  require(msg.value == 0, \"msg.value != 0\") */\n      tag_130\n        /* \"#utility.yul\":6533:6871   */\n      jump\n        /* \"contracts/Swapper.sol\":2836:2877  require(msg.value == 0, \"msg.value != 0\") */\n    tag_182:\n        /* \"contracts/Swapper.sol\":2962:2979  swapDesc.srcToken */\n      dup1\n      mload\n        /* \"contracts/Swapper.sol\":2955:3000  IERC20(swapDesc.srcToken).balanceOf(_swapper) */\n      mload(0x40)\n      shl(0xe0, 0x70a08231)\n      dup2\n      mstore\n      sub(shl(0xa0, 0x01), 0x01)\n        /* \"#utility.yul\":178:210   */\n      dup5\n      dup2\n      and\n        /* \"contracts/Swapper.sol\":2955:3000  IERC20(swapDesc.srcToken).balanceOf(_swapper) */\n      0x04\n      dup4\n      add\n        /* \"#utility.yul\":160:211   */\n      mstore\n        /* \"contracts/Swapper.sol\":2955:2990  IERC20(swapDesc.srcToken).balanceOf */\n      swap1\n      swap2\n      and\n      swap1\n      0x70a08231\n      swap1\n        /* \"#utility.yul\":133:151   */\n      0x24\n      add\n        /* \"contracts/Swapper.sol\":2955:3000  IERC20(swapDesc.srcToken).balanceOf(_swapper) */\n      0x20\n      mload(0x40)\n      dup1\n      dup4\n      sub\n      dup2\n      dup7\n      gas\n      staticcall\n      iszero\n      dup1\n      iszero\n      tag_187\n      jumpi\n      returndatasize\n      0x00\n      dup1\n      returndatacopy\n      revert(0x00, returndatasize)\n    tag_187:\n      pop\n      pop\n      pop\n      pop\n      mload(0x40)\n      returndatasize\n      not(0x1f)\n      0x1f\n      dup3\n      add\n      and\n      dup3\n      add\n      dup1\n      0x40\n      mstore\n      pop\n      dup2\n      add\n      swap1\n      tag_188\n      swap2\n      swap1\n      tag_189\n      jump\t// in\n    tag_188:\n        /* \"contracts/Swapper.sol\":2916:2924  swapDesc */\n      dup2\n        /* \"contracts/Swapper.sol\":2916:2931  swapDesc.amount */\n      0x40\n      add\n      mload\n        /* \"contracts/Swapper.sol\":2916:3000  swapDesc.amount <=... */\n      gt\n      iszero\n        /* \"contracts/Swapper.sol\":2891:3054  require(... */\n      tag_190\n      jumpi\n      mload(0x40)\n      shl(0xe5, 0x461bcd)\n      dup2\n      mstore\n        /* \"#utility.yul\":7267:7269   */\n      0x20\n        /* \"contracts/Swapper.sol\":2891:3054  require(... */\n      0x04\n      dup3\n      add\n        /* \"#utility.yul\":7249:7270   */\n      mstore\n        /* \"#utility.yul\":7306:7308   */\n      0x14\n        /* \"#utility.yul\":7286:7304   */\n      0x24\n      dup3\n      add\n        /* \"#utility.yul\":7279:7309   */\n      mstore\n      shl(0x60, 0x696e73756666696369656e742062616c616e6365)\n        /* \"#utility.yul\":7325:7343   */\n      0x44\n      dup3\n      add\n        /* \"#utility.yul\":7318:7368   */\n      mstore\n        /* \"#utility.yul\":7385:7403   */\n      0x64\n      add\n        /* \"contracts/Swapper.sol\":2891:3054  require(... */\n      tag_130\n        /* \"#utility.yul\":7065:7409   */\n      jump\n        /* \"contracts/Swapper.sol\":2891:3054  require(... */\n    tag_190:\n        /* \"contracts/Swapper.sol\":3068:3127  _transferFrom(swapDesc.srcToken, _swapper, swapDesc.amount) */\n      tag_193\n        /* \"contracts/Swapper.sol\":3082:3090  swapDesc */\n      dup2\n        /* \"contracts/Swapper.sol\":3082:3099  swapDesc.srcToken */\n      0x00\n      add\n      mload\n        /* \"contracts/Swapper.sol\":3101:3109  _swapper */\n      dup4\n        /* \"contracts/Swapper.sol\":3111:3119  swapDesc */\n      dup4\n        /* \"contracts/Swapper.sol\":3111:3126  swapDesc.amount */\n      0x40\n      add\n      mload\n        /* \"contracts/Swapper.sol\":3068:3081  _transferFrom */\n      tag_194\n        /* \"contracts/Swapper.sol\":3068:3127  _transferFrom(swapDesc.srcToken, _swapper, swapDesc.amount) */\n      jump\t// in\n    tag_193:\n        /* \"contracts/Swapper.sol\":3150:3167  swapDesc.srcToken */\n      dup1\n      mload\n      0x00\n        /* \"contracts/Swapper.sol\":3169:3180  newExchange */\n      sload\n        /* \"contracts/Swapper.sol\":3182:3197  swapDesc.amount */\n      0x40\n      dup4\n      add\n      mload\n        /* \"contracts/Swapper.sol\":3141:3198  _approve(swapDesc.srcToken, newExchange, swapDesc.amount) */\n      tag_195\n      swap3\n        /* \"contracts/Swapper.sol\":3150:3167  swapDesc.srcToken */\n      swap2\n      sub(shl(0xa0, 0x01), 0x01)\n        /* \"contracts/Swapper.sol\":3169:3180  newExchange */\n      and\n      swap1\n        /* \"contracts/Swapper.sol\":3141:3149  _approve */\n      tag_196\n        /* \"contracts/Swapper.sol\":3141:3198  _approve(swapDesc.srcToken, newExchange, swapDesc.amount) */\n      jump\t// in\n    tag_195:\n        /* \"contracts/Swapper.sol\":3219:3237  uint256 swapOutput */\n      0x00\n        /* \"contracts/Swapper.sol\":3240:3255  _swap(swapDesc) */\n      tag_197\n        /* \"contracts/Swapper.sol\":3246:3254  swapDesc */\n      dup3\n        /* \"contracts/Swapper.sol\":3240:3245  _swap */\n      tag_198\n        /* \"contracts/Swapper.sol\":3240:3255  _swap(swapDesc) */\n      jump\t// in\n    tag_197:\n        /* \"contracts/Swapper.sol\":3219:3255  uint256 swapOutput = _swap(swapDesc) */\n      swap1\n      pop\n        /* \"contracts/Swapper.sol\":3265:3276  uint256 fee */\n      0x00\n        /* \"contracts/Swapper.sol\":3314:3319  10000 */\n      0x2710\n        /* \"contracts/Swapper.sol\":3293:3310  swapFeePercentage */\n      sload(0x02)\n        /* \"contracts/Swapper.sol\":3280:3290  swapOutput */\n      dup4\n        /* \"contracts/Swapper.sol\":3280:3310  swapOutput * swapFeePercentage */\n      tag_199\n      swap2\n      swap1\n      tag_200\n      jump\t// in\n    tag_199:\n        /* \"contracts/Swapper.sol\":3279:3319  (swapOutput * swapFeePercentage) / 10000 */\n      tag_201\n      swap2\n      swap1\n      tag_202\n      jump\t// in\n    tag_201:\n        /* \"contracts/Swapper.sol\":3265:3319  uint256 fee = (swapOutput * swapFeePercentage) / 10000 */\n      swap1\n      pop\n        /* \"contracts/Swapper.sol\":975:1017  0xEeeeeEeeeEeEeeEeEeEeeEEEeeeeEeeeeeeeEEeE */\n      0xeeeeeeeeeeeeeeeeeeeeeeeeeeeeeeeeeeeeeeee\n      sub(shl(0xa0, 0x01), 0x01)\n        /* \"contracts/Swapper.sol\":3334:3367  swapDesc.dstToken == NATIVE_TOKEN */\n      and\n        /* \"contracts/Swapper.sol\":3334:3342  swapDesc */\n      dup4\n        /* \"contracts/Swapper.sol\":3334:3351  swapDesc.dstToken */\n      0x20\n      add\n      mload\n      sub(shl(0xa0, 0x01), 0x01)\n        /* \"contracts/Swapper.sol\":3334:3367  swapDesc.dstToken == NATIVE_TOKEN */\n      and\n      sub\n        /* \"contracts/Swapper.sol\":3330:3681  if (swapDesc.dstToken == NATIVE_TOKEN) {... */\n      tag_203\n      jumpi\n        /* \"contracts/Swapper.sol\":3392:3401  swapAdmin */\n      sload(0x01)\n        /* \"contracts/Swapper.sol\":3383:3416  payable( swapAdmin).transfer(fee) */\n      mload(0x40)\n      sub(shl(0xa0, 0x01), 0x01)\n        /* \"contracts/Swapper.sol\":3392:3401  swapAdmin */\n      swap1\n      swap2\n      and\n      swap1\n        /* \"contracts/Swapper.sol\":3383:3416  payable( swapAdmin).transfer(fee) */\n      dup3\n      iszero\n      0x08fc\n      mul\n      swap1\n        /* \"contracts/Swapper.sol\":3412:3415  fee */\n      dup4\n      swap1\n        /* \"contracts/Swapper.sol\":3392:3401  swapAdmin */\n      0x00\n        /* \"contracts/Swapper.sol\":3383:3416  payable( swapAdmin).transfer(fee) */\n      dup2\n        /* \"contracts/Swapper.sol\":3392:3401  swapAdmin */\n      dup2\n        /* \"contracts/Swapper.sol\":3383:3416  payable( swapAdmin).transfer(fee) */\n      dup2\n        /* \"contracts/Swapper.sol\":3412:3415  fee */\n      dup6\n        /* \"contracts/Swapper.sol\":3392:3401  swapAdmin */\n      dup9\n        /* \"contracts/Swapper.sol\":3383:3416  payable( swapAdmin).transfer(fee) */\n      dup9\n      call\n      swap4\n      pop\n      pop\n      pop\n      pop\n      iszero\n      dup1\n      iszero\n      tag_205\n      jumpi\n      returndatasize\n      0x00\n      dup1\n      returndatacopy\n      revert(0x00, returndatasize)\n    tag_205:\n      pop\n        /* \"contracts/Swapper.sol\":3430:3447  swapOutput -= fee */\n      tag_206\n        /* \"contracts/Swapper.sol\":3444:3447  fee */\n      dup2\n        /* \"contracts/Swapper.sol\":3430:3447  swapOutput -= fee */\n      dup4\n      tag_207\n      jump\t// in\n    tag_206:\n        /* \"contracts/Swapper.sol\":3461:3499  payable(_swapper).transfer(swapOutput) */\n      mload(0x40)\n        /* \"contracts/Swapper.sol\":3430:3447  swapOutput -= fee */\n      swap1\n      swap3\n      pop\n      sub(shl(0xa0, 0x01), 0x01)\n        /* \"contracts/Swapper.sol\":3461:3487  payable(_swapper).transfer */\n      dup6\n      and\n      swap1\n        /* \"contracts/Swapper.sol\":3461:3499  payable(_swapper).transfer(swapOutput) */\n      dup4\n      iszero\n      0x08fc\n      mul\n      swap1\n        /* \"contracts/Swapper.sol\":3430:3447  swapOutput -= fee */\n      dup5\n      swap1\n        /* \"contracts/Swapper.sol\":3461:3499  payable(_swapper).transfer(swapOutput) */\n      0x00\n      dup2\n      dup2\n      dup2\n        /* \"contracts/Swapper.sol\":3430:3447  swapOutput -= fee */\n      dup6\n        /* \"contracts/Swapper.sol\":3461:3487  payable(_swapper).transfer */\n      dup9\n        /* \"contracts/Swapper.sol\":3461:3499  payable(_swapper).transfer(swapOutput) */\n      dup9\n      call\n      swap4\n      pop\n      pop\n      pop\n      pop\n      iszero\n      dup1\n      iszero\n      tag_209\n      jumpi\n      returndatasize\n      0x00\n      dup1\n      returndatacopy\n      revert(0x00, returndatasize)\n    tag_209:\n      pop\n        /* \"contracts/Swapper.sol\":3330:3681  if (swapDesc.dstToken == NATIVE_TOKEN) {... */\n      jump(tag_214)\n    tag_203:\n        /* \"contracts/Swapper.sol\":3540:3557  swapDesc.dstToken */\n      0x20\n      dup4\n      add\n      mload\n        /* \"contracts/Swapper.sol\":3560:3569  swapAdmin */\n      sload(0x01)\n        /* \"contracts/Swapper.sol\":3530:3575  _transfer(swapDesc.dstToken,  swapAdmin, fee) */\n      tag_211\n      swap2\n        /* \"contracts/Swapper.sol\":3540:3557  swapDesc.dstToken */\n      swap1\n      sub(shl(0xa0, 0x01), 0x01)\n        /* \"contracts/Swapper.sol\":3560:3569  swapAdmin */\n      and\n        /* \"contracts/Swapper.sol\":3571:3574  fee */\n      dup4\n        /* \"contracts/Swapper.sol\":3530:3539  _transfer */\n      tag_212\n        /* \"contracts/Swapper.sol\":3530:3575  _transfer(swapDesc.dstToken,  swapAdmin, fee) */\n      jump\t// in\n    tag_211:\n        /* \"contracts/Swapper.sol\":3589:3606  swapOutput -= fee */\n      tag_213\n        /* \"contracts/Swapper.sol\":3603:3606  fee */\n      dup2\n        /* \"contracts/Swapper.sol\":3589:3606  swapOutput -= fee */\n      dup4\n      tag_207\n      jump\t// in\n    tag_213:\n      swap2\n      pop\n        /* \"contracts/Swapper.sol\":3620:3670  _transfer(swapDesc.dstToken, _swapper, swapOutput) */\n      tag_214\n        /* \"contracts/Swapper.sol\":3630:3638  swapDesc */\n      dup4\n        /* \"contracts/Swapper.sol\":3630:3647  swapDesc.dstToken */\n      0x20\n      add\n      mload\n        /* \"contracts/Swapper.sol\":3649:3657  _swapper */\n      dup6\n        /* \"contracts/Swapper.sol\":3659:3669  swapOutput */\n      dup5\n        /* \"contracts/Swapper.sol\":3620:3629  _transfer */\n      tag_212\n        /* \"contracts/Swapper.sol\":3620:3670  _transfer(swapDesc.dstToken, _swapper, swapOutput) */\n      jump\t// in\n    tag_214:\n        /* \"contracts/Swapper.sol\":3770:3787  swapDesc.dstToken */\n      0x20\n      dup1\n      dup5\n      add\n      mload\n        /* \"contracts/Swapper.sol\":3739:3756  swapDesc.srcToken */\n      dup5\n      mload\n        /* \"contracts/Swapper.sol\":3801:3816  swapDesc.amount */\n      0x40\n      dup1\n      dup8\n      add\n      mload\n        /* \"contracts/Swapper.sol\":3696:3867  Swapped(... */\n      dup2\n      mload\n        /* \"#utility.yul\":8276:8301   */\n      swap1\n      dup2\n      mstore\n        /* \"#utility.yul\":8317:8335   */\n      swap4\n      dup5\n      add\n        /* \"#utility.yul\":8310:8344   */\n      dup7\n      swap1\n      mstore\n        /* \"#utility.yul\":8360:8378   */\n      dup4\n      add\n        /* \"#utility.yul\":8353:8387   */\n      dup5\n      swap1\n      mstore\n      sub(shl(0xa0, 0x01), 0x01)\n        /* \"contracts/Swapper.sol\":3696:3867  Swapped(... */\n      swap2\n      dup3\n      and\n      swap3\n      swap1\n      dup3\n      and\n      swap2\n      dup8\n      and\n      swap1\n      0xc9163c3bdf7263acf1bb3d24072cc7da025f7181c31e2edc7e1673edf5e0ca32\n      swap1\n        /* \"#utility.yul\":8264:8266   */\n      0x60\n        /* \"#utility.yul\":8249:8267   */\n      add\n        /* \"contracts/Swapper.sol\":3696:3867  Swapped(... */\n      mload(0x40)\n      dup1\n      swap2\n      sub\n      swap1\n      log4\n        /* \"contracts/Swapper.sol\":2197:3874  {... */\n      pop\n      pop\n      pop\n        /* \"@openzeppelin/contracts-upgradeable/utils/ReentrancyGuardUpgradeable.sol\":3437:3457  _nonReentrantAfter() */\n      tag_217\n        /* \"@openzeppelin/contracts-upgradeable/utils/ReentrancyGuardUpgradeable.sol\":1949:1950  1 */\n      0x01\n        /* \"@openzeppelin/contracts-upgradeable/utils/ReentrancyGuardUpgradeable.sol\":2532:2562  ReentrancyGuardStorageLocation */\n      0x9b779b17422d0df92223018b32b4d1fa46e071723d6817e2486d003becc55f00\n        /* \"@openzeppelin/contracts-upgradeable/utils/ReentrancyGuardUpgradeable.sol\":4113:4136  $._status = NOT_ENTERED */\n      sstore\n        /* \"@openzeppelin/contracts-upgradeable/utils/ReentrancyGuardUpgradeable.sol\":3860:4143  function _nonReentrantAfter() private {... */\n      jump\n        /* \"@openzeppelin/contracts-upgradeable/utils/ReentrancyGuardUpgradeable.sol\":3437:3457  _nonReentrantAfter() */\n    tag_217:\n        /* \"contracts/Swapper.sol\":2063:3874  function swap(bytes calldata _data, address _swapper)... */\n      pop\n      pop\n      pop\n      jump\t// out\n        /* \"contracts/Swapper.sol\":3880:4187  function updateSwapFee(uint256 _newFeePercentage) external onlyOwner {... */\n    tag_94:\n        /* \"@openzeppelin/contracts-upgradeable/access/OwnableUpgradeable.sol\":2334:2347  _checkOwner() */\n      tag_220\n        /* \"@openzeppelin/contracts-upgradeable/access/OwnableUpgradeable.sol\":2334:2345  _checkOwner */\n      tag_110\n        /* \"@openzeppelin/contracts-upgradeable/access/OwnableUpgradeable.sol\":2334:2347  _checkOwner() */\n      jump\t// in\n    tag_220:\n        /* \"contracts/Swapper.sol\":4095:4112  swapFeePercentage */\n      0x02\n        /* \"contracts/Swapper.sol\":4095:4132  swapFeePercentage = _newFeePercentage */\n      dup2\n      swap1\n      sstore\n        /* \"contracts/Swapper.sol\":4147:4180  SwapFeeUpdated(_newFeePercentage) */\n      mload(0x40)\n        /* \"#utility.yul\":1826:1851   */\n      dup2\n      dup2\n      mstore\n        /* \"contracts/Swapper.sol\":4147:4180  SwapFeeUpdated(_newFeePercentage) */\n      0x382455f3b749abde7721258dcfa10a22f30d4a28c69151a002dcbd8d1462e4f2\n      swap1\n        /* \"#utility.yul\":1814:1816   */\n      0x20\n        /* \"#utility.yul\":1799:1817   */\n      add\n        /* \"contracts/Swapper.sol\":4147:4180  SwapFeeUpdated(_newFeePercentage) */\n    tag_222:\n      mload(0x40)\n      dup1\n      swap2\n      sub\n      swap1\n      log1\n        /* \"contracts/Swapper.sol\":3880:4187  function updateSwapFee(uint256 _newFeePercentage) external onlyOwner {... */\n      pop\n      jump\t// out\n        /* \"contracts/Swapper.sol\":1596:1904  function initialize(address _swapAdmin)... */\n    tag_98:\n        /* \"@openzeppelin/contracts-upgradeable/proxy/utils/Initializable.sol\":8870:8891  INITIALIZABLE_STORAGE */\n      0xf0c57e16840df040f15088dc2f81fe391c3923bec73e23a9662efc9c229c6a00\n        /* \"@openzeppelin/contracts-upgradeable/proxy/utils/Initializable.sol\":4302:4317  $._initializing */\n      dup1\n      sload\n      shl(0x40, 0x01)\n      dup2\n      div\n      0xff\n      and\n        /* \"@openzeppelin/contracts-upgradeable/proxy/utils/Initializable.sol\":4301:4317  !$._initializing */\n      iszero\n      swap1\n        /* \"@openzeppelin/contracts-upgradeable/proxy/utils/Initializable.sol\":4348:4362  $._initialized */\n      0xffffffffffffffff\n      and\n        /* \"@openzeppelin/contracts-upgradeable/proxy/utils/Initializable.sol\":4158:4188  InitializableStorage storage $ */\n      0x00\n        /* \"@openzeppelin/contracts-upgradeable/proxy/utils/Initializable.sol\":4726:4742  initialized == 0 */\n      dup2\n      iszero\n        /* \"@openzeppelin/contracts-upgradeable/proxy/utils/Initializable.sol\":4726:4760  initialized == 0 && isTopLevelCall */\n      dup1\n      iszero\n      tag_226\n      jumpi\n      pop\n        /* \"@openzeppelin/contracts-upgradeable/proxy/utils/Initializable.sol\":4746:4760  isTopLevelCall */\n      dup3\n        /* \"@openzeppelin/contracts-upgradeable/proxy/utils/Initializable.sol\":4726:4760  initialized == 0 && isTopLevelCall */\n    tag_226:\n        /* \"@openzeppelin/contracts-upgradeable/proxy/utils/Initializable.sol\":4706:4760  bool initialSetup = initialized == 0 && isTopLevelCall */\n      swap1\n      pop\n        /* \"@openzeppelin/contracts-upgradeable/proxy/utils/Initializable.sol\":4770:4787  bool construction */\n      0x00\n        /* \"@openzeppelin/contracts-upgradeable/proxy/utils/Initializable.sol\":4790:4801  initialized */\n      dup3\n        /* \"@openzeppelin/contracts-upgradeable/proxy/utils/Initializable.sol\":4790:4806  initialized == 1 */\n      0xffffffffffffffff\n      and\n        /* \"@openzeppelin/contracts-upgradeable/proxy/utils/Initializable.sol\":4805:4806  1 */\n      0x01\n        /* \"@openzeppelin/contracts-upgradeable/proxy/utils/Initializable.sol\":4790:4806  initialized == 1 */\n      eq\n        /* \"@openzeppelin/contracts-upgradeable/proxy/utils/Initializable.sol\":4790:4840  initialized == 1 && address(this).code.length == 0 */\n      dup1\n      iszero\n      tag_227\n      jumpi\n      pop\n        /* \"@openzeppelin/contracts-upgradeable/proxy/utils/Initializable.sol\":4818:4822  this */\n      address\n        /* \"@openzeppelin/contracts-upgradeable/proxy/utils/Initializable.sol\":4810:4835  address(this).code.length */\n      extcodesize\n        /* \"@openzeppelin/contracts-upgradeable/proxy/utils/Initializable.sol\":4810:4840  address(this).code.length == 0 */\n      iszero\n        /* \"@openzeppelin/contracts-upgradeable/proxy/utils/Initializable.sol\":4790:4840  initialized == 1 && address(this).code.length == 0 */\n    tag_227:\n        /* \"@openzeppelin/contracts-upgradeable/proxy/utils/Initializable.sol\":4770:4840  bool construction = initialized == 1 && address(this).code.length == 0 */\n      swap1\n      pop\n        /* \"@openzeppelin/contracts-upgradeable/proxy/utils/Initializable.sol\":4856:4868  initialSetup */\n      dup2\n        /* \"@openzeppelin/contracts-upgradeable/proxy/utils/Initializable.sol\":4855:4868  !initialSetup */\n      iszero\n        /* \"@openzeppelin/contracts-upgradeable/proxy/utils/Initializable.sol\":4855:4885  !initialSetup && !construction */\n      dup1\n      iszero\n      tag_228\n      jumpi\n      pop\n        /* \"@openzeppelin/contracts-upgradeable/proxy/utils/Initializable.sol\":4873:4885  construction */\n      dup1\n        /* \"@openzeppelin/contracts-upgradeable/proxy/utils/Initializable.sol\":4872:4885  !construction */\n      iszero\n        /* \"@openzeppelin/contracts-upgradeable/proxy/utils/Initializable.sol\":4855:4885  !initialSetup && !construction */\n    tag_228:\n        /* \"@openzeppelin/contracts-upgradeable/proxy/utils/Initializable.sol\":4851:4942  if (!initialSetup && !construction) {... */\n      iszero\n      tag_229\n      jumpi\n        /* \"@openzeppelin/contracts-upgradeable/proxy/utils/Initializable.sol\":4908:4931  InvalidInitialization() */\n      mload(0x40)\n      shl(0xe0, 0xf92ee8a9)\n      dup2\n      mstore\n      0x04\n      add\n      mload(0x40)\n      dup1\n      swap2\n      sub\n      swap1\n      revert\n        /* \"@openzeppelin/contracts-upgradeable/proxy/utils/Initializable.sol\":4851:4942  if (!initialSetup && !construction) {... */\n    tag_229:\n        /* \"@openzeppelin/contracts-upgradeable/proxy/utils/Initializable.sol\":4951:4969  $._initialized = 1 */\n      dup5\n      sload\n      not(0xffffffffffffffff)\n      and\n        /* \"@openzeppelin/contracts-upgradeable/proxy/utils/Initializable.sol\":4968:4969  1 */\n      0x01\n        /* \"@openzeppelin/contracts-upgradeable/proxy/utils/Initializable.sol\":4951:4969  $._initialized = 1 */\n      or\n      dup6\n      sstore\n        /* \"@openzeppelin/contracts-upgradeable/proxy/utils/Initializable.sol\":4979:5046  if (isTopLevelCall) {... */\n      dup4\n      iszero\n      tag_230\n      jumpi\n        /* \"@openzeppelin/contracts-upgradeable/proxy/utils/Initializable.sol\":5013:5035  $._initializing = true */\n      dup5\n      sload\n      not(shl(0x40, 0xff))\n      and\n      shl(0x40, 0x01)\n      or\n      dup6\n      sstore\n        /* \"@openzeppelin/contracts-upgradeable/proxy/utils/Initializable.sol\":4979:5046  if (isTopLevelCall) {... */\n    tag_230:\n        /* \"contracts/Swapper.sol\":1687:1713  __Ownable_init(msg.sender) */\n      tag_232\n        /* \"contracts/Swapper.sol\":1702:1712  msg.sender */\n      caller\n        /* \"contracts/Swapper.sol\":1687:1701  __Ownable_init */\n      tag_233\n        /* \"contracts/Swapper.sol\":1687:1713  __Ownable_init(msg.sender) */\n      jump\t// in\n    tag_232:\n        /* \"contracts/Swapper.sol\":1723:1740  __Pausable_init() */\n      tag_234\n        /* \"contracts/Swapper.sol\":1723:1738  __Pausable_init */\n      tag_235\n        /* \"contracts/Swapper.sol\":1723:1740  __Pausable_init() */\n      jump\t// in\n    tag_234:\n        /* \"contracts/Swapper.sol\":1750:1774  __ReentrancyGuard_init() */\n      tag_236\n        /* \"contracts/Swapper.sol\":1750:1772  __ReentrancyGuard_init */\n      tag_237\n        /* \"contracts/Swapper.sol\":1750:1774  __ReentrancyGuard_init() */\n      jump\t// in\n    tag_236:\n        /* \"contracts/Swapper.sol\":1786:1810  __UUPSUpgradeable_init() */\n      tag_238\n        /* \"contracts/Swapper.sol\":1786:1808  __UUPSUpgradeable_init */\n      tag_239\n        /* \"contracts/Swapper.sol\":1786:1810  __UUPSUpgradeable_init() */\n      jump\t// in\n    tag_238:\n        /* \"contracts/Swapper.sol\":1840:1842  50 */\n      0x32\n        /* \"contracts/Swapper.sol\":1820:1837  swapFeePercentage */\n      0x02\n        /* \"contracts/Swapper.sol\":1820:1842  swapFeePercentage = 50 */\n      sstore\n        /* \"contracts/Swapper.sol\":1875:1884  swapAdmin */\n      0x01\n        /* \"contracts/Swapper.sol\":1875:1897  swapAdmin = _swapAdmin */\n      dup1\n      sload\n      not(sub(shl(0xa0, 0x01), 0x01))\n      and\n      sub(shl(0xa0, 0x01), 0x01)\n      dup9\n      and\n      or\n      swap1\n      sstore\n        /* \"@openzeppelin/contracts-upgradeable/proxy/utils/Initializable.sol\":5066:5167  if (isTopLevelCall) {... */\n      dup4\n      iszero\n      tag_240\n      jumpi\n        /* \"@openzeppelin/contracts-upgradeable/proxy/utils/Initializable.sol\":5100:5123  $._initializing = false */\n      dup5\n      sload\n      not(shl(0x40, 0xff))\n      and\n      dup6\n      sstore\n        /* \"@openzeppelin/contracts-upgradeable/proxy/utils/Initializable.sol\":5142:5156  Initialized(1) */\n      mload(0x40)\n      0x01\n        /* \"#utility.yul\":8551:8601   */\n      dup2\n      mstore\n        /* \"@openzeppelin/contracts-upgradeable/proxy/utils/Initializable.sol\":5142:5156  Initialized(1) */\n      0xc7f505b2f371ae2175ee4913f4499e1f2633a7b5936321eed1cdaeb6115181d2\n      swap1\n        /* \"#utility.yul\":8539:8541   */\n      0x20\n        /* \"#utility.yul\":8524:8542   */\n      add\n        /* \"@openzeppelin/contracts-upgradeable/proxy/utils/Initializable.sol\":5142:5156  Initialized(1) */\n      mload(0x40)\n      dup1\n      swap2\n      sub\n      swap1\n      log1\n        /* \"@openzeppelin/contracts-upgradeable/proxy/utils/Initializable.sol\":5066:5167  if (isTopLevelCall) {... */\n    tag_240:\n        /* \"@openzeppelin/contracts-upgradeable/proxy/utils/Initializable.sol\":4092:5173  {... */\n      pop\n      pop\n      pop\n      pop\n      pop\n        /* \"contracts/Swapper.sol\":1596:1904  function initialize(address _swapAdmin)... */\n      pop\n      jump\t// out\n        /* \"@openzeppelin/contracts-upgradeable/access/OwnableUpgradeable.sol\":3405:3620  function transferOwnership(address newOwner) public virtual onlyOwner {... */\n    tag_102:\n        /* \"@openzeppelin/contracts-upgradeable/access/OwnableUpgradeable.sol\":2334:2347  _checkOwner() */\n      tag_244\n        /* \"@openzeppelin/contracts-upgradeable/access/OwnableUpgradeable.sol\":2334:2345  _checkOwner */\n      tag_110\n        /* \"@openzeppelin/contracts-upgradeable/access/OwnableUpgradeable.sol\":2334:2347  _checkOwner() */\n      jump\t// in\n    tag_244:\n      sub(shl(0xa0, 0x01), 0x01)\n        /* \"@openzeppelin/contracts-upgradeable/access/OwnableUpgradeable.sol\":3489:3511  newOwner == address(0) */\n      dup2\n      and\n        /* \"@openzeppelin/contracts-upgradeable/access/OwnableUpgradeable.sol\":3485:3576  if (newOwner == address(0)) {... */\n      tag_246\n      jumpi\n        /* \"@openzeppelin/contracts-upgradeable/access/OwnableUpgradeable.sol\":3534:3565  OwnableInvalidOwner(address(0)) */\n      mload(0x40)\n      shl(0xe0, 0x1e4fbdf7)\n      dup2\n      mstore\n        /* \"@openzeppelin/contracts-upgradeable/access/OwnableUpgradeable.sol\":3562:3563  0 */\n      0x00\n        /* \"@openzeppelin/contracts-upgradeable/access/OwnableUpgradeable.sol\":3534:3565  OwnableInvalidOwner(address(0)) */\n      0x04\n      dup3\n      add\n        /* \"#utility.yul\":160:211   */\n      mstore\n        /* \"#utility.yul\":133:151   */\n      0x24\n      add\n        /* \"@openzeppelin/contracts-upgradeable/access/OwnableUpgradeable.sol\":3534:3565  OwnableInvalidOwner(address(0)) */\n      tag_130\n        /* \"#utility.yul\":14:217   */\n      jump\n        /* \"@openzeppelin/contracts-upgradeable/access/OwnableUpgradeable.sol\":3485:3576  if (newOwner == address(0)) {... */\n    tag_246:\n        /* \"@openzeppelin/contracts-upgradeable/access/OwnableUpgradeable.sol\":3585:3613  _transferOwnership(newOwner) */\n      tag_248\n        /* \"@openzeppelin/contracts-upgradeable/access/OwnableUpgradeable.sol\":3604:3612  newOwner */\n      dup2\n        /* \"@openzeppelin/contracts-upgradeable/access/OwnableUpgradeable.sol\":3585:3603  _transferOwnership */\n      tag_145\n        /* \"@openzeppelin/contracts-upgradeable/access/OwnableUpgradeable.sol\":3585:3613  _transferOwnership(newOwner) */\n      jump\t// in\n    tag_248:\n        /* \"@openzeppelin/contracts-upgradeable/access/OwnableUpgradeable.sol\":3405:3620  function transferOwnership(address newOwner) public virtual onlyOwner {... */\n      pop\n      jump\t// out\n        /* \"contracts/Swapper.sol\":4193:4412  function getBalance(address _token) public view returns (uint256) {... */\n    tag_106:\n        /* \"contracts/Swapper.sol\":4250:4257  uint256 */\n      0x00\n      not(0xeeeeeeeeeeeeeeeeeeeeeeeeeeeeeeeeeeeeeeed)\n      sub(shl(0xa0, 0x01), 0x01)\n        /* \"contracts/Swapper.sol\":4273:4295  _token == NATIVE_TOKEN */\n      dup4\n      and\n      add\n        /* \"contracts/Swapper.sol\":4269:4350  if (_token == NATIVE_TOKEN) {... */\n      tag_250\n      jumpi\n      pop\n        /* \"contracts/Swapper.sol\":4318:4339  address(this).balance */\n      selfbalance\n      swap2\n        /* \"contracts/Swapper.sol\":4193:4412  function getBalance(address _token) public view returns (uint256) {... */\n      swap1\n      pop\n      jump\t// out\n        /* \"contracts/Swapper.sol\":4269:4350  if (_token == NATIVE_TOKEN) {... */\n    tag_250:\n        /* \"contracts/Swapper.sol\":4366:4405  IERC20(_token).balanceOf(address(this)) */\n      mload(0x40)\n      shl(0xe0, 0x70a08231)\n      dup2\n      mstore\n        /* \"contracts/Swapper.sol\":4399:4403  this */\n      address\n        /* \"contracts/Swapper.sol\":4366:4405  IERC20(_token).balanceOf(address(this)) */\n      0x04\n      dup3\n      add\n        /* \"#utility.yul\":160:211   */\n      mstore\n      sub(shl(0xa0, 0x01), 0x01)\n        /* \"contracts/Swapper.sol\":4366:4390  IERC20(_token).balanceOf */\n      dup4\n      and\n      swap1\n      0x70a08231\n      swap1\n        /* \"#utility.yul\":133:151   */\n      0x24\n      add\n        /* \"contracts/Swapper.sol\":4366:4405  IERC20(_token).balanceOf(address(this)) */\n      0x20\n      mload(0x40)\n      dup1\n      dup4\n      sub\n      dup2\n      dup7\n      gas\n      staticcall\n      iszero\n      dup1\n      iszero\n      tag_253\n      jumpi\n      returndatasize\n      0x00\n      dup1\n      returndatacopy\n      revert(0x00, returndatasize)\n    tag_253:\n      pop\n      pop\n      pop\n      pop\n      mload(0x40)\n      returndatasize\n      not(0x1f)\n      0x1f\n      dup3\n      add\n      and\n      dup3\n      add\n      dup1\n      0x40\n      mstore\n      pop\n      dup2\n      add\n      swap1\n      tag_254\n      swap2\n      swap1\n      tag_189\n      jump\t// in\n    tag_254:\n        /* \"contracts/Swapper.sol\":4359:4405  return IERC20(_token).balanceOf(address(this)) */\n      swap3\n        /* \"contracts/Swapper.sol\":4193:4412  function getBalance(address _token) public view returns (uint256) {... */\n      swap2\n      pop\n      pop\n      jump\t// out\n        /* \"@openzeppelin/contracts-upgradeable/access/OwnableUpgradeable.sol\":2658:2820  function _checkOwner() internal view virtual {... */\n    tag_110:\n        /* \"@openzeppelin/contracts-upgradeable/utils/ContextUpgradeable.sol\":966:976  msg.sender */\n      caller\n        /* \"@openzeppelin/contracts-upgradeable/access/OwnableUpgradeable.sol\":2717:2724  owner() */\n      tag_258\n        /* \"@openzeppelin/contracts-upgradeable/access/OwnableUpgradeable.sol\":1313:1335  OwnableStorageLocation */\n      0x9016d09d72d40fdae2fd8ceac6b6234c7706214fd39c1cd1e609a0528c199300\n        /* \"@openzeppelin/contracts-upgradeable/access/OwnableUpgradeable.sol\":2570:2578  $._owner */\n      sload\n      sub(shl(0xa0, 0x01), 0x01)\n      and\n      swap1\n        /* \"@openzeppelin/contracts-upgradeable/access/OwnableUpgradeable.sol\":2441:2585  function owner() public view virtual returns (address) {... */\n      jump\n        /* \"@openzeppelin/contracts-upgradeable/access/OwnableUpgradeable.sol\":2717:2724  owner() */\n    tag_258:\n      sub(shl(0xa0, 0x01), 0x01)\n        /* \"@openzeppelin/contracts-upgradeable/access/OwnableUpgradeable.sol\":2717:2740  owner() != _msgSender() */\n      and\n      eq\n        /* \"@openzeppelin/contracts-upgradeable/access/OwnableUpgradeable.sol\":2713:2814  if (owner() != _msgSender()) {... */\n      tag_112\n      jumpi\n        /* \"@openzeppelin/contracts-upgradeable/access/OwnableUpgradeable.sol\":2763:2803  OwnableUnauthorizedAccount(_msgSender()) */\n      mload(0x40)\n      shl(0xe0, 0x118cdaa7)\n      dup2\n      mstore\n        /* \"@openzeppelin/contracts-upgradeable/utils/ContextUpgradeable.sol\":966:976  msg.sender */\n      caller\n        /* \"@openzeppelin/contracts-upgradeable/access/OwnableUpgradeable.sol\":2763:2803  OwnableUnauthorizedAccount(_msgSender()) */\n      0x04\n      dup3\n      add\n        /* \"#utility.yul\":160:211   */\n      mstore\n        /* \"#utility.yul\":133:151   */\n      0x24\n      add\n        /* \"@openzeppelin/contracts-upgradeable/access/OwnableUpgradeable.sol\":2763:2803  OwnableUnauthorizedAccount(_msgSender()) */\n      tag_130\n        /* \"#utility.yul\":14:217   */\n      jump\n        /* \"@openzeppelin/contracts-upgradeable/utils/PausableUpgradeable.sol\":3674:3852  function _unpause() internal virtual whenPaused {... */\n    tag_113:\n        /* \"@openzeppelin/contracts-upgradeable/utils/PausableUpgradeable.sol\":2563:2579  _requirePaused() */\n      tag_263\n        /* \"@openzeppelin/contracts-upgradeable/utils/PausableUpgradeable.sol\":2563:2577  _requirePaused */\n      tag_264\n        /* \"@openzeppelin/contracts-upgradeable/utils/PausableUpgradeable.sol\":2563:2579  _requirePaused() */\n      jump\t// in\n    tag_263:\n      0x00\n      dup1\n      mload\n      0x20\n      data_c0c65a3718f3702d917c44106b91645b509d2e2d0979b70495c3babce192339f\n      dup4\n      codecopy\n      dup2\n      mload\n      swap2\n      mstore\n        /* \"@openzeppelin/contracts-upgradeable/utils/PausableUpgradeable.sol\":3791:3808  $._paused = false */\n      dup1\n      sload\n      not(0xff)\n      and\n      dup2\n      sstore\n        /* \"@openzeppelin/contracts-upgradeable/utils/PausableUpgradeable.sol\":3823:3845  Unpaused(_msgSender()) */\n      0x5db9ee0a495bf2e6ff9c91a7834c1ba4fdd244a5e8aa4e537bd38aeae4b073aa\n        /* \"@openzeppelin/contracts-upgradeable/utils/ContextUpgradeable.sol\":966:976  msg.sender */\n      caller\n        /* \"@openzeppelin/contracts-upgradeable/utils/PausableUpgradeable.sol\":3832:3844  _msgSender() */\n    tag_267:\n        /* \"@openzeppelin/contracts-upgradeable/utils/PausableUpgradeable.sol\":3823:3845  Unpaused(_msgSender()) */\n      mload(0x40)\n      sub(shl(0xa0, 0x01), 0x01)\n        /* \"#utility.yul\":178:210   */\n      swap1\n      swap2\n      and\n        /* \"#utility.yul\":160:211   */\n      dup2\n      mstore\n        /* \"#utility.yul\":148:150   */\n      0x20\n        /* \"#utility.yul\":133:151   */\n      add\n        /* \"@openzeppelin/contracts-upgradeable/utils/PausableUpgradeable.sol\":3823:3845  Unpaused(_msgSender()) */\n      tag_222\n        /* \"#utility.yul\":14:217   */\n      jump\n        /* \"@openzeppelin/contracts-upgradeable/proxy/utils/UUPSUpgradeable.sol\":4603:4915  function _checkProxy() internal view virtual {... */\n    tag_116:\n        /* \"@openzeppelin/contracts-upgradeable/proxy/utils/UUPSUpgradeable.sol\":4683:4687  this */\n      address\n      sub(shl(0xa0, 0x01), 0x01)\n        /* \"@openzeppelin/contracts-upgradeable/proxy/utils/UUPSUpgradeable.sol\":4692:4698  __self */\n      immutable(\"0x0b83f23a4eeb8c3f5f7d5934a2289bcf0186d09a12e1b7f20adf54e4b179db15\")\n        /* \"@openzeppelin/contracts-upgradeable/proxy/utils/UUPSUpgradeable.sol\":4675:4698  address(this) == __self */\n      and\n      eq\n      dup1\n        /* \"@openzeppelin/contracts-upgradeable/proxy/utils/UUPSUpgradeable.sol\":4675:4795  address(this) == __self || // Must be called through delegatecall... */\n      tag_270\n      jumpi\n      pop\n        /* \"@openzeppelin/contracts-upgradeable/proxy/utils/UUPSUpgradeable.sol\":4789:4795  __self */\n      immutable(\"0x0b83f23a4eeb8c3f5f7d5934a2289bcf0186d09a12e1b7f20adf54e4b179db15\")\n      sub(shl(0xa0, 0x01), 0x01)\n        /* \"@openzeppelin/contracts-upgradeable/proxy/utils/UUPSUpgradeable.sol\":4753:4795  ERC1967Utils.getImplementation() != __self */\n      and\n        /* \"@openzeppelin/contracts-upgradeable/proxy/utils/UUPSUpgradeable.sol\":4753:4785  ERC1967Utils.getImplementation() */\n      tag_271\n      0x00\n      dup1\n      mload\n      0x20\n      data_75b20eef8615de99c108b05f0dbda081c91897128caa336d75dffb97c4132b4d\n      dup4\n      codecopy\n      dup2\n      mload\n      swap2\n      mstore\n        /* \"@openzeppelin/contracts/proxy/ERC1967/ERC1967Utils.sol\":1519:1572  StorageSlot.getAddressSlot(IMPLEMENTATION_SLOT).value */\n      sload\n      sub(shl(0xa0, 0x01), 0x01)\n      and\n      swap1\n        /* \"@openzeppelin/contracts/proxy/ERC1967/ERC1967Utils.sol\":1441:1579  function getImplementation() internal view returns (address) {... */\n      jump\n        /* \"@openzeppelin/contracts-upgradeable/proxy/utils/UUPSUpgradeable.sol\":4753:4785  ERC1967Utils.getImplementation() */\n    tag_271:\n      sub(shl(0xa0, 0x01), 0x01)\n        /* \"@openzeppelin/contracts-upgradeable/proxy/utils/UUPSUpgradeable.sol\":4753:4795  ERC1967Utils.getImplementation() != __self */\n      and\n      eq\n      iszero\n        /* \"@openzeppelin/contracts-upgradeable/proxy/utils/UUPSUpgradeable.sol\":4675:4795  address(this) == __self || // Must be called through delegatecall... */\n    tag_270:\n        /* \"@openzeppelin/contracts-upgradeable/proxy/utils/UUPSUpgradeable.sol\":4658:4909  if (... */\n      iszero\n      tag_112\n      jumpi\n        /* \"@openzeppelin/contracts-upgradeable/proxy/utils/UUPSUpgradeable.sol\":4869:4898  UUPSUnauthorizedCallContext() */\n      mload(0x40)\n      shl(0xe1, 0x703e46dd)\n      dup2\n      mstore\n      0x04\n      add\n      mload(0x40)\n      dup1\n      swap2\n      sub\n      swap1\n      revert\n        /* \"contracts/Swapper.sol\":1910:2022  function _authorizeUpgrade(address newImplementation)... */\n    tag_119:\n        /* \"@openzeppelin/contracts-upgradeable/access/OwnableUpgradeable.sol\":2334:2347  _checkOwner() */\n      tag_248\n        /* \"@openzeppelin/contracts-upgradeable/access/OwnableUpgradeable.sol\":2334:2345  _checkOwner */\n      tag_110\n        /* \"@openzeppelin/contracts-upgradeable/access/OwnableUpgradeable.sol\":2334:2347  _checkOwner() */\n      jump\t// in\n        /* \"@openzeppelin/contracts-upgradeable/proxy/utils/UUPSUpgradeable.sol\":6057:6595  function _upgradeToAndCallUUPS(address newImplementation, bytes memory data) private {... */\n    tag_121:\n        /* \"@openzeppelin/contracts-upgradeable/proxy/utils/UUPSUpgradeable.sol\":6174:6191  newImplementation */\n      dup2\n      sub(shl(0xa0, 0x01), 0x01)\n        /* \"@openzeppelin/contracts-upgradeable/proxy/utils/UUPSUpgradeable.sol\":6156:6206  IERC1822Proxiable(newImplementation).proxiableUUID */\n      and\n      0x52d1902d\n        /* \"@openzeppelin/contracts-upgradeable/proxy/utils/UUPSUpgradeable.sol\":6156:6208  IERC1822Proxiable(newImplementation).proxiableUUID() */\n      mload(0x40)\n      dup2\n      0xffffffff\n      and\n      0xe0\n      shl\n      dup2\n      mstore\n      0x04\n      add\n      0x20\n      mload(0x40)\n      dup1\n      dup4\n      sub\n      dup2\n      dup7\n      gas\n      staticcall\n      swap3\n      pop\n      pop\n      pop\n      dup1\n      iszero\n      tag_278\n      jumpi\n      pop\n      0x40\n      dup1\n      mload\n      0x1f\n      returndatasize\n      swap1\n      dup2\n      add\n      not(0x1f)\n      and\n      dup3\n      add\n      swap1\n      swap3\n      mstore\n      tag_279\n      swap2\n      dup2\n      add\n      swap1\n      tag_189\n      jump\t// in\n    tag_279:\n      0x01\n    tag_278:\n        /* \"@openzeppelin/contracts-upgradeable/proxy/utils/UUPSUpgradeable.sol\":6152:6589  try IERC1822Proxiable(newImplementation).proxiableUUID() returns (bytes32 slot) {... */\n      tag_281\n      jumpi\n        /* \"@openzeppelin/contracts-upgradeable/proxy/utils/UUPSUpgradeable.sol\":6518:6578  ERC1967Utils.ERC1967InvalidImplementation(newImplementation) */\n      mload(0x40)\n      shl(0xe0, 0x4c9c8ce3)\n      dup2\n      mstore\n      sub(shl(0xa0, 0x01), 0x01)\n        /* \"#utility.yul\":178:210   */\n      dup4\n      and\n        /* \"@openzeppelin/contracts-upgradeable/proxy/utils/UUPSUpgradeable.sol\":6518:6578  ERC1967Utils.ERC1967InvalidImplementation(newImplementation) */\n      0x04\n      dup3\n      add\n        /* \"#utility.yul\":160:211   */\n      mstore\n        /* \"#utility.yul\":133:151   */\n      0x24\n      add\n        /* \"@openzeppelin/contracts-upgradeable/proxy/utils/UUPSUpgradeable.sol\":6518:6578  ERC1967Utils.ERC1967InvalidImplementation(newImplementation) */\n      tag_130\n        /* \"#utility.yul\":14:217   */\n      jump\n        /* \"@openzeppelin/contracts-upgradeable/proxy/utils/UUPSUpgradeable.sol\":6152:6589  try IERC1822Proxiable(newImplementation).proxiableUUID() returns (bytes32 slot) {... */\n    tag_281:\n      0x00\n      dup1\n      mload\n      0x20\n      data_75b20eef8615de99c108b05f0dbda081c91897128caa336d75dffb97c4132b4d\n      dup4\n      codecopy\n      dup2\n      mload\n      swap2\n      mstore\n        /* \"@openzeppelin/contracts-upgradeable/proxy/utils/UUPSUpgradeable.sol\":6250:6290  slot != ERC1967Utils.IMPLEMENTATION_SLOT */\n      dup2\n      eq\n        /* \"@openzeppelin/contracts-upgradeable/proxy/utils/UUPSUpgradeable.sol\":6246:6366  if (slot != ERC1967Utils.IMPLEMENTATION_SLOT) {... */\n      tag_287\n      jumpi\n        /* \"@openzeppelin/contracts-upgradeable/proxy/utils/UUPSUpgradeable.sol\":6317:6351  UUPSUnsupportedProxiableUUID(slot) */\n      mload(0x40)\n      shl(0xe2, 0x2a875269)\n      dup2\n      mstore\n      0x04\n      dup2\n      add\n        /* \"#utility.yul\":1826:1851   */\n      dup3\n      swap1\n      mstore\n        /* \"#utility.yul\":1799:1817   */\n      0x24\n      add\n        /* \"@openzeppelin/contracts-upgradeable/proxy/utils/UUPSUpgradeable.sol\":6317:6351  UUPSUnsupportedProxiableUUID(slot) */\n      tag_130\n        /* \"#utility.yul\":1680:1857   */\n      jump\n        /* \"@openzeppelin/contracts-upgradeable/proxy/utils/UUPSUpgradeable.sol\":6246:6366  if (slot != ERC1967Utils.IMPLEMENTATION_SLOT) {... */\n    tag_287:\n        /* \"@openzeppelin/contracts-upgradeable/proxy/utils/UUPSUpgradeable.sol\":6379:6433  ERC1967Utils.upgradeToAndCall(newImplementation, data) */\n      tag_217\n        /* \"@openzeppelin/contracts-upgradeable/proxy/utils/UUPSUpgradeable.sol\":6409:6426  newImplementation */\n      dup4\n        /* \"@openzeppelin/contracts-upgradeable/proxy/utils/UUPSUpgradeable.sol\":6428:6432  data */\n      dup4\n        /* \"@openzeppelin/contracts-upgradeable/proxy/utils/UUPSUpgradeable.sol\":6379:6408  ERC1967Utils.upgradeToAndCall */\n      tag_290\n        /* \"@openzeppelin/contracts-upgradeable/proxy/utils/UUPSUpgradeable.sol\":6379:6433  ERC1967Utils.upgradeToAndCall(newImplementation, data) */\n      jump\t// in\n        /* \"@openzeppelin/contracts-upgradeable/proxy/utils/UUPSUpgradeable.sol\":5032:5245  function _checkNotDelegated() internal view virtual {... */\n    tag_124:\n        /* \"@openzeppelin/contracts-upgradeable/proxy/utils/UUPSUpgradeable.sol\":5106:5110  this */\n      address\n      sub(shl(0xa0, 0x01), 0x01)\n        /* \"@openzeppelin/contracts-upgradeable/proxy/utils/UUPSUpgradeable.sol\":5115:5121  __self */\n      immutable(\"0x0b83f23a4eeb8c3f5f7d5934a2289bcf0186d09a12e1b7f20adf54e4b179db15\")\n        /* \"@openzeppelin/contracts-upgradeable/proxy/utils/UUPSUpgradeable.sol\":5098:5121  address(this) != __self */\n      and\n      eq\n        /* \"@openzeppelin/contracts-upgradeable/proxy/utils/UUPSUpgradeable.sol\":5094:5239  if (address(this) != __self) {... */\n      tag_112\n      jumpi\n        /* \"@openzeppelin/contracts-upgradeable/proxy/utils/UUPSUpgradeable.sol\":5199:5228  UUPSUnauthorizedCallContext() */\n      mload(0x40)\n      shl(0xe1, 0x703e46dd)\n      dup2\n      mstore\n      0x04\n      add\n      mload(0x40)\n      dup1\n      swap2\n      sub\n      swap1\n      revert\n        /* \"@openzeppelin/contracts-upgradeable/access/OwnableUpgradeable.sol\":3774:4022  function _transferOwnership(address newOwner) internal virtual {... */\n    tag_145:\n        /* \"@openzeppelin/contracts-upgradeable/access/OwnableUpgradeable.sol\":1313:1335  OwnableStorageLocation */\n      0x9016d09d72d40fdae2fd8ceac6b6234c7706214fd39c1cd1e609a0528c199300\n        /* \"@openzeppelin/contracts-upgradeable/access/OwnableUpgradeable.sol\":3923:3931  $._owner */\n      dup1\n      sload\n      not(sub(shl(0xa0, 0x01), 0x01))\n        /* \"@openzeppelin/contracts-upgradeable/access/OwnableUpgradeable.sol\":3941:3960  $._owner = newOwner */\n      dup2\n      and\n      sub(shl(0xa0, 0x01), 0x01)\n      dup5\n      dup2\n      and\n      swap2\n      dup3\n      or\n      dup5\n      sstore\n        /* \"@openzeppelin/contracts-upgradeable/access/OwnableUpgradeable.sol\":3975:4015  OwnershipTransferred(oldOwner, newOwner) */\n      mload(0x40)\n        /* \"@openzeppelin/contracts-upgradeable/access/OwnableUpgradeable.sol\":3923:3931  $._owner */\n      swap3\n      and\n      swap2\n      dup3\n      swap1\n        /* \"@openzeppelin/contracts-upgradeable/access/OwnableUpgradeable.sol\":3975:4015  OwnershipTransferred(oldOwner, newOwner) */\n      0x8be0079c531659141344cd1fd0a4f28419497f9722a3daafe3b4186f6b6457e0\n      swap1\n        /* \"@openzeppelin/contracts-upgradeable/access/OwnableUpgradeable.sol\":3847:3871  OwnableStorage storage $ */\n      0x00\n      swap1\n        /* \"@openzeppelin/contracts-upgradeable/access/OwnableUpgradeable.sol\":3975:4015  OwnershipTransferred(oldOwner, newOwner) */\n      log3\n        /* \"@openzeppelin/contracts-upgradeable/access/OwnableUpgradeable.sol\":3837:4022  {... */\n      pop\n      pop\n        /* \"@openzeppelin/contracts-upgradeable/access/OwnableUpgradeable.sol\":3774:4022  function _transferOwnership(address newOwner) internal virtual {... */\n      pop\n      jump\t// out\n        /* \"@openzeppelin/contracts-upgradeable/utils/PausableUpgradeable.sol\":3366:3542  function _pause() internal virtual whenNotPaused {... */\n    tag_150:\n        /* \"@openzeppelin/contracts-upgradeable/utils/PausableUpgradeable.sol\":2316:2335  _requireNotPaused() */\n      tag_297\n        /* \"@openzeppelin/contracts-upgradeable/utils/PausableUpgradeable.sol\":2316:2333  _requireNotPaused */\n      tag_156\n        /* \"@openzeppelin/contracts-upgradeable/utils/PausableUpgradeable.sol\":2316:2335  _requireNotPaused() */\n      jump\t// in\n    tag_297:\n      0x00\n      dup1\n      mload\n      0x20\n      data_c0c65a3718f3702d917c44106b91645b509d2e2d0979b70495c3babce192339f\n      dup4\n      codecopy\n      dup2\n      mload\n      swap2\n      mstore\n        /* \"@openzeppelin/contracts-upgradeable/utils/PausableUpgradeable.sol\":3484:3500  $._paused = true */\n      dup1\n      sload\n      not(0xff)\n      and\n        /* \"@openzeppelin/contracts-upgradeable/utils/PausableUpgradeable.sol\":3496:3500  true */\n      0x01\n        /* \"@openzeppelin/contracts-upgradeable/utils/PausableUpgradeable.sol\":3484:3500  $._paused = true */\n      or\n      dup2\n      sstore\n        /* \"@openzeppelin/contracts-upgradeable/utils/PausableUpgradeable.sol\":3515:3535  Paused(_msgSender()) */\n      0x62e78cea01bee320cd4e420270b5ea74000d11b0c9f74754ebdbfc544b05a258\n        /* \"@openzeppelin/contracts-upgradeable/utils/ContextUpgradeable.sol\":966:976  msg.sender */\n      caller\n        /* \"@openzeppelin/contracts-upgradeable/utils/PausableUpgradeable.sol\":3522:3534  _msgSender() */\n      tag_267\n        /* \"@openzeppelin/contracts-upgradeable/utils/ContextUpgradeable.sol\":887:983  function _msgSender() internal view virtual returns (address) {... */\n      jump\n        /* \"@openzeppelin/contracts-upgradeable/utils/PausableUpgradeable.sol\":2905:3033  function _requireNotPaused() internal view virtual {... */\n    tag_156:\n      0x00\n      dup1\n      mload\n      0x20\n      data_c0c65a3718f3702d917c44106b91645b509d2e2d0979b70495c3babce192339f\n      dup4\n      codecopy\n      dup2\n      mload\n      swap2\n      mstore\n        /* \"@openzeppelin/contracts-upgradeable/utils/PausableUpgradeable.sol\":2821:2830  $._paused */\n      sload\n      0xff\n      and\n        /* \"@openzeppelin/contracts-upgradeable/utils/PausableUpgradeable.sol\":2966:3027  if (paused()) {... */\n      iszero\n      tag_112\n      jumpi\n        /* \"@openzeppelin/contracts-upgradeable/utils/PausableUpgradeable.sol\":3001:3016  EnforcedPause() */\n      mload(0x40)\n      shl(0xe0, 0xd93c0665)\n      dup2\n      mstore\n      0x04\n      add\n      mload(0x40)\n      dup1\n      swap2\n      sub\n      swap1\n      revert\n        /* \"@openzeppelin/contracts-upgradeable/utils/ReentrancyGuardUpgradeable.sol\":3470:3854  function _nonReentrantBefore() private {... */\n    tag_159:\n        /* \"@openzeppelin/contracts-upgradeable/utils/ReentrancyGuardUpgradeable.sol\":2532:2562  ReentrancyGuardStorageLocation */\n      0x9b779b17422d0df92223018b32b4d1fa46e071723d6817e2486d003becc55f00\n        /* \"@openzeppelin/contracts-upgradeable/utils/ReentrancyGuardUpgradeable.sol\":3670:3679  $._status */\n      dup1\n      sload\n      not(0x01)\n        /* \"@openzeppelin/contracts-upgradeable/utils/ReentrancyGuardUpgradeable.sol\":3670:3690  $._status == ENTERED */\n      add\n        /* \"@openzeppelin/contracts-upgradeable/utils/ReentrancyGuardUpgradeable.sol\":3666:3754  if ($._status == ENTERED) {... */\n      tag_309\n      jumpi\n        /* \"@openzeppelin/contracts-upgradeable/utils/ReentrancyGuardUpgradeable.sol\":3713:3743  ReentrancyGuardReentrantCall() */\n      mload(0x40)\n      shl(0xe0, 0x3ee5aeb5)\n      dup2\n      mstore\n      0x04\n      add\n      mload(0x40)\n      dup1\n      swap2\n      sub\n      swap1\n      revert\n        /* \"@openzeppelin/contracts-upgradeable/utils/ReentrancyGuardUpgradeable.sol\":3666:3754  if ($._status == ENTERED) {... */\n    tag_309:\n        /* \"@openzeppelin/contracts-upgradeable/utils/ReentrancyGuardUpgradeable.sol\":1991:1992  2 */\n      0x02\n        /* \"@openzeppelin/contracts-upgradeable/utils/ReentrancyGuardUpgradeable.sol\":3828:3847  $._status = ENTERED */\n      swap1\n      sstore\n        /* \"@openzeppelin/contracts-upgradeable/utils/ReentrancyGuardUpgradeable.sol\":3470:3854  function _nonReentrantBefore() private {... */\n      jump\t// out\n        /* \"contracts/Swapper.sol\":4792:5105  function _decode(bytes calldata _data)... */\n    tag_162:\n      0x40\n      dup1\n      mload\n      0x80\n      dup2\n      add\n      dup3\n      mstore\n      0x00\n      dup1\n      dup3\n      mstore\n      0x20\n      dup3\n      add\n      dup2\n      swap1\n      mstore\n      swap2\n      dup2\n      add\n      dup3\n      swap1\n      mstore\n      0x60\n      dup1\n      dup3\n      add\n      mstore\n      swap1\n      dup1\n      dup1\n      dup1\n        /* \"contracts/Swapper.sol\":4967:5054  abi.decode(... */\n      tag_313\n      dup8\n      dup8\n      add\n      dup9\n      tag_314\n      jump\t// in\n    tag_313:\n        /* \"contracts/Swapper.sol\":5071:5098  SwapDescription(a, b, c, d) */\n      0x40\n      dup1\n      mload\n      0x80\n      dup2\n      add\n      dup3\n      mstore\n      sub(shl(0xa0, 0x01), 0x01)\n      swap6\n      dup7\n      and\n      dup2\n      mstore\n      swap5\n      swap1\n      swap4\n      and\n      0x20\n      dup6\n      add\n      mstore\n      swap2\n      dup4\n      add\n      mstore\n      0x60\n      dup3\n      add\n      mstore\n      swap5\n      pop\n      pop\n      pop\n      pop\n      pop\n        /* \"contracts/Swapper.sol\":4792:5105  function _decode(bytes calldata _data)... */\n      swap3\n      swap2\n      pop\n      pop\n      jump\t// out\n        /* \"contracts/Swapper.sol\":6060:6248  function _transferFrom(... */\n    tag_194:\n        /* \"contracts/Swapper.sol\":6179:6241  IERC20(_token).safeTransferFrom(_from, address(this), _amount) */\n      tag_217\n      sub(shl(0xa0, 0x01), 0x01)\n        /* \"contracts/Swapper.sol\":6179:6210  IERC20(_token).safeTransferFrom */\n      dup5\n      and\n        /* \"contracts/Swapper.sol\":6211:6216  _from */\n      dup4\n        /* \"contracts/Swapper.sol\":6226:6230  this */\n      address\n        /* \"contracts/Swapper.sol\":6233:6240  _amount */\n      dup5\n        /* \"contracts/Swapper.sol\":6179:6210  IERC20(_token).safeTransferFrom */\n      tag_317\n        /* \"contracts/Swapper.sol\":6179:6241  IERC20(_token).safeTransferFrom(_from, address(this), _amount) */\n      jump\t// in\n        /* \"contracts/Swapper.sol\":5581:5887  function _approve(... */\n    tag_196:\n        /* \"contracts/Swapper.sol\":5718:5767  IERC20(_token).allowance(address(this), _spender) */\n      mload(0x40)\n      shl(0xe1, 0x6eb1769f)\n      dup2\n      mstore\n        /* \"contracts/Swapper.sol\":5751:5755  this */\n      address\n        /* \"contracts/Swapper.sol\":5718:5767  IERC20(_token).allowance(address(this), _spender) */\n      0x04\n      dup3\n      add\n        /* \"#utility.yul\":9713:9764   */\n      mstore\n      sub(shl(0xa0, 0x01), 0x01)\n        /* \"#utility.yul\":9800:9832   */\n      dup4\n      dup2\n      and\n        /* \"#utility.yul\":9780:9798   */\n      0x24\n      dup4\n      add\n        /* \"#utility.yul\":9773:9833   */\n      mstore\n        /* \"contracts/Swapper.sol\":5698:5715  uint256 allowance */\n      0x00\n      swap2\n        /* \"contracts/Swapper.sol\":5718:5742  IERC20(_token).allowance */\n      swap1\n      dup6\n      and\n      swap1\n      0xdd62ed3e\n      swap1\n        /* \"#utility.yul\":9686:9704   */\n      0x44\n      add\n        /* \"contracts/Swapper.sol\":5718:5767  IERC20(_token).allowance(address(this), _spender) */\n      0x20\n      mload(0x40)\n      dup1\n      dup4\n      sub\n      dup2\n      dup7\n      gas\n      staticcall\n      iszero\n      dup1\n      iszero\n      tag_322\n      jumpi\n      returndatasize\n      0x00\n      dup1\n      returndatacopy\n      revert(0x00, returndatasize)\n    tag_322:\n      pop\n      pop\n      pop\n      pop\n      mload(0x40)\n      returndatasize\n      not(0x1f)\n      0x1f\n      dup3\n      add\n      and\n      dup3\n      add\n      dup1\n      0x40\n      mstore\n      pop\n      dup2\n      add\n      swap1\n      tag_323\n      swap2\n      swap1\n      tag_189\n      jump\t// in\n    tag_323:\n        /* \"contracts/Swapper.sol\":5698:5767  uint256 allowance = IERC20(_token).allowance(address(this), _spender) */\n      swap1\n      pop\n        /* \"contracts/Swapper.sol\":5793:5800  _amount */\n      dup2\n        /* \"contracts/Swapper.sol\":5781:5790  allowance */\n      dup2\n        /* \"contracts/Swapper.sol\":5781:5800  allowance < _amount */\n      lt\n        /* \"contracts/Swapper.sol\":5777:5881  if (allowance < _amount) {... */\n      iszero\n      tag_324\n      jumpi\n        /* \"contracts/Swapper.sol\":5829:5870  IERC20(_token).approve(_spender, _amount) */\n      mload(0x40)\n      shl(0xe0, 0x095ea7b3)\n      dup2\n      mstore\n      sub(shl(0xa0, 0x01), 0x01)\n        /* \"#utility.yul\":10036:10068   */\n      dup5\n      dup2\n      and\n        /* \"contracts/Swapper.sol\":5829:5870  IERC20(_token).approve(_spender, _amount) */\n      0x04\n      dup4\n      add\n        /* \"#utility.yul\":10018:10069   */\n      mstore\n        /* \"#utility.yul\":10085:10103   */\n      0x24\n      dup3\n      add\n        /* \"#utility.yul\":10078:10112   */\n      dup5\n      swap1\n      mstore\n        /* \"contracts/Swapper.sol\":5829:5851  IERC20(_token).approve */\n      dup6\n      and\n      swap1\n      0x095ea7b3\n      swap1\n        /* \"#utility.yul\":9991:10009   */\n      0x44\n      add\n        /* \"contracts/Swapper.sol\":5829:5870  IERC20(_token).approve(_spender, _amount) */\n      0x20\n      mload(0x40)\n      dup1\n      dup4\n      sub\n      dup2\n      0x00\n      dup8\n      gas\n      call\n      iszero\n      dup1\n      iszero\n      tag_328\n      jumpi\n      returndatasize\n      0x00\n      dup1\n      returndatacopy\n      revert(0x00, returndatasize)\n    tag_328:\n      pop\n      pop\n      pop\n      pop\n      mload(0x40)\n      returndatasize\n      not(0x1f)\n      0x1f\n      dup3\n      add\n      and\n      dup3\n      add\n      dup1\n      0x40\n      mstore\n      pop\n      dup2\n      add\n      swap1\n      tag_329\n      swap2\n      swap1\n      tag_330\n      jump\t// in\n    tag_329:\n      pop\n        /* \"contracts/Swapper.sol\":5777:5881  if (allowance < _amount) {... */\n    tag_324:\n        /* \"contracts/Swapper.sol\":5688:5887  {... */\n      pop\n        /* \"contracts/Swapper.sol\":5581:5887  function _approve(... */\n      pop\n      pop\n      pop\n      jump\t// out\n        /* \"contracts/Swapper.sol\":5111:5575  function _swap(SwapDescription memory _swapDesc) private returns (uint256) {... */\n    tag_198:\n        /* \"contracts/Swapper.sol\":5177:5184  uint256 */\n      0x00\n        /* \"contracts/Swapper.sol\":5196:5221  uint256 balanceBeforeSwap */\n      dup1\n        /* \"contracts/Swapper.sol\":5224:5254  getBalance(_swapDesc.dstToken) */\n      tag_332\n        /* \"contracts/Swapper.sol\":5235:5244  _swapDesc */\n      dup4\n        /* \"contracts/Swapper.sol\":5235:5253  _swapDesc.dstToken */\n      0x20\n      add\n      mload\n        /* \"contracts/Swapper.sol\":5224:5234  getBalance */\n      tag_106\n        /* \"contracts/Swapper.sol\":5224:5254  getBalance(_swapDesc.dstToken) */\n      jump\t// in\n    tag_332:\n        /* \"contracts/Swapper.sol\":5265:5277  bool success */\n      0x00\n        /* \"contracts/Swapper.sol\":5283:5294  newExchange */\n      dup1\n      sload\n        /* \"contracts/Swapper.sol\":5318:5332  _swapDesc.data */\n      0x60\n      dup7\n      add\n      mload\n        /* \"contracts/Swapper.sol\":5283:5333  newExchange.call{value: msg.value}(_swapDesc.data) */\n      mload(0x40)\n        /* \"contracts/Swapper.sol\":5196:5254  uint256 balanceBeforeSwap = getBalance(_swapDesc.dstToken) */\n      swap4\n      swap5\n      pop\n        /* \"contracts/Swapper.sol\":5265:5277  bool success */\n      swap2\n      swap3\n      sub(shl(0xa0, 0x01), 0x01)\n        /* \"contracts/Swapper.sol\":5283:5294  newExchange */\n      swap1\n      swap2\n      and\n      swap2\n        /* \"contracts/Swapper.sol\":5307:5316  msg.value */\n      callvalue\n      swap2\n        /* \"contracts/Swapper.sol\":5283:5333  newExchange.call{value: msg.value}(_swapDesc.data) */\n      tag_333\n      swap2\n        /* \"contracts/Swapper.sol\":5318:5332  _swapDesc.data */\n      swap1\n        /* \"contracts/Swapper.sol\":5283:5333  newExchange.call{value: msg.value}(_swapDesc.data) */\n      tag_334\n      jump\t// in\n    tag_333:\n      0x00\n      mload(0x40)\n      dup1\n      dup4\n      sub\n      dup2\n      dup6\n      dup8\n      gas\n      call\n      swap3\n      pop\n      pop\n      pop\n      returndatasize\n      dup1\n      0x00\n      dup2\n      eq\n      tag_337\n      jumpi\n      mload(0x40)\n      swap2\n      pop\n      and(add(returndatasize, 0x3f), not(0x1f))\n      dup3\n      add\n      0x40\n      mstore\n      returndatasize\n      dup3\n      mstore\n      returndatasize\n      0x00\n      0x20\n      dup5\n      add\n      returndatacopy\n      jump(tag_336)\n    tag_337:\n      0x60\n      swap2\n      pop\n    tag_336:\n      pop\n        /* \"contracts/Swapper.sol\":5264:5333  (bool success, ) = newExchange.call{value: msg.value}(_swapDesc.data) */\n      pop\n      swap1\n      pop\n        /* \"contracts/Swapper.sol\":5351:5358  success */\n      dup1\n        /* \"contracts/Swapper.sol\":5343:5374  require(success, \"swap failed\") */\n      tag_338\n      jumpi\n      mload(0x40)\n      shl(0xe5, 0x461bcd)\n      dup2\n      mstore\n        /* \"#utility.yul\":10899:10901   */\n      0x20\n        /* \"contracts/Swapper.sol\":5343:5374  require(success, \"swap failed\") */\n      0x04\n      dup3\n      add\n        /* \"#utility.yul\":10881:10902   */\n      mstore\n        /* \"#utility.yul\":10938:10940   */\n      0x0b\n        /* \"#utility.yul\":10918:10936   */\n      0x24\n      dup3\n      add\n        /* \"#utility.yul\":10911:10941   */\n      mstore\n      shl(0xaa, 0x1cddd85c0819985a5b1959)\n        /* \"#utility.yul\":10957:10975   */\n      0x44\n      dup3\n      add\n        /* \"#utility.yul\":10950:10991   */\n      mstore\n        /* \"#utility.yul\":11008:11026   */\n      0x64\n      add\n        /* \"contracts/Swapper.sol\":5343:5374  require(success, \"swap failed\") */\n      tag_130\n        /* \"#utility.yul\":10697:11032   */\n      jump\n        /* \"contracts/Swapper.sol\":5343:5374  require(success, \"swap failed\") */\n    tag_338:\n        /* \"contracts/Swapper.sol\":5384:5408  uint256 balanceAfterSwap */\n      0x00\n        /* \"contracts/Swapper.sol\":5411:5441  getBalance(_swapDesc.dstToken) */\n      tag_341\n        /* \"contracts/Swapper.sol\":5422:5431  _swapDesc */\n      dup6\n        /* \"contracts/Swapper.sol\":5422:5440  _swapDesc.dstToken */\n      0x20\n      add\n      mload\n        /* \"contracts/Swapper.sol\":5411:5421  getBalance */\n      tag_106\n        /* \"contracts/Swapper.sol\":5411:5441  getBalance(_swapDesc.dstToken) */\n      jump\t// in\n    tag_341:\n        /* \"contracts/Swapper.sol\":5384:5441  uint256 balanceAfterSwap = getBalance(_swapDesc.dstToken) */\n      swap1\n      pop\n        /* \"contracts/Swapper.sol\":5451:5469  uint256 swapOutput */\n      0x00\n        /* \"contracts/Swapper.sol\":5472:5508  balanceAfterSwap - balanceBeforeSwap */\n      tag_342\n        /* \"contracts/Swapper.sol\":5491:5508  balanceBeforeSwap */\n      dup5\n        /* \"contracts/Swapper.sol\":5384:5441  uint256 balanceAfterSwap = getBalance(_swapDesc.dstToken) */\n      dup4\n        /* \"contracts/Swapper.sol\":5472:5508  balanceAfterSwap - balanceBeforeSwap */\n      tag_207\n      jump\t// in\n    tag_342:\n        /* \"contracts/Swapper.sol\":5451:5508  uint256 swapOutput = balanceAfterSwap - balanceBeforeSwap */\n      swap1\n      pop\n        /* \"contracts/Swapper.sol\":5525:5535  swapOutput */\n      dup1\n        /* \"contracts/Swapper.sol\":5539:5540  0 */\n      0x00\n        /* \"contracts/Swapper.sol\":5525:5540  swapOutput != 0 */\n      sub\n        /* \"contracts/Swapper.sol\":5518:5541  assert(swapOutput != 0) */\n      tag_344\n      jumpi\n      tag_344\n      tag_345\n      jump\t// in\n    tag_344:\n        /* \"contracts/Swapper.sol\":5558:5568  swapOutput */\n      swap6\n        /* \"contracts/Swapper.sol\":5111:5575  function _swap(SwapDescription memory _swapDesc) private returns (uint256) {... */\n      swap5\n      pop\n      pop\n      pop\n      pop\n      pop\n      jump\t// out\n        /* \"contracts/Swapper.sol\":5893:6054  function _transfer(... */\n    tag_212:\n        /* \"contracts/Swapper.sol\":6006:6047  IERC20(_token).safeTransfer(_to, _amount) */\n      tag_217\n      sub(shl(0xa0, 0x01), 0x01)\n        /* \"contracts/Swapper.sol\":6006:6033  IERC20(_token).safeTransfer */\n      dup5\n      and\n        /* \"contracts/Swapper.sol\":6034:6037  _to */\n      dup4\n        /* \"contracts/Swapper.sol\":6039:6046  _amount */\n      dup4\n        /* \"contracts/Swapper.sol\":6006:6033  IERC20(_token).safeTransfer */\n      tag_348\n        /* \"contracts/Swapper.sol\":6006:6047  IERC20(_token).safeTransfer(_to, _amount) */\n      jump\t// in\n        /* \"@openzeppelin/contracts-upgradeable/utils/ReentrancyGuardUpgradeable.sol\":3860:4143  function _nonReentrantAfter() private {... */\n    tag_218:\n        /* \"@openzeppelin/contracts-upgradeable/utils/ReentrancyGuardUpgradeable.sol\":1949:1950  1 */\n      0x01\n        /* \"@openzeppelin/contracts-upgradeable/utils/ReentrancyGuardUpgradeable.sol\":2532:2562  ReentrancyGuardStorageLocation */\n      0x9b779b17422d0df92223018b32b4d1fa46e071723d6817e2486d003becc55f00\n        /* \"@openzeppelin/contracts-upgradeable/utils/ReentrancyGuardUpgradeable.sol\":4113:4136  $._status = NOT_ENTERED */\n      sstore\n        /* \"@openzeppelin/contracts-upgradeable/utils/ReentrancyGuardUpgradeable.sol\":3860:4143  function _nonReentrantAfter() private {... */\n      jump\t// out\n        /* \"@openzeppelin/contracts-upgradeable/access/OwnableUpgradeable.sol\":1847:1974  function __Ownable_init(address initialOwner) internal onlyInitializing {... */\n    tag_233:\n        /* \"@openzeppelin/contracts-upgradeable/proxy/utils/Initializable.sol\":6931:6951  _checkInitializing() */\n      tag_353\n        /* \"@openzeppelin/contracts-upgradeable/proxy/utils/Initializable.sol\":6931:6949  _checkInitializing */\n      tag_354\n        /* \"@openzeppelin/contracts-upgradeable/proxy/utils/Initializable.sol\":6931:6951  _checkInitializing() */\n      jump\t// in\n    tag_353:\n        /* \"@openzeppelin/contracts-upgradeable/access/OwnableUpgradeable.sol\":1929:1967  __Ownable_init_unchained(initialOwner) */\n      tag_248\n        /* \"@openzeppelin/contracts-upgradeable/access/OwnableUpgradeable.sol\":1954:1966  initialOwner */\n      dup2\n        /* \"@openzeppelin/contracts-upgradeable/access/OwnableUpgradeable.sol\":1929:1953  __Ownable_init_unchained */\n      tag_357\n        /* \"@openzeppelin/contracts-upgradeable/access/OwnableUpgradeable.sol\":1929:1967  __Ownable_init_unchained(initialOwner) */\n      jump\t// in\n        /* \"@openzeppelin/contracts-upgradeable/utils/PausableUpgradeable.sol\":1836:1933  function __Pausable_init() internal onlyInitializing {... */\n    tag_235:\n        /* \"@openzeppelin/contracts-upgradeable/proxy/utils/Initializable.sol\":6931:6951  _checkInitializing() */\n      tag_359\n        /* \"@openzeppelin/contracts-upgradeable/proxy/utils/Initializable.sol\":6931:6949  _checkInitializing */\n      tag_354\n        /* \"@openzeppelin/contracts-upgradeable/proxy/utils/Initializable.sol\":6931:6951  _checkInitializing() */\n      jump\t// in\n    tag_359:\n        /* \"@openzeppelin/contracts-upgradeable/utils/PausableUpgradeable.sol\":1899:1926  __Pausable_init_unchained() */\n      tag_112\n        /* \"@openzeppelin/contracts-upgradeable/utils/PausableUpgradeable.sol\":1899:1924  __Pausable_init_unchained */\n      tag_362\n        /* \"@openzeppelin/contracts-upgradeable/utils/PausableUpgradeable.sol\":1899:1926  __Pausable_init_unchained() */\n      jump\t// in\n        /* \"@openzeppelin/contracts-upgradeable/utils/ReentrancyGuardUpgradeable.sol\":2684:2795  function __ReentrancyGuard_init() internal onlyInitializing {... */\n    tag_237:\n        /* \"@openzeppelin/contracts-upgradeable/proxy/utils/Initializable.sol\":6931:6951  _checkInitializing() */\n      tag_364\n        /* \"@openzeppelin/contracts-upgradeable/proxy/utils/Initializable.sol\":6931:6949  _checkInitializing */\n      tag_354\n        /* \"@openzeppelin/contracts-upgradeable/proxy/utils/Initializable.sol\":6931:6951  _checkInitializing() */\n      jump\t// in\n    tag_364:\n        /* \"@openzeppelin/contracts-upgradeable/utils/ReentrancyGuardUpgradeable.sol\":2754:2788  __ReentrancyGuard_init_unchained() */\n      tag_112\n        /* \"@openzeppelin/contracts-upgradeable/utils/ReentrancyGuardUpgradeable.sol\":2754:2786  __ReentrancyGuard_init_unchained */\n      tag_367\n        /* \"@openzeppelin/contracts-upgradeable/utils/ReentrancyGuardUpgradeable.sol\":2754:2788  __ReentrancyGuard_init_unchained() */\n      jump\t// in\n        /* \"@openzeppelin/contracts-upgradeable/proxy/utils/UUPSUpgradeable.sol\":2970:3037  function __UUPSUpgradeable_init() internal onlyInitializing {... */\n    tag_239:\n        /* \"@openzeppelin/contracts-upgradeable/proxy/utils/Initializable.sol\":6931:6951  _checkInitializing() */\n      tag_112\n        /* \"@openzeppelin/contracts-upgradeable/proxy/utils/Initializable.sol\":6931:6949  _checkInitializing */\n      tag_354\n        /* \"@openzeppelin/contracts-upgradeable/proxy/utils/Initializable.sol\":6931:6951  _checkInitializing() */\n      jump\t// in\n        /* \"@openzeppelin/contracts-upgradeable/utils/PausableUpgradeable.sol\":3105:3231  function _requirePaused() internal view virtual {... */\n    tag_264:\n      0x00\n      dup1\n      mload\n      0x20\n      data_c0c65a3718f3702d917c44106b91645b509d2e2d0979b70495c3babce192339f\n      dup4\n      codecopy\n      dup2\n      mload\n      swap2\n      mstore\n        /* \"@openzeppelin/contracts-upgradeable/utils/PausableUpgradeable.sol\":2821:2830  $._paused */\n      sload\n      0xff\n      and\n        /* \"@openzeppelin/contracts-upgradeable/utils/PausableUpgradeable.sol\":3163:3225  if (!paused()) {... */\n      tag_112\n      jumpi\n        /* \"@openzeppelin/contracts-upgradeable/utils/PausableUpgradeable.sol\":3199:3214  ExpectedPause() */\n      mload(0x40)\n      shl(0xe0, 0x8dfc202b)\n      dup2\n      mstore\n      0x04\n      add\n      mload(0x40)\n      dup1\n      swap2\n      sub\n      swap1\n      revert\n        /* \"@openzeppelin/contracts/proxy/ERC1967/ERC1967Utils.sol\":2264:2608  function upgradeToAndCall(address newImplementation, bytes memory data) internal {... */\n    tag_290:\n        /* \"@openzeppelin/contracts/proxy/ERC1967/ERC1967Utils.sol\":2355:2392  _setImplementation(newImplementation) */\n      tag_379\n        /* \"@openzeppelin/contracts/proxy/ERC1967/ERC1967Utils.sol\":2374:2391  newImplementation */\n      dup3\n        /* \"@openzeppelin/contracts/proxy/ERC1967/ERC1967Utils.sol\":2355:2373  _setImplementation */\n      tag_380\n        /* \"@openzeppelin/contracts/proxy/ERC1967/ERC1967Utils.sol\":2355:2392  _setImplementation(newImplementation) */\n      jump\t// in\n    tag_379:\n        /* \"@openzeppelin/contracts/proxy/ERC1967/ERC1967Utils.sol\":2407:2443  IERC1967.Upgraded(newImplementation) */\n      mload(0x40)\n      sub(shl(0xa0, 0x01), 0x01)\n      dup4\n      and\n      swap1\n      0xbc7cd75a20ee27fd9adebab32041f755214dbc6bffa90cc0225b39da2e5c2d3b\n      swap1\n      0x00\n      swap1\n      log2\n        /* \"@openzeppelin/contracts/proxy/ERC1967/ERC1967Utils.sol\":2458:2469  data.length */\n      dup1\n      mload\n        /* \"@openzeppelin/contracts/proxy/ERC1967/ERC1967Utils.sol\":2458:2473  data.length > 0 */\n      iszero\n        /* \"@openzeppelin/contracts/proxy/ERC1967/ERC1967Utils.sol\":2454:2602  if (data.length > 0) {... */\n      tag_381\n      jumpi\n        /* \"@openzeppelin/contracts/proxy/ERC1967/ERC1967Utils.sol\":2489:2542  Address.functionDelegateCall(newImplementation, data) */\n      tag_217\n        /* \"@openzeppelin/contracts/proxy/ERC1967/ERC1967Utils.sol\":2518:2535  newImplementation */\n      dup3\n        /* \"@openzeppelin/contracts/proxy/ERC1967/ERC1967Utils.sol\":2537:2541  data */\n      dup3\n        /* \"@openzeppelin/contracts/proxy/ERC1967/ERC1967Utils.sol\":2489:2517  Address.functionDelegateCall */\n      tag_383\n        /* \"@openzeppelin/contracts/proxy/ERC1967/ERC1967Utils.sol\":2489:2542  Address.functionDelegateCall(newImplementation, data) */\n      jump\t// in\n        /* \"@openzeppelin/contracts/proxy/ERC1967/ERC1967Utils.sol\":2454:2602  if (data.length > 0) {... */\n    tag_381:\n        /* \"@openzeppelin/contracts/proxy/ERC1967/ERC1967Utils.sol\":2573:2591  _checkNonPayable() */\n      tag_120\n        /* \"@openzeppelin/contracts/proxy/ERC1967/ERC1967Utils.sol\":2573:2589  _checkNonPayable */\n      tag_386\n        /* \"@openzeppelin/contracts/proxy/ERC1967/ERC1967Utils.sol\":2573:2591  _checkNonPayable() */\n      jump\t// in\n        /* \"@openzeppelin/contracts/token/ERC20/utils/SafeERC20.sol\":1670:1858  function safeTransferFrom(IERC20 token, address from, address to, uint256 value) internal {... */\n    tag_317:\n        /* \"@openzeppelin/contracts/token/ERC20/utils/SafeERC20.sol\":1797:1850  abi.encodeCall(token.transferFrom, (from, to, value)) */\n      mload(0x40)\n      sub(shl(0xa0, 0x01), 0x01)\n        /* \"#utility.yul\":11389:11421   */\n      dup5\n      dup2\n      and\n        /* \"@openzeppelin/contracts/token/ERC20/utils/SafeERC20.sol\":1797:1850  abi.encodeCall(token.transferFrom, (from, to, value)) */\n      0x24\n      dup4\n      add\n        /* \"#utility.yul\":11371:11422   */\n      mstore\n        /* \"#utility.yul\":11458:11490   */\n      dup4\n      dup2\n      and\n        /* \"#utility.yul\":11438:11456   */\n      0x44\n      dup4\n      add\n        /* \"#utility.yul\":11431:11491   */\n      mstore\n        /* \"#utility.yul\":11507:11525   */\n      0x64\n      dup3\n      add\n        /* \"#utility.yul\":11500:11534   */\n      dup4\n      swap1\n      mstore\n        /* \"@openzeppelin/contracts/token/ERC20/utils/SafeERC20.sol\":1770:1851  _callOptionalReturn(token, abi.encodeCall(token.transferFrom, (from, to, value))) */\n      tag_324\n      swap2\n        /* \"@openzeppelin/contracts/token/ERC20/utils/SafeERC20.sol\":1790:1795  token */\n      dup7\n      swap2\n        /* \"@openzeppelin/contracts/token/ERC20/utils/SafeERC20.sol\":1812:1830  token.transferFrom */\n      dup3\n      and\n      swap1\n      0x23b872dd\n      swap1\n        /* \"#utility.yul\":11344:11362   */\n      0x84\n      add\n        /* \"@openzeppelin/contracts/token/ERC20/utils/SafeERC20.sol\":1797:1850  abi.encodeCall(token.transferFrom, (from, to, value)) */\n    tag_390:\n      mload(0x40)\n      0x20\n      dup2\n      dup4\n      sub\n      sub\n      dup2\n      mstore\n      swap1\n      0x40\n      mstore\n      swap2\n      pop\n      0xe0\n      shl\n      0x20\n      dup3\n      add\n      dup1\n      mload\n      sub(shl(0xe0, 0x01), 0x01)\n      dup4\n      dup2\n      dup4\n      and\n      or\n      dup4\n      mstore\n      pop\n      pop\n      pop\n      pop\n        /* \"@openzeppelin/contracts/token/ERC20/utils/SafeERC20.sol\":1770:1789  _callOptionalReturn */\n      tag_392\n        /* \"@openzeppelin/contracts/token/ERC20/utils/SafeERC20.sol\":1770:1851  _callOptionalReturn(token, abi.encodeCall(token.transferFrom, (from, to, value))) */\n      jump\t// in\n        /* \"@openzeppelin/contracts/token/ERC20/utils/SafeERC20.sol\":1271:1431  function safeTransfer(IERC20 token, address to, uint256 value) internal {... */\n    tag_348:\n        /* \"@openzeppelin/contracts/token/ERC20/utils/SafeERC20.sol\":1380:1423  abi.encodeCall(token.transfer, (to, value)) */\n      mload(0x40)\n      sub(shl(0xa0, 0x01), 0x01)\n        /* \"#utility.yul\":10036:10068   */\n      dup4\n      dup2\n      and\n        /* \"@openzeppelin/contracts/token/ERC20/utils/SafeERC20.sol\":1380:1423  abi.encodeCall(token.transfer, (to, value)) */\n      0x24\n      dup4\n      add\n        /* \"#utility.yul\":10018:10069   */\n      mstore\n        /* \"#utility.yul\":10085:10103   */\n      0x44\n      dup3\n      add\n        /* \"#utility.yul\":10078:10112   */\n      dup4\n      swap1\n      mstore\n        /* \"@openzeppelin/contracts/token/ERC20/utils/SafeERC20.sol\":1353:1424  _callOptionalReturn(token, abi.encodeCall(token.transfer, (to, value))) */\n      tag_217\n      swap2\n        /* \"@openzeppelin/contracts/token/ERC20/utils/SafeERC20.sol\":1373:1378  token */\n      dup6\n      swap2\n        /* \"@openzeppelin/contracts/token/ERC20/utils/SafeERC20.sol\":1395:1409  token.transfer */\n      dup3\n      and\n      swap1\n      0xa9059cbb\n      swap1\n        /* \"#utility.yul\":9991:10009   */\n      0x64\n      add\n        /* \"@openzeppelin/contracts/token/ERC20/utils/SafeERC20.sol\":1380:1423  abi.encodeCall(token.transfer, (to, value)) */\n      tag_390\n        /* \"#utility.yul\":9844:10118   */\n      jump\n        /* \"@openzeppelin/contracts-upgradeable/proxy/utils/Initializable.sol\":7084:7225  function _checkInitializing() internal view virtual {... */\n    tag_354:\n        /* \"@openzeppelin/contracts-upgradeable/proxy/utils/Initializable.sol\":8870:8891  INITIALIZABLE_STORAGE */\n      0xf0c57e16840df040f15088dc2f81fe391c3923bec73e23a9662efc9c229c6a00\n        /* \"@openzeppelin/contracts-upgradeable/proxy/utils/Initializable.sol\":8560:8600  _getInitializableStorage()._initializing */\n      sload\n      shl(0x40, 0x01)\n      swap1\n      div\n      0xff\n      and\n        /* \"@openzeppelin/contracts-upgradeable/proxy/utils/Initializable.sol\":7146:7219  if (!_isInitializing()) {... */\n      tag_112\n      jumpi\n        /* \"@openzeppelin/contracts-upgradeable/proxy/utils/Initializable.sol\":7191:7208  NotInitializing() */\n      mload(0x40)\n      shl(0xe3, 0x1afcd79f)\n      dup2\n      mstore\n      0x04\n      add\n      mload(0x40)\n      dup1\n      swap2\n      sub\n      swap1\n      revert\n        /* \"@openzeppelin/contracts-upgradeable/access/OwnableUpgradeable.sol\":1980:2215  function __Ownable_init_unchained(address initialOwner) internal onlyInitializing {... */\n    tag_357:\n        /* \"@openzeppelin/contracts-upgradeable/proxy/utils/Initializable.sol\":6931:6951  _checkInitializing() */\n      tag_244\n        /* \"@openzeppelin/contracts-upgradeable/proxy/utils/Initializable.sol\":6931:6949  _checkInitializing */\n      tag_354\n        /* \"@openzeppelin/contracts-upgradeable/proxy/utils/Initializable.sol\":6931:6951  _checkInitializing() */\n      jump\t// in\n        /* \"@openzeppelin/contracts-upgradeable/utils/PausableUpgradeable.sol\":1939:2095  function __Pausable_init_unchained() internal onlyInitializing {... */\n    tag_362:\n        /* \"@openzeppelin/contracts-upgradeable/proxy/utils/Initializable.sol\":6931:6951  _checkInitializing() */\n      tag_407\n        /* \"@openzeppelin/contracts-upgradeable/proxy/utils/Initializable.sol\":6931:6949  _checkInitializing */\n      tag_354\n        /* \"@openzeppelin/contracts-upgradeable/proxy/utils/Initializable.sol\":6931:6951  _checkInitializing() */\n      jump\t// in\n    tag_407:\n      0x00\n      dup1\n      mload\n      0x20\n      data_c0c65a3718f3702d917c44106b91645b509d2e2d0979b70495c3babce192339f\n      dup4\n      codecopy\n      dup2\n      mload\n      swap2\n      mstore\n        /* \"@openzeppelin/contracts-upgradeable/utils/PausableUpgradeable.sol\":2071:2088  $._paused = false */\n      dup1\n      sload\n      not(0xff)\n      and\n      swap1\n      sstore\n        /* \"@openzeppelin/contracts-upgradeable/utils/PausableUpgradeable.sol\":1939:2095  function __Pausable_init_unchained() internal onlyInitializing {... */\n      jump\t// out\n        /* \"@openzeppelin/contracts-upgradeable/utils/ReentrancyGuardUpgradeable.sol\":2801:2984  function __ReentrancyGuard_init_unchained() internal onlyInitializing {... */\n    tag_367:\n        /* \"@openzeppelin/contracts-upgradeable/proxy/utils/Initializable.sol\":6931:6951  _checkInitializing() */\n      tag_218\n        /* \"@openzeppelin/contracts-upgradeable/proxy/utils/Initializable.sol\":6931:6949  _checkInitializing */\n      tag_354\n        /* \"@openzeppelin/contracts-upgradeable/proxy/utils/Initializable.sol\":6931:6951  _checkInitializing() */\n      jump\t// in\n        /* \"@openzeppelin/contracts/proxy/ERC1967/ERC1967Utils.sol\":1671:1952  function _setImplementation(address newImplementation) private {... */\n    tag_380:\n        /* \"@openzeppelin/contracts/proxy/ERC1967/ERC1967Utils.sol\":1748:1765  newImplementation */\n      dup1\n      sub(shl(0xa0, 0x01), 0x01)\n        /* \"@openzeppelin/contracts/proxy/ERC1967/ERC1967Utils.sol\":1748:1777  newImplementation.code.length */\n      and\n      extcodesize\n        /* \"@openzeppelin/contracts/proxy/ERC1967/ERC1967Utils.sol\":1781:1782  0 */\n      0x00\n        /* \"@openzeppelin/contracts/proxy/ERC1967/ERC1967Utils.sol\":1748:1782  newImplementation.code.length == 0 */\n      sub\n        /* \"@openzeppelin/contracts/proxy/ERC1967/ERC1967Utils.sol\":1744:1863  if (newImplementation.code.length == 0) {... */\n      tag_416\n      jumpi\n        /* \"@openzeppelin/contracts/proxy/ERC1967/ERC1967Utils.sol\":1805:1852  ERC1967InvalidImplementation(newImplementation) */\n      mload(0x40)\n      shl(0xe0, 0x4c9c8ce3)\n      dup2\n      mstore\n      sub(shl(0xa0, 0x01), 0x01)\n        /* \"#utility.yul\":178:210   */\n      dup3\n      and\n        /* \"@openzeppelin/contracts/proxy/ERC1967/ERC1967Utils.sol\":1805:1852  ERC1967InvalidImplementation(newImplementation) */\n      0x04\n      dup3\n      add\n        /* \"#utility.yul\":160:211   */\n      mstore\n        /* \"#utility.yul\":133:151   */\n      0x24\n      add\n        /* \"@openzeppelin/contracts/proxy/ERC1967/ERC1967Utils.sol\":1805:1852  ERC1967InvalidImplementation(newImplementation) */\n      tag_130\n        /* \"#utility.yul\":14:217   */\n      jump\n        /* \"@openzeppelin/contracts/proxy/ERC1967/ERC1967Utils.sol\":1744:1863  if (newImplementation.code.length == 0) {... */\n    tag_416:\n      0x00\n      dup1\n      mload\n      0x20\n      data_75b20eef8615de99c108b05f0dbda081c91897128caa336d75dffb97c4132b4d\n      dup4\n      codecopy\n      dup2\n      mload\n      swap2\n      mstore\n        /* \"@openzeppelin/contracts/proxy/ERC1967/ERC1967Utils.sol\":1872:1945  StorageSlot.getAddressSlot(IMPLEMENTATION_SLOT).value = newImplementation */\n      dup1\n      sload\n      not(sub(shl(0xa0, 0x01), 0x01))\n      and\n      sub(shl(0xa0, 0x01), 0x01)\n      swap3\n      swap1\n      swap3\n      and\n      swap2\n      swap1\n      swap2\n      or\n      swap1\n      sstore\n        /* \"@openzeppelin/contracts/proxy/ERC1967/ERC1967Utils.sol\":1671:1952  function _setImplementation(address newImplementation) private {... */\n      jump\t// out\n        /* \"@openzeppelin/contracts/utils/Address.sol\":3900:4153  function functionDelegateCall(address target, bytes memory data) internal returns (bytes memory) {... */\n    tag_383:\n        /* \"@openzeppelin/contracts/utils/Address.sol\":3983:3995  bytes memory */\n      0x60\n        /* \"@openzeppelin/contracts/utils/Address.sol\":4008:4020  bool success */\n      0x00\n        /* \"@openzeppelin/contracts/utils/Address.sol\":4022:4045  bytes memory returndata */\n      dup1\n        /* \"@openzeppelin/contracts/utils/Address.sol\":4049:4055  target */\n      dup5\n      sub(shl(0xa0, 0x01), 0x01)\n        /* \"@openzeppelin/contracts/utils/Address.sol\":4049:4068  target.delegatecall */\n      and\n        /* \"@openzeppelin/contracts/utils/Address.sol\":4069:4073  data */\n      dup5\n        /* \"@openzeppelin/contracts/utils/Address.sol\":4049:4074  target.delegatecall(data) */\n      mload(0x40)\n      tag_420\n      swap2\n      swap1\n      tag_334\n      jump\t// in\n    tag_420:\n      0x00\n      mload(0x40)\n      dup1\n      dup4\n      sub\n      dup2\n      dup6\n      gas\n      delegatecall\n      swap2\n      pop\n      pop\n      returndatasize\n      dup1\n      0x00\n      dup2\n      eq\n      tag_423\n      jumpi\n      mload(0x40)\n      swap2\n      pop\n      and(add(returndatasize, 0x3f), not(0x1f))\n      dup3\n      add\n      0x40\n      mstore\n      returndatasize\n      dup3\n      mstore\n      returndatasize\n      0x00\n      0x20\n      dup5\n      add\n      returndatacopy\n      jump(tag_422)\n    tag_423:\n      0x60\n      swap2\n      pop\n    tag_422:\n      pop\n        /* \"@openzeppelin/contracts/utils/Address.sol\":4007:4074  (bool success, bytes memory returndata) = target.delegatecall(data) */\n      swap2\n      pop\n      swap2\n      pop\n        /* \"@openzeppelin/contracts/utils/Address.sol\":4091:4146  verifyCallResultFromTarget(target, success, returndata) */\n      tag_344\n        /* \"@openzeppelin/contracts/utils/Address.sol\":4118:4124  target */\n      dup6\n        /* \"@openzeppelin/contracts/utils/Address.sol\":4126:4133  success */\n      dup4\n        /* \"@openzeppelin/contracts/utils/Address.sol\":4135:4145  returndata */\n      dup4\n        /* \"@openzeppelin/contracts/utils/Address.sol\":4091:4117  verifyCallResultFromTarget */\n      tag_425\n        /* \"@openzeppelin/contracts/utils/Address.sol\":4091:4146  verifyCallResultFromTarget(target, success, returndata) */\n      jump\t// in\n        /* \"@openzeppelin/contracts/proxy/ERC1967/ERC1967Utils.sol\":6113:6235  function _checkNonPayable() private {... */\n    tag_386:\n        /* \"@openzeppelin/contracts/proxy/ERC1967/ERC1967Utils.sol\":6163:6172  msg.value */\n      callvalue\n        /* \"@openzeppelin/contracts/proxy/ERC1967/ERC1967Utils.sol\":6163:6176  msg.value > 0 */\n      iszero\n        /* \"@openzeppelin/contracts/proxy/ERC1967/ERC1967Utils.sol\":6159:6229  if (msg.value > 0) {... */\n      tag_112\n      jumpi\n        /* \"@openzeppelin/contracts/proxy/ERC1967/ERC1967Utils.sol\":6199:6218  ERC1967NonPayable() */\n      mload(0x40)\n      shl(0xe0, 0xb398979f)\n      dup2\n      mstore\n      0x04\n      add\n      mload(0x40)\n      dup1\n      swap2\n      sub\n      swap1\n      revert\n        /* \"@openzeppelin/contracts/token/ERC20/utils/SafeERC20.sol\":7738:8458  function _callOptionalReturn(IERC20 token, bytes memory data) private {... */\n    tag_392:\n        /* \"@openzeppelin/contracts/token/ERC20/utils/SafeERC20.sol\":7818:7836  uint256 returnSize */\n      0x00\n        /* \"@openzeppelin/contracts/token/ERC20/utils/SafeERC20.sol\":7846:7865  uint256 returnValue */\n      dup1\n        /* \"@openzeppelin/contracts/token/ERC20/utils/SafeERC20.sol\":7984:7988  0x20 */\n      0x20\n        /* \"@openzeppelin/contracts/token/ERC20/utils/SafeERC20.sol\":7981:7982  0 */\n      0x00\n        /* \"@openzeppelin/contracts/token/ERC20/utils/SafeERC20.sol\":7974:7978  data */\n      dup5\n        /* \"@openzeppelin/contracts/token/ERC20/utils/SafeERC20.sol\":7968:7979  mload(data) */\n      mload\n        /* \"@openzeppelin/contracts/token/ERC20/utils/SafeERC20.sol\":7961:7965  0x20 */\n      0x20\n        /* \"@openzeppelin/contracts/token/ERC20/utils/SafeERC20.sol\":7955:7959  data */\n      dup7\n        /* \"@openzeppelin/contracts/token/ERC20/utils/SafeERC20.sol\":7951:7966  add(data, 0x20) */\n      add\n        /* \"@openzeppelin/contracts/token/ERC20/utils/SafeERC20.sol\":7948:7949  0 */\n      0x00\n        /* \"@openzeppelin/contracts/token/ERC20/utils/SafeERC20.sol\":7941:7946  token */\n      dup9\n        /* \"@openzeppelin/contracts/token/ERC20/utils/SafeERC20.sol\":7934:7939  gas() */\n      gas\n        /* \"@openzeppelin/contracts/token/ERC20/utils/SafeERC20.sol\":7929:7989  call(gas(), token, 0, add(data, 0x20), mload(data), 0, 0x20) */\n      call\n        /* \"@openzeppelin/contracts/token/ERC20/utils/SafeERC20.sol\":8041:8048  success */\n      dup1\n        /* \"@openzeppelin/contracts/token/ERC20/utils/SafeERC20.sol\":8031:8207  if iszero(success) {... */\n      tag_429\n      jumpi\n        /* \"@openzeppelin/contracts/token/ERC20/utils/SafeERC20.sol\":8085:8089  0x40 */\n      0x40\n        /* \"@openzeppelin/contracts/token/ERC20/utils/SafeERC20.sol\":8079:8090  mload(0x40) */\n      mload\n        /* \"@openzeppelin/contracts/token/ERC20/utils/SafeERC20.sol\":8130:8146  returndatasize() */\n      returndatasize\n        /* \"@openzeppelin/contracts/token/ERC20/utils/SafeERC20.sol\":8127:8128  0 */\n      0x00\n        /* \"@openzeppelin/contracts/token/ERC20/utils/SafeERC20.sol\":8122:8125  ptr */\n      dup3\n        /* \"@openzeppelin/contracts/token/ERC20/utils/SafeERC20.sol\":8107:8147  returndatacopy(ptr, 0, returndatasize()) */\n      returndatacopy\n        /* \"@openzeppelin/contracts/token/ERC20/utils/SafeERC20.sol\":8176:8192  returndatasize() */\n      returndatasize\n        /* \"@openzeppelin/contracts/token/ERC20/utils/SafeERC20.sol\":8171:8174  ptr */\n      dup2\n        /* \"@openzeppelin/contracts/token/ERC20/utils/SafeERC20.sol\":8164:8193  revert(ptr, returndatasize()) */\n      revert\n        /* \"@openzeppelin/contracts/token/ERC20/utils/SafeERC20.sol\":8031:8207  if iszero(success) {... */\n    tag_429:\n      pop\n      pop\n        /* \"@openzeppelin/contracts/token/ERC20/utils/SafeERC20.sol\":8284:8285  0 */\n      0x00\n        /* \"@openzeppelin/contracts/token/ERC20/utils/SafeERC20.sol\":8278:8286  mload(0) */\n      mload\n        /* \"@openzeppelin/contracts/token/ERC20/utils/SafeERC20.sol\":8234:8250  returndatasize() */\n      returndatasize\n      swap2\n      pop\n        /* \"@openzeppelin/contracts/token/ERC20/utils/SafeERC20.sol\":8310:8325  returnSize == 0 */\n      dup2\n      iszero\n        /* \"@openzeppelin/contracts/token/ERC20/utils/SafeERC20.sol\":8310:8378  returnSize == 0 ? address(token).code.length == 0 : returnValue != 1 */\n      tag_430\n      jumpi\n        /* \"@openzeppelin/contracts/token/ERC20/utils/SafeERC20.sol\":8362:8373  returnValue */\n      dup1\n        /* \"@openzeppelin/contracts/token/ERC20/utils/SafeERC20.sol\":8377:8378  1 */\n      0x01\n        /* \"@openzeppelin/contracts/token/ERC20/utils/SafeERC20.sol\":8362:8378  returnValue != 1 */\n      eq\n      iszero\n        /* \"@openzeppelin/contracts/token/ERC20/utils/SafeERC20.sol\":8310:8378  returnSize == 0 ? address(token).code.length == 0 : returnValue != 1 */\n      jump(tag_431)\n    tag_430:\n      sub(shl(0xa0, 0x01), 0x01)\n        /* \"@openzeppelin/contracts/token/ERC20/utils/SafeERC20.sol\":8328:8354  address(token).code.length */\n      dup5\n      and\n      extcodesize\n        /* \"@openzeppelin/contracts/token/ERC20/utils/SafeERC20.sol\":8328:8359  address(token).code.length == 0 */\n      iszero\n        /* \"@openzeppelin/contracts/token/ERC20/utils/SafeERC20.sol\":8310:8378  returnSize == 0 ? address(token).code.length == 0 : returnValue != 1 */\n    tag_431:\n        /* \"@openzeppelin/contracts/token/ERC20/utils/SafeERC20.sol\":8306:8452  if (returnSize == 0 ? address(token).code.length == 0 : returnValue != 1) {... */\n      iszero\n      tag_324\n      jumpi\n        /* \"@openzeppelin/contracts/token/ERC20/utils/SafeERC20.sol\":8401:8441  SafeERC20FailedOperation(address(token)) */\n      mload(0x40)\n      shl(0xe0, 0x5274afe7)\n      dup2\n      mstore\n      sub(shl(0xa0, 0x01), 0x01)\n        /* \"#utility.yul\":178:210   */\n      dup6\n      and\n        /* \"@openzeppelin/contracts/token/ERC20/utils/SafeERC20.sol\":8401:8441  SafeERC20FailedOperation(address(token)) */\n      0x04\n      dup3\n      add\n        /* \"#utility.yul\":160:211   */\n      mstore\n        /* \"#utility.yul\":133:151   */\n      0x24\n      add\n        /* \"@openzeppelin/contracts/token/ERC20/utils/SafeERC20.sol\":8401:8441  SafeERC20FailedOperation(address(token)) */\n      tag_130\n        /* \"#utility.yul\":14:217   */\n      jump\n        /* \"@openzeppelin/contracts/utils/Address.sol\":4421:5003  function verifyCallResultFromTarget(... */\n    tag_425:\n        /* \"@openzeppelin/contracts/utils/Address.sol\":4565:4577  bytes memory */\n      0x60\n        /* \"@openzeppelin/contracts/utils/Address.sol\":4594:4601  success */\n      dup3\n        /* \"@openzeppelin/contracts/utils/Address.sol\":4589:4997  if (!success) {... */\n      tag_437\n      jumpi\n        /* \"@openzeppelin/contracts/utils/Address.sol\":4617:4636  _revert(returndata) */\n      tag_438\n        /* \"@openzeppelin/contracts/utils/Address.sol\":4625:4635  returndata */\n      dup3\n        /* \"@openzeppelin/contracts/utils/Address.sol\":4617:4624  _revert */\n      tag_439\n        /* \"@openzeppelin/contracts/utils/Address.sol\":4617:4636  _revert(returndata) */\n      jump\t// in\n    tag_438:\n        /* \"@openzeppelin/contracts/utils/Address.sol\":4589:4997  if (!success) {... */\n      jump(tag_440)\n    tag_437:\n        /* \"@openzeppelin/contracts/utils/Address.sol\":4841:4858  returndata.length */\n      dup2\n      mload\n        /* \"@openzeppelin/contracts/utils/Address.sol\":4841:4863  returndata.length == 0 */\n      iszero\n        /* \"@openzeppelin/contracts/utils/Address.sol\":4841:4890  returndata.length == 0 && target.code.length == 0 */\n      dup1\n      iszero\n      tag_441\n      jumpi\n      pop\n      sub(shl(0xa0, 0x01), 0x01)\n        /* \"@openzeppelin/contracts/utils/Address.sol\":4867:4885  target.code.length */\n      dup5\n      and\n      extcodesize\n        /* \"@openzeppelin/contracts/utils/Address.sol\":4867:4890  target.code.length == 0 */\n      iszero\n        /* \"@openzeppelin/contracts/utils/Address.sol\":4841:4890  returndata.length == 0 && target.code.length == 0 */\n    tag_441:\n        /* \"@openzeppelin/contracts/utils/Address.sol\":4837:4956  if (returndata.length == 0 && target.code.length == 0) {... */\n      iszero\n      tag_442\n      jumpi\n        /* \"@openzeppelin/contracts/utils/Address.sol\":4917:4941  AddressEmptyCode(target) */\n      mload(0x40)\n      shl(0xe0, 0x9996b315)\n      dup2\n      mstore\n      sub(shl(0xa0, 0x01), 0x01)\n        /* \"#utility.yul\":178:210   */\n      dup6\n      and\n        /* \"@openzeppelin/contracts/utils/Address.sol\":4917:4941  AddressEmptyCode(target) */\n      0x04\n      dup3\n      add\n        /* \"#utility.yul\":160:211   */\n      mstore\n        /* \"#utility.yul\":133:151   */\n      0x24\n      add\n        /* \"@openzeppelin/contracts/utils/Address.sol\":4917:4941  AddressEmptyCode(target) */\n      tag_130\n        /* \"#utility.yul\":14:217   */\n      jump\n        /* \"@openzeppelin/contracts/utils/Address.sol\":4837:4956  if (returndata.length == 0 && target.code.length == 0) {... */\n    tag_442:\n      pop\n        /* \"@openzeppelin/contracts/utils/Address.sol\":4976:4986  returndata */\n      dup1\n        /* \"@openzeppelin/contracts/utils/Address.sol\":4589:4997  if (!success) {... */\n    tag_440:\n        /* \"@openzeppelin/contracts/utils/Address.sol\":4421:5003  function verifyCallResultFromTarget(... */\n      swap4\n      swap3\n      pop\n      pop\n      pop\n      jump\t// out\n        /* \"@openzeppelin/contracts/utils/Address.sol\":5543:6030  function _revert(bytes memory returndata) private pure {... */\n    tag_439:\n        /* \"@openzeppelin/contracts/utils/Address.sol\":5674:5691  returndata.length */\n      dup1\n      mload\n        /* \"@openzeppelin/contracts/utils/Address.sol\":5674:5695  returndata.length > 0 */\n      iszero\n        /* \"@openzeppelin/contracts/utils/Address.sol\":5670:6024  if (returndata.length > 0) {... */\n      tag_445\n      jumpi\n        /* \"@openzeppelin/contracts/utils/Address.sol\":5871:5881  returndata */\n      dup1\n        /* \"@openzeppelin/contracts/utils/Address.sol\":5865:5882  mload(returndata) */\n      mload\n        /* \"@openzeppelin/contracts/utils/Address.sol\":5927:5942  returndata_size */\n      dup1\n        /* \"@openzeppelin/contracts/utils/Address.sol\":5914:5924  returndata */\n      dup3\n        /* \"@openzeppelin/contracts/utils/Address.sol\":5910:5912  32 */\n      0x20\n        /* \"@openzeppelin/contracts/utils/Address.sol\":5906:5925  add(32, returndata) */\n      add\n        /* \"@openzeppelin/contracts/utils/Address.sol\":5899:5943  revert(add(32, returndata), returndata_size) */\n      revert\n        /* \"@openzeppelin/contracts/utils/Address.sol\":5670:6024  if (returndata.length > 0) {... */\n    tag_445:\n        /* \"@openzeppelin/contracts/utils/Address.sol\":5994:6013  Errors.FailedCall() */\n      mload(0x40)\n      shl(0xe0, 0xd6bda275)\n      dup2\n      mstore\n      0x04\n      add\n      mload(0x40)\n      dup1\n      swap2\n      sub\n      swap1\n      revert\n        /* \"#utility.yul\":222:353   */\n    tag_447:\n      sub(shl(0xa0, 0x01), 0x01)\n        /* \"#utility.yul\":297:328   */\n      dup2\n      and\n        /* \"#utility.yul\":287:329   */\n      dup2\n      eq\n        /* \"#utility.yul\":277:347   */\n      tag_248\n      jumpi\n        /* \"#utility.yul\":343:344   */\n      0x00\n        /* \"#utility.yul\":340:341   */\n      dup1\n        /* \"#utility.yul\":333:345   */\n      revert\n        /* \"#utility.yul\":358:485   */\n    tag_448:\n        /* \"#utility.yul\":419:429   */\n      0x4e487b71\n        /* \"#utility.yul\":414:417   */\n      0xe0\n        /* \"#utility.yul\":410:430   */\n      shl\n        /* \"#utility.yul\":407:408   */\n      0x00\n        /* \"#utility.yul\":400:431   */\n      mstore\n        /* \"#utility.yul\":450:454   */\n      0x41\n        /* \"#utility.yul\":447:448   */\n      0x04\n        /* \"#utility.yul\":440:455   */\n      mstore\n        /* \"#utility.yul\":474:478   */\n      0x24\n        /* \"#utility.yul\":471:472   */\n      0x00\n        /* \"#utility.yul\":464:479   */\n      revert\n        /* \"#utility.yul\":490:1215   */\n    tag_449:\n        /* \"#utility.yul\":532:537   */\n      0x00\n        /* \"#utility.yul\":585:588   */\n      dup3\n        /* \"#utility.yul\":578:582   */\n      0x1f\n        /* \"#utility.yul\":570:576   */\n      dup4\n        /* \"#utility.yul\":566:583   */\n      add\n        /* \"#utility.yul\":562:589   */\n      slt\n        /* \"#utility.yul\":552:607   */\n      tag_458\n      jumpi\n        /* \"#utility.yul\":603:604   */\n      0x00\n        /* \"#utility.yul\":600:601   */\n      dup1\n        /* \"#utility.yul\":593:605   */\n      revert\n        /* \"#utility.yul\":552:607   */\n    tag_458:\n        /* \"#utility.yul\":643:649   */\n      dup2\n        /* \"#utility.yul\":630:650   */\n      calldataload\n        /* \"#utility.yul\":673:691   */\n      0xffffffffffffffff\n        /* \"#utility.yul\":665:671   */\n      dup2\n        /* \"#utility.yul\":662:692   */\n      gt\n        /* \"#utility.yul\":659:715   */\n      iszero\n      tag_460\n      jumpi\n        /* \"#utility.yul\":695:713   */\n      tag_460\n      tag_448\n      jump\t// in\n    tag_460:\n        /* \"#utility.yul\":744:746   */\n      0x40\n        /* \"#utility.yul\":738:747   */\n      mload\n        /* \"#utility.yul\":836:838   */\n      0x1f\n        /* \"#utility.yul\":798:815   */\n      dup3\n      add\n      not(0x1f)\n        /* \"#utility.yul\":794:825   */\n      swap1\n      dup2\n      and\n        /* \"#utility.yul\":827:829   */\n      0x3f\n        /* \"#utility.yul\":790:830   */\n      add\n        /* \"#utility.yul\":786:840   */\n      and\n        /* \"#utility.yul\":774:841   */\n      dup2\n      add\n        /* \"#utility.yul\":871:889   */\n      0xffffffffffffffff\n        /* \"#utility.yul\":856:890   */\n      dup2\n      gt\n        /* \"#utility.yul\":892:914   */\n      dup3\n      dup3\n      lt\n        /* \"#utility.yul\":853:915   */\n      or\n        /* \"#utility.yul\":850:938   */\n      iszero\n      tag_462\n      jumpi\n        /* \"#utility.yul\":918:936   */\n      tag_462\n      tag_448\n      jump\t// in\n    tag_462:\n        /* \"#utility.yul\":954:956   */\n      0x40\n        /* \"#utility.yul\":947:969   */\n      mstore\n        /* \"#utility.yul\":978:1000   */\n      dup2\n      dup2\n      mstore\n        /* \"#utility.yul\":1019:1038   */\n      dup4\n      dup3\n      add\n        /* \"#utility.yul\":1040:1044   */\n      0x20\n        /* \"#utility.yul\":1015:1045   */\n      add\n        /* \"#utility.yul\":1012:1051   */\n      dup6\n      lt\n        /* \"#utility.yul\":1009:1068   */\n      iszero\n      tag_463\n      jumpi\n        /* \"#utility.yul\":1064:1065   */\n      0x00\n        /* \"#utility.yul\":1061:1062   */\n      dup1\n        /* \"#utility.yul\":1054:1066   */\n      revert\n        /* \"#utility.yul\":1009:1068   */\n    tag_463:\n        /* \"#utility.yul\":1128:1134   */\n      dup2\n        /* \"#utility.yul\":1121:1125   */\n      0x20\n        /* \"#utility.yul\":1113:1119   */\n      dup6\n        /* \"#utility.yul\":1109:1126   */\n      add\n        /* \"#utility.yul\":1102:1106   */\n      0x20\n        /* \"#utility.yul\":1094:1100   */\n      dup4\n        /* \"#utility.yul\":1090:1107   */\n      add\n        /* \"#utility.yul\":1077:1135   */\n      calldatacopy\n        /* \"#utility.yul\":1183:1184   */\n      0x00\n        /* \"#utility.yul\":1155:1174   */\n      swap2\n      dup2\n      add\n        /* \"#utility.yul\":1176:1180   */\n      0x20\n        /* \"#utility.yul\":1151:1181   */\n      add\n        /* \"#utility.yul\":1144:1185   */\n      swap2\n      swap1\n      swap2\n      mstore\n        /* \"#utility.yul\":1159:1165   */\n      swap4\n        /* \"#utility.yul\":490:1215   */\n      swap3\n      pop\n      pop\n      pop\n      jump\t// out\n        /* \"#utility.yul\":1220:1675   */\n    tag_41:\n        /* \"#utility.yul\":1297:1303   */\n      0x00\n        /* \"#utility.yul\":1305:1311   */\n      dup1\n        /* \"#utility.yul\":1358:1360   */\n      0x40\n        /* \"#utility.yul\":1346:1355   */\n      dup4\n        /* \"#utility.yul\":1337:1344   */\n      dup6\n        /* \"#utility.yul\":1333:1356   */\n      sub\n        /* \"#utility.yul\":1329:1361   */\n      slt\n        /* \"#utility.yul\":1326:1378   */\n      iszero\n      tag_465\n      jumpi\n        /* \"#utility.yul\":1374:1375   */\n      0x00\n        /* \"#utility.yul\":1371:1372   */\n      dup1\n        /* \"#utility.yul\":1364:1376   */\n      revert\n        /* \"#utility.yul\":1326:1378   */\n    tag_465:\n        /* \"#utility.yul\":1413:1422   */\n      dup3\n        /* \"#utility.yul\":1400:1423   */\n      calldataload\n        /* \"#utility.yul\":1432:1463   */\n      tag_466\n        /* \"#utility.yul\":1457:1462   */\n      dup2\n        /* \"#utility.yul\":1432:1463   */\n      tag_447\n      jump\t// in\n    tag_466:\n        /* \"#utility.yul\":1482:1487   */\n      swap2\n      pop\n        /* \"#utility.yul\":1538:1540   */\n      0x20\n        /* \"#utility.yul\":1523:1541   */\n      dup4\n      add\n        /* \"#utility.yul\":1510:1542   */\n      calldataload\n        /* \"#utility.yul\":1565:1583   */\n      0xffffffffffffffff\n        /* \"#utility.yul\":1554:1584   */\n      dup2\n      gt\n        /* \"#utility.yul\":1551:1601   */\n      iszero\n      tag_467\n      jumpi\n        /* \"#utility.yul\":1597:1598   */\n      0x00\n        /* \"#utility.yul\":1594:1595   */\n      dup1\n        /* \"#utility.yul\":1587:1599   */\n      revert\n        /* \"#utility.yul\":1551:1601   */\n    tag_467:\n        /* \"#utility.yul\":1620:1669   */\n      tag_468\n        /* \"#utility.yul\":1661:1668   */\n      dup6\n        /* \"#utility.yul\":1652:1658   */\n      dup3\n        /* \"#utility.yul\":1641:1650   */\n      dup7\n        /* \"#utility.yul\":1637:1659   */\n      add\n        /* \"#utility.yul\":1620:1669   */\n      tag_449\n      jump\t// in\n    tag_468:\n        /* \"#utility.yul\":1610:1669   */\n      swap2\n      pop\n      pop\n        /* \"#utility.yul\":1220:1675   */\n      swap3\n      pop\n      swap3\n      swap1\n      pop\n      jump\t// out\n        /* \"#utility.yul\":1862:2109   */\n    tag_51:\n        /* \"#utility.yul\":1921:1927   */\n      0x00\n        /* \"#utility.yul\":1974:1976   */\n      0x20\n        /* \"#utility.yul\":1962:1971   */\n      dup3\n        /* \"#utility.yul\":1953:1960   */\n      dup5\n        /* \"#utility.yul\":1949:1972   */\n      sub\n        /* \"#utility.yul\":1945:1977   */\n      slt\n        /* \"#utility.yul\":1942:1994   */\n      iszero\n      tag_471\n      jumpi\n        /* \"#utility.yul\":1990:1991   */\n      0x00\n        /* \"#utility.yul\":1987:1988   */\n      dup1\n        /* \"#utility.yul\":1980:1992   */\n      revert\n        /* \"#utility.yul\":1942:1994   */\n    tag_471:\n        /* \"#utility.yul\":2029:2038   */\n      dup2\n        /* \"#utility.yul\":2016:2039   */\n      calldataload\n        /* \"#utility.yul\":2048:2079   */\n      tag_440\n        /* \"#utility.yul\":2073:2078   */\n      dup2\n        /* \"#utility.yul\":2048:2079   */\n      tag_447\n      jump\t// in\n        /* \"#utility.yul\":2488:2738   */\n    tag_450:\n        /* \"#utility.yul\":2573:2574   */\n      0x00\n        /* \"#utility.yul\":2583:2696   */\n    tag_476:\n        /* \"#utility.yul\":2597:2603   */\n      dup4\n        /* \"#utility.yul\":2594:2595   */\n      dup2\n        /* \"#utility.yul\":2591:2604   */\n      lt\n        /* \"#utility.yul\":2583:2696   */\n      iszero\n      tag_478\n      jumpi\n        /* \"#utility.yul\":2673:2684   */\n      dup2\n      dup2\n      add\n        /* \"#utility.yul\":2667:2685   */\n      mload\n        /* \"#utility.yul\":2654:2665   */\n      dup4\n      dup3\n      add\n        /* \"#utility.yul\":2647:2686   */\n      mstore\n        /* \"#utility.yul\":2619:2621   */\n      0x20\n        /* \"#utility.yul\":2612:2622   */\n      add\n        /* \"#utility.yul\":2583:2696   */\n      jump(tag_476)\n    tag_478:\n      pop\n      pop\n        /* \"#utility.yul\":2730:2731   */\n      0x00\n        /* \"#utility.yul\":2712:2728   */\n      swap2\n      add\n        /* \"#utility.yul\":2705:2732   */\n      mstore\n        /* \"#utility.yul\":2488:2738   */\n      jump\t// out\n        /* \"#utility.yul\":2743:3139   */\n    tag_85:\n        /* \"#utility.yul\":2892:2894   */\n      0x20\n        /* \"#utility.yul\":2881:2890   */\n      dup2\n        /* \"#utility.yul\":2874:2895   */\n      mstore\n        /* \"#utility.yul\":2855:2859   */\n      0x00\n        /* \"#utility.yul\":2924:2930   */\n      dup3\n        /* \"#utility.yul\":2918:2931   */\n      mload\n        /* \"#utility.yul\":2967:2973   */\n      dup1\n        /* \"#utility.yul\":2962:2964   */\n      0x20\n        /* \"#utility.yul\":2951:2960   */\n      dup5\n        /* \"#utility.yul\":2947:2965   */\n      add\n        /* \"#utility.yul\":2940:2974   */\n      mstore\n        /* \"#utility.yul\":2983:3062   */\n      tag_480\n        /* \"#utility.yul\":3055:3061   */\n      dup2\n        /* \"#utility.yul\":3050:3052   */\n      0x40\n        /* \"#utility.yul\":3039:3048   */\n      dup6\n        /* \"#utility.yul\":3035:3053   */\n      add\n        /* \"#utility.yul\":3030:3032   */\n      0x20\n        /* \"#utility.yul\":3022:3028   */\n      dup8\n        /* \"#utility.yul\":3018:3033   */\n      add\n        /* \"#utility.yul\":2983:3062   */\n      tag_450\n      jump\t// in\n    tag_480:\n        /* \"#utility.yul\":3123:3125   */\n      0x1f\n        /* \"#utility.yul\":3102:3117   */\n      add\n      not(0x1f)\n        /* \"#utility.yul\":3098:3127   */\n      and\n        /* \"#utility.yul\":3083:3128   */\n      swap2\n      swap1\n      swap2\n      add\n        /* \"#utility.yul\":3130:3132   */\n      0x40\n        /* \"#utility.yul\":3079:3133   */\n      add\n      swap3\n        /* \"#utility.yul\":2743:3139   */\n      swap2\n      pop\n      pop\n      jump\t// out\n        /* \"#utility.yul\":3144:3871   */\n    tag_88:\n        /* \"#utility.yul\":3223:3229   */\n      0x00\n        /* \"#utility.yul\":3231:3237   */\n      dup1\n        /* \"#utility.yul\":3239:3245   */\n      0x00\n        /* \"#utility.yul\":3292:3294   */\n      0x40\n        /* \"#utility.yul\":3280:3289   */\n      dup5\n        /* \"#utility.yul\":3271:3278   */\n      dup7\n        /* \"#utility.yul\":3267:3290   */\n      sub\n        /* \"#utility.yul\":3263:3295   */\n      slt\n        /* \"#utility.yul\":3260:3312   */\n      iszero\n      tag_482\n      jumpi\n        /* \"#utility.yul\":3308:3309   */\n      0x00\n        /* \"#utility.yul\":3305:3306   */\n      dup1\n        /* \"#utility.yul\":3298:3310   */\n      revert\n        /* \"#utility.yul\":3260:3312   */\n    tag_482:\n        /* \"#utility.yul\":3348:3357   */\n      dup4\n        /* \"#utility.yul\":3335:3358   */\n      calldataload\n        /* \"#utility.yul\":3381:3399   */\n      0xffffffffffffffff\n        /* \"#utility.yul\":3373:3379   */\n      dup2\n        /* \"#utility.yul\":3370:3400   */\n      gt\n        /* \"#utility.yul\":3367:3417   */\n      iszero\n      tag_483\n      jumpi\n        /* \"#utility.yul\":3413:3414   */\n      0x00\n        /* \"#utility.yul\":3410:3411   */\n      dup1\n        /* \"#utility.yul\":3403:3415   */\n      revert\n        /* \"#utility.yul\":3367:3417   */\n    tag_483:\n        /* \"#utility.yul\":3436:3458   */\n      dup5\n      add\n        /* \"#utility.yul\":3489:3493   */\n      0x1f\n        /* \"#utility.yul\":3481:3494   */\n      dup2\n      add\n        /* \"#utility.yul\":3477:3504   */\n      dup7\n      sgt\n        /* \"#utility.yul\":3467:3522   */\n      tag_484\n      jumpi\n        /* \"#utility.yul\":3518:3519   */\n      0x00\n        /* \"#utility.yul\":3515:3516   */\n      dup1\n        /* \"#utility.yul\":3508:3520   */\n      revert\n        /* \"#utility.yul\":3467:3522   */\n    tag_484:\n        /* \"#utility.yul\":3558:3560   */\n      dup1\n        /* \"#utility.yul\":3545:3561   */\n      calldataload\n        /* \"#utility.yul\":3584:3602   */\n      0xffffffffffffffff\n        /* \"#utility.yul\":3576:3582   */\n      dup2\n        /* \"#utility.yul\":3573:3603   */\n      gt\n        /* \"#utility.yul\":3570:3620   */\n      iszero\n      tag_485\n      jumpi\n        /* \"#utility.yul\":3616:3617   */\n      0x00\n        /* \"#utility.yul\":3613:3614   */\n      dup1\n        /* \"#utility.yul\":3606:3618   */\n      revert\n        /* \"#utility.yul\":3570:3620   */\n    tag_485:\n        /* \"#utility.yul\":3663:3670   */\n      dup7\n        /* \"#utility.yul\":3656:3660   */\n      0x20\n        /* \"#utility.yul\":3647:3653   */\n      dup3\n        /* \"#utility.yul\":3643:3645   */\n      dup5\n        /* \"#utility.yul\":3639:3654   */\n      add\n        /* \"#utility.yul\":3635:3661   */\n      add\n        /* \"#utility.yul\":3632:3671   */\n      gt\n        /* \"#utility.yul\":3629:3688   */\n      iszero\n      tag_486\n      jumpi\n        /* \"#utility.yul\":3684:3685   */\n      0x00\n        /* \"#utility.yul\":3681:3682   */\n      dup1\n        /* \"#utility.yul\":3674:3686   */\n      revert\n        /* \"#utility.yul\":3629:3688   */\n    tag_486:\n        /* \"#utility.yul\":3715:3719   */\n      0x20\n        /* \"#utility.yul\":3707:3720   */\n      swap2\n      dup3\n      add\n      swap5\n      pop\n        /* \"#utility.yul\":3739:3745   */\n      swap3\n      pop\n        /* \"#utility.yul\":3780:3800   */\n      dup5\n      add\n        /* \"#utility.yul\":3767:3801   */\n      calldataload\n        /* \"#utility.yul\":3810:3841   */\n      tag_487\n        /* \"#utility.yul\":3767:3801   */\n      dup2\n        /* \"#utility.yul\":3810:3841   */\n      tag_447\n      jump\t// in\n    tag_487:\n        /* \"#utility.yul\":3860:3865   */\n      dup1\n        /* \"#utility.yul\":3850:3865   */\n      swap2\n      pop\n      pop\n        /* \"#utility.yul\":3144:3871   */\n      swap3\n      pop\n      swap3\n      pop\n      swap3\n      jump\t// out\n        /* \"#utility.yul\":3876:4102   */\n    tag_93:\n        /* \"#utility.yul\":3935:3941   */\n      0x00\n        /* \"#utility.yul\":3988:3990   */\n      0x20\n        /* \"#utility.yul\":3976:3985   */\n      dup3\n        /* \"#utility.yul\":3967:3974   */\n      dup5\n        /* \"#utility.yul\":3963:3986   */\n      sub\n        /* \"#utility.yul\":3959:3991   */\n      slt\n        /* \"#utility.yul\":3956:4008   */\n      iszero\n      tag_489\n      jumpi\n        /* \"#utility.yul\":4004:4005   */\n      0x00\n        /* \"#utility.yul\":4001:4002   */\n      dup1\n        /* \"#utility.yul\":3994:4006   */\n      revert\n        /* \"#utility.yul\":3956:4008   */\n    tag_489:\n      pop\n        /* \"#utility.yul\":4049:4072   */\n      calldataload\n      swap2\n        /* \"#utility.yul\":3876:4102   */\n      swap1\n      pop\n      jump\t// out\n        /* \"#utility.yul\":6876:7060   */\n    tag_189:\n        /* \"#utility.yul\":6946:6952   */\n      0x00\n        /* \"#utility.yul\":6999:7001   */\n      0x20\n        /* \"#utility.yul\":6987:6996   */\n      dup3\n        /* \"#utility.yul\":6978:6985   */\n      dup5\n        /* \"#utility.yul\":6974:6997   */\n      sub\n        /* \"#utility.yul\":6970:7002   */\n      slt\n        /* \"#utility.yul\":6967:7019   */\n      iszero\n      tag_499\n      jumpi\n        /* \"#utility.yul\":7015:7016   */\n      0x00\n        /* \"#utility.yul\":7012:7013   */\n      dup1\n        /* \"#utility.yul\":7005:7017   */\n      revert\n        /* \"#utility.yul\":6967:7019   */\n    tag_499:\n      pop\n        /* \"#utility.yul\":7038:7054   */\n      mload\n      swap2\n        /* \"#utility.yul\":6876:7060   */\n      swap1\n      pop\n      jump\t// out\n        /* \"#utility.yul\":7414:7541   */\n    tag_451:\n        /* \"#utility.yul\":7475:7485   */\n      0x4e487b71\n        /* \"#utility.yul\":7470:7473   */\n      0xe0\n        /* \"#utility.yul\":7466:7486   */\n      shl\n        /* \"#utility.yul\":7463:7464   */\n      0x00\n        /* \"#utility.yul\":7456:7487   */\n      mstore\n        /* \"#utility.yul\":7506:7510   */\n      0x11\n        /* \"#utility.yul\":7503:7504   */\n      0x04\n        /* \"#utility.yul\":7496:7511   */\n      mstore\n        /* \"#utility.yul\":7530:7534   */\n      0x24\n        /* \"#utility.yul\":7527:7528   */\n      0x00\n        /* \"#utility.yul\":7520:7535   */\n      revert\n        /* \"#utility.yul\":7546:7714   */\n    tag_200:\n        /* \"#utility.yul\":7619:7628   */\n      dup1\n      dup3\n      mul\n        /* \"#utility.yul\":7650:7659   */\n      dup2\n      iszero\n        /* \"#utility.yul\":7667:7682   */\n      dup3\n      dup3\n      div\n        /* \"#utility.yul\":7661:7683   */\n      dup5\n      eq\n        /* \"#utility.yul\":7647:7684   */\n      or\n        /* \"#utility.yul\":7637:7708   */\n      tag_254\n      jumpi\n        /* \"#utility.yul\":7688:7706   */\n      tag_254\n      tag_451\n      jump\t// in\n        /* \"#utility.yul\":7719:7936   */\n    tag_202:\n        /* \"#utility.yul\":7759:7760   */\n      0x00\n        /* \"#utility.yul\":7785:7786   */\n      dup3\n        /* \"#utility.yul\":7775:7907   */\n      tag_506\n      jumpi\n        /* \"#utility.yul\":7829:7839   */\n      0x4e487b71\n        /* \"#utility.yul\":7824:7827   */\n      0xe0\n        /* \"#utility.yul\":7820:7840   */\n      shl\n        /* \"#utility.yul\":7817:7818   */\n      0x00\n        /* \"#utility.yul\":7810:7841   */\n      mstore\n        /* \"#utility.yul\":7864:7868   */\n      0x12\n        /* \"#utility.yul\":7861:7862   */\n      0x04\n        /* \"#utility.yul\":7854:7869   */\n      mstore\n        /* \"#utility.yul\":7892:7896   */\n      0x24\n        /* \"#utility.yul\":7889:7890   */\n      0x00\n        /* \"#utility.yul\":7882:7897   */\n      revert\n        /* \"#utility.yul\":7775:7907   */\n    tag_506:\n      pop\n        /* \"#utility.yul\":7921:7930   */\n      div\n      swap1\n        /* \"#utility.yul\":7719:7936   */\n      jump\t// out\n        /* \"#utility.yul\":7941:8069   */\n    tag_207:\n        /* \"#utility.yul\":8008:8017   */\n      dup2\n      dup2\n      sub\n        /* \"#utility.yul\":8029:8040   */\n      dup2\n      dup2\n      gt\n        /* \"#utility.yul\":8026:8063   */\n      iszero\n      tag_254\n      jumpi\n        /* \"#utility.yul\":8043:8061   */\n      tag_254\n      tag_451\n      jump\t// in\n        /* \"#utility.yul\":8801:9534   */\n    tag_314:\n        /* \"#utility.yul\":8912:8918   */\n      0x00\n        /* \"#utility.yul\":8920:8926   */\n      dup1\n        /* \"#utility.yul\":8928:8934   */\n      0x00\n        /* \"#utility.yul\":8936:8942   */\n      dup1\n        /* \"#utility.yul\":8989:8992   */\n      0x80\n        /* \"#utility.yul\":8977:8986   */\n      dup6\n        /* \"#utility.yul\":8968:8975   */\n      dup8\n        /* \"#utility.yul\":8964:8987   */\n      sub\n        /* \"#utility.yul\":8960:8993   */\n      slt\n        /* \"#utility.yul\":8957:9010   */\n      iszero\n      tag_515\n      jumpi\n        /* \"#utility.yul\":9006:9007   */\n      0x00\n        /* \"#utility.yul\":9003:9004   */\n      dup1\n        /* \"#utility.yul\":8996:9008   */\n      revert\n        /* \"#utility.yul\":8957:9010   */\n    tag_515:\n        /* \"#utility.yul\":9045:9054   */\n      dup5\n        /* \"#utility.yul\":9032:9055   */\n      calldataload\n        /* \"#utility.yul\":9064:9095   */\n      tag_516\n        /* \"#utility.yul\":9089:9094   */\n      dup2\n        /* \"#utility.yul\":9064:9095   */\n      tag_447\n      jump\t// in\n    tag_516:\n        /* \"#utility.yul\":9114:9119   */\n      swap4\n      pop\n        /* \"#utility.yul\":9171:9173   */\n      0x20\n        /* \"#utility.yul\":9156:9174   */\n      dup6\n      add\n        /* \"#utility.yul\":9143:9175   */\n      calldataload\n        /* \"#utility.yul\":9184:9217   */\n      tag_517\n        /* \"#utility.yul\":9143:9175   */\n      dup2\n        /* \"#utility.yul\":9184:9217   */\n      tag_447\n      jump\t// in\n    tag_517:\n        /* \"#utility.yul\":9236:9243   */\n      swap3\n      pop\n        /* \"#utility.yul\":9316:9318   */\n      0x40\n        /* \"#utility.yul\":9301:9319   */\n      dup6\n      add\n        /* \"#utility.yul\":9288:9320   */\n      calldataload\n      swap2\n      pop\n        /* \"#utility.yul\":9397:9399   */\n      0x60\n        /* \"#utility.yul\":9382:9400   */\n      dup6\n      add\n        /* \"#utility.yul\":9369:9401   */\n      calldataload\n        /* \"#utility.yul\":9424:9442   */\n      0xffffffffffffffff\n        /* \"#utility.yul\":9413:9443   */\n      dup2\n      gt\n        /* \"#utility.yul\":9410:9460   */\n      iszero\n      tag_518\n      jumpi\n        /* \"#utility.yul\":9456:9457   */\n      0x00\n        /* \"#utility.yul\":9453:9454   */\n      dup1\n        /* \"#utility.yul\":9446:9458   */\n      revert\n        /* \"#utility.yul\":9410:9460   */\n    tag_518:\n        /* \"#utility.yul\":9479:9528   */\n      tag_519\n        /* \"#utility.yul\":9520:9527   */\n      dup8\n        /* \"#utility.yul\":9511:9517   */\n      dup3\n        /* \"#utility.yul\":9500:9509   */\n      dup9\n        /* \"#utility.yul\":9496:9518   */\n      add\n        /* \"#utility.yul\":9479:9528   */\n      tag_449\n      jump\t// in\n    tag_519:\n        /* \"#utility.yul\":9469:9528   */\n      swap2\n      pop\n      pop\n        /* \"#utility.yul\":8801:9534   */\n      swap3\n      swap6\n      swap2\n      swap5\n      pop\n      swap3\n      pop\n      jump\t// out\n        /* \"#utility.yul\":10123:10400   */\n    tag_330:\n        /* \"#utility.yul\":10190:10196   */\n      0x00\n        /* \"#utility.yul\":10243:10245   */\n      0x20\n        /* \"#utility.yul\":10231:10240   */\n      dup3\n        /* \"#utility.yul\":10222:10229   */\n      dup5\n        /* \"#utility.yul\":10218:10241   */\n      sub\n        /* \"#utility.yul\":10214:10246   */\n      slt\n        /* \"#utility.yul\":10211:10263   */\n      iszero\n      tag_523\n      jumpi\n        /* \"#utility.yul\":10259:10260   */\n      0x00\n        /* \"#utility.yul\":10256:10257   */\n      dup1\n        /* \"#utility.yul\":10249:10261   */\n      revert\n        /* \"#utility.yul\":10211:10263   */\n    tag_523:\n        /* \"#utility.yul\":10291:10300   */\n      dup2\n        /* \"#utility.yul\":10285:10301   */\n      mload\n        /* \"#utility.yul\":10344:10349   */\n      dup1\n        /* \"#utility.yul\":10337:10350   */\n      iszero\n        /* \"#utility.yul\":10330:10351   */\n      iszero\n        /* \"#utility.yul\":10323:10328   */\n      dup2\n        /* \"#utility.yul\":10320:10352   */\n      eq\n        /* \"#utility.yul\":10310:10370   */\n      tag_440\n      jumpi\n        /* \"#utility.yul\":10366:10367   */\n      0x00\n        /* \"#utility.yul\":10363:10364   */\n      dup1\n        /* \"#utility.yul\":10356:10368   */\n      revert\n        /* \"#utility.yul\":10405:10692   */\n    tag_334:\n        /* \"#utility.yul\":10534:10537   */\n      0x00\n        /* \"#utility.yul\":10572:10578   */\n      dup3\n        /* \"#utility.yul\":10566:10579   */\n      mload\n        /* \"#utility.yul\":10588:10654   */\n      tag_526\n        /* \"#utility.yul\":10647:10653   */\n      dup2\n        /* \"#utility.yul\":10642:10645   */\n      dup5\n        /* \"#utility.yul\":10635:10639   */\n      0x20\n        /* \"#utility.yul\":10627:10633   */\n      dup8\n        /* \"#utility.yul\":10623:10640   */\n      add\n        /* \"#utility.yul\":10588:10654   */\n      tag_450\n      jump\t// in\n    tag_526:\n        /* \"#utility.yul\":10670:10686   */\n      swap2\n      swap1\n      swap2\n      add\n      swap3\n        /* \"#utility.yul\":10405:10692   */\n      swap2\n      pop\n      pop\n      jump\t// out\n        /* \"#utility.yul\":11037:11164   */\n    tag_345:\n        /* \"#utility.yul\":11098:11108   */\n      0x4e487b71\n        /* \"#utility.yul\":11093:11096   */\n      0xe0\n        /* \"#utility.yul\":11089:11109   */\n      shl\n        /* \"#utility.yul\":11086:11087   */\n      0x00\n        /* \"#utility.yul\":11079:11110   */\n      mstore\n        /* \"#utility.yul\":11129:11133   */\n      0x01\n        /* \"#utility.yul\":11126:11127   */\n      0x04\n        /* \"#utility.yul\":11119:11134   */\n      mstore\n        /* \"#utility.yul\":11153:11157   */\n      0x24\n        /* \"#utility.yul\":11150:11151   */\n      0x00\n        /* \"#utility.yul\":11143:11158   */\n      revert\n    stop\n    data_75b20eef8615de99c108b05f0dbda081c91897128caa336d75dffb97c4132b4d 360894a13ba1a3210667c828492db98dca3e2076cc3735a920a3ca505d382bbc\n    data_c0c65a3718f3702d917c44106b91645b509d2e2d0979b70495c3babce192339f cd5ed15c6e187e77e9aee88184c21f4f2182ab5827cb3b7e07fbedcd63f03300\n\n    auxdata: 0xa26469706673582212205eb61123e45b365ff0e02020a54c7491475f5cca535e4a073fefa58ad4137aad64736f6c634300081a0033\n}\n",
				"bytecode": {
					"linkReferences": {},
					"object": "60a060405230608052348015601357600080fd5b50608051611a2561003d60003960008181610d1e01528181610d470152610e880152611a256000f3fe6080604052600436106101185760003560e01c8063715018a6116100a0578063ae0caeb311610064578063ae0caeb314610321578063bf16f65a14610334578063c4d66de814610354578063f2fde38b14610374578063f8b2cb4f1461039457600080fd5b8063715018a6146102665780638456cb591461027b5780638da5cb5b14610290578063a4ac0d49146102cd578063ad3cb1cc146102e357600080fd5b806352d1902d116100e757806352d1902d146101b3578063540907bb146101d65780635c975abb146101f65780635dc0b76914610226578063704802751461024657600080fd5b80630380fd031461012457806331f7d964146101615780633f4ba83a146101895780634f1ef286146101a057600080fd5b3661011f57005b600080fd5b34801561013057600080fd5b50600054610144906001600160a01b031681565b6040516001600160a01b0390911681526020015b60405180910390f35b34801561016d57600080fd5b5061014473eeeeeeeeeeeeeeeeeeeeeeeeeeeeeeeeeeeeeeee81565b34801561019557600080fd5b5061019e6103b4565b005b61019e6101ae366004611711565b6103c6565b3480156101bf57600080fd5b506101c86103e5565b604051908152602001610158565b3480156101e257600080fd5b5061019e6101f1366004611761565b610402565b34801561020257600080fd5b506000805160206119d08339815191525460ff166040519015158152602001610158565b34801561023257600080fd5b50600154610144906001600160a01b031681565b34801561025257600080fd5b5061019e610261366004611761565b61047d565b34801561027257600080fd5b5061019e61051d565b34801561028757600080fd5b5061019e61052f565b34801561029c57600080fd5b507f9016d09d72d40fdae2fd8ceac6b6234c7706214fd39c1cd1e609a0528c199300546001600160a01b0316610144565b3480156102d957600080fd5b506101c860025481565b3480156102ef57600080fd5b50610314604051806040016040528060058152602001640352e302e360dc1b81525081565b60405161015891906117a2565b61019e61032f3660046117d5565b61053f565b34801561034057600080fd5b5061019e61034f36600461185b565b6109f8565b34801561036057600080fd5b5061019e61036f366004611761565b610a3c565b34801561038057600080fd5b5061019e61038f366004611761565b610b84565b3480156103a057600080fd5b506101c86103af366004611761565b610bc2565b6103bc610c5e565b6103c4610cb9565b565b6103ce610d13565b6103d782610db8565b6103e18282610dc0565b5050565b60006103ef610e7d565b506000805160206119b083398151915290565b61040a610c5e565b6001600160a01b03811661045b5760405162461bcd60e51b81526020600482015260136024820152727a65726f206164647265737320706172616d7360681b60448201526064015b60405180910390fd5b600080546001600160a01b0319166001600160a01b0392909216919091179055565b610485610c5e565b6001600160a01b0381166104d35760405162461bcd60e51b8152602060048201526015602482015274496e76616c69642061646d696e206164647265737360581b6044820152606401610452565b600180546001600160a01b0319166001600160a01b0383169081179091556040517f44d6d25963f097ad14f29f06854a01f575648a1ef82f30e562ccd3889717e33990600090a250565b610525610c5e565b6103c46000610ec6565b610537610c5e565b6103c4610f37565b610547610f80565b61054f610fb1565b600061055b8484610ffb565b9050806040015160000361059f5760405162461bcd60e51b815260206004820152600b60248201526a0616d6f756e74203d3d20360ac1b6044820152606401610452565b80516001600160a01b0316158015906105c4575060208101516001600160a01b031615155b6106015760405162461bcd60e51b815260206004820152600e60248201526d696e76616c696420746f6b656e7360901b6044820152606401610452565b80602001516001600160a01b031681600001516001600160a01b0316036106635760405162461bcd60e51b815260206004820152601660248201527539b931903a37b5b2b7101e9e903239ba103a37b5b2b760511b6044820152606401610452565b3330146106b657336001600160a01b038316146106b65760405162461bcd60e51b815260206004820152601160248201527031b0b63632b910109e9039bbb0b83832b960791b6044820152606401610452565b80516001600160a01b031673eeeeeeeeeeeeeeeeeeeeeeeeeeeeeeeeeeeeeeed190161072a57806040015134146107255760405162461bcd60e51b81526020600482015260136024820152721b5cd9cb9d985b1d5948084f48185b5bdd5b9d606a1b6044820152606401610452565b610851565b34156107695760405162461bcd60e51b815260206004820152600e60248201526d06d73672e76616c756520213d20360941b6044820152606401610452565b80516040516370a0823160e01b81526001600160a01b038481166004830152909116906370a0823190602401602060405180830381865afa1580156107b2573d6000803e3d6000fd5b505050506040513d601f19601f820116820180604052508101906107d69190611874565b816040015111156108205760405162461bcd60e51b8152602060048201526014602482015273696e73756666696369656e742062616c616e636560601b6044820152606401610452565b6108338160000151838360400151611062565b8051600054604083015161085192916001600160a01b031690611077565b600061085c82611170565b905060006127106002548361087191906118a3565b61087b91906118ba565b905073eeeeeeeeeeeeeeeeeeeeeeeeeeeeeeeeeeeeeeee6001600160a01b031683602001516001600160a01b031603610932576001546040516001600160a01b039091169082156108fc029083906000818181858888f193505050501580156108e8573d6000803e3d6000fd5b506108f381836118dc565b6040519092506001600160a01b0385169083156108fc029084906000818181858888f1935050505015801561092c573d6000803e3d6000fd5b50610969565b602083015160015461094e91906001600160a01b031683611262565b61095881836118dc565b915061096983602001518584611262565b6020808401518451604080870151815190815293840186905283018490526001600160a01b0391821692908216918716907fc9163c3bdf7263acf1bb3d24072cc7da025f7181c31e2edc7e1673edf5e0ca329060600160405180910390a45050506109f360017f9b779b17422d0df92223018b32b4d1fa46e071723d6817e2486d003becc55f0055565b505050565b610a00610c5e565b60028190556040518181527f382455f3b749abde7721258dcfa10a22f30d4a28c69151a002dcbd8d1462e4f2906020015b60405180910390a150565b7ff0c57e16840df040f15088dc2f81fe391c3923bec73e23a9662efc9c229c6a008054600160401b810460ff16159067ffffffffffffffff16600081158015610a825750825b905060008267ffffffffffffffff166001148015610a9f5750303b155b905081158015610aad575080155b15610acb5760405163f92ee8a960e01b815260040160405180910390fd5b845467ffffffffffffffff191660011785558315610af557845460ff60401b1916600160401b1785555b610afe3361129c565b610b066112ad565b610b0e6112bd565b610b166112cd565b6032600255600180546001600160a01b0319166001600160a01b0388161790558315610b7c57845460ff60401b19168555604051600181527fc7f505b2f371ae2175ee4913f4499e1f2633a7b5936321eed1cdaeb6115181d29060200160405180910390a15b505050505050565b610b8c610c5e565b6001600160a01b038116610bb657604051631e4fbdf760e01b815260006004820152602401610452565b610bbf81610ec6565b50565b600073eeeeeeeeeeeeeeeeeeeeeeeeeeeeeeeeeeeeeeed196001600160a01b03831601610bf0575047919050565b6040516370a0823160e01b81523060048201526001600160a01b038316906370a0823190602401602060405180830381865afa158015610c34573d6000803e3d6000fd5b505050506040513d601f19601f82011682018060405250810190610c589190611874565b92915050565b33610c907f9016d09d72d40fdae2fd8ceac6b6234c7706214fd39c1cd1e609a0528c199300546001600160a01b031690565b6001600160a01b0316146103c45760405163118cdaa760e01b8152336004820152602401610452565b610cc16112d5565b6000805160206119d0833981519152805460ff191681557f5db9ee0a495bf2e6ff9c91a7834c1ba4fdd244a5e8aa4e537bd38aeae4b073aa335b6040516001600160a01b039091168152602001610a31565b306001600160a01b037f0000000000000000000000000000000000000000000000000000000000000000161480610d9a57507f00000000000000000000000000000000000000000000000000000000000000006001600160a01b0316610d8e6000805160206119b0833981519152546001600160a01b031690565b6001600160a01b031614155b156103c45760405163703e46dd60e11b815260040160405180910390fd5b610bbf610c5e565b816001600160a01b03166352d1902d6040518163ffffffff1660e01b8152600401602060405180830381865afa925050508015610e1a575060408051601f3d908101601f19168201909252610e1791810190611874565b60015b610e4257604051634c9c8ce360e01b81526001600160a01b0383166004820152602401610452565b6000805160206119b08339815191528114610e7357604051632a87526960e21b815260048101829052602401610452565b6109f38383611305565b306001600160a01b037f000000000000000000000000000000000000000000000000000000000000000016146103c45760405163703e46dd60e11b815260040160405180910390fd5b7f9016d09d72d40fdae2fd8ceac6b6234c7706214fd39c1cd1e609a0528c19930080546001600160a01b031981166001600160a01b03848116918217845560405192169182907f8be0079c531659141344cd1fd0a4f28419497f9722a3daafe3b4186f6b6457e090600090a3505050565b610f3f610f80565b6000805160206119d0833981519152805460ff191660011781557f62e78cea01bee320cd4e420270b5ea74000d11b0c9f74754ebdbfc544b05a25833610cfb565b6000805160206119d08339815191525460ff16156103c45760405163d93c066560e01b815260040160405180910390fd5b7f9b779b17422d0df92223018b32b4d1fa46e071723d6817e2486d003becc55f00805460011901610ff557604051633ee5aeb560e01b815260040160405180910390fd5b60029055565b604080516080810182526000808252602082018190529181018290526060808201529080808061102d878701886118ef565b604080516080810182526001600160a01b03958616815294909316602085015291830152606082015294505050505092915050565b6109f36001600160a01b03841683308461135b565b604051636eb1769f60e11b81523060048201526001600160a01b0383811660248301526000919085169063dd62ed3e90604401602060405180830381865afa1580156110c7573d6000803e3d6000fd5b505050506040513d601f19601f820116820180604052508101906110eb9190611874565b90508181101561116a5760405163095ea7b360e01b81526001600160a01b0384811660048301526024820184905285169063095ea7b3906044016020604051808303816000875af1158015611144573d6000803e3d6000fd5b505050506040513d601f19601f82011682018060405250810190611168919061195b565b505b50505050565b6000806111808360200151610bc2565b60008054606086015160405193945091926001600160a01b039091169134916111a9919061197d565b60006040518083038185875af1925050503d80600081146111e6576040519150601f19603f3d011682016040523d82523d6000602084013e6111eb565b606091505b505090508061122a5760405162461bcd60e51b815260206004820152600b60248201526a1cddd85c0819985a5b195960aa1b6044820152606401610452565b60006112398560200151610bc2565b9050600061124784836118dc565b90508060000361125957611259611999565b95945050505050565b6109f36001600160a01b03841683836113c2565b60017f9b779b17422d0df92223018b32b4d1fa46e071723d6817e2486d003becc55f0055565b6112a46113f3565b610bbf8161143c565b6112b56113f3565b6103c4611444565b6112c56113f3565b6103c4611465565b6103c46113f3565b6000805160206119d08339815191525460ff166103c457604051638dfc202b60e01b815260040160405180910390fd5b61130e8261146d565b6040516001600160a01b038316907fbc7cd75a20ee27fd9adebab32041f755214dbc6bffa90cc0225b39da2e5c2d3b90600090a2805115611353576109f382826114d2565b6103e161153f565b6040516001600160a01b03848116602483015283811660448301526064820183905261116a9186918216906323b872dd906084015b604051602081830303815290604052915060e01b6020820180516001600160e01b03838183161783525050505061155e565b6040516001600160a01b038381166024830152604482018390526109f391859182169063a9059cbb90606401611390565b7ff0c57e16840df040f15088dc2f81fe391c3923bec73e23a9662efc9c229c6a0054600160401b900460ff166103c457604051631afcd79f60e31b815260040160405180910390fd5b610b8c6113f3565b61144c6113f3565b6000805160206119d0833981519152805460ff19169055565b6112766113f3565b806001600160a01b03163b6000036114a357604051634c9c8ce360e01b81526001600160a01b0382166004820152602401610452565b6000805160206119b083398151915280546001600160a01b0319166001600160a01b0392909216919091179055565b6060600080846001600160a01b0316846040516114ef919061197d565b600060405180830381855af49150503d806000811461152a576040519150601f19603f3d011682016040523d82523d6000602084013e61152f565b606091505b50915091506112598583836115cf565b34156103c45760405163b398979f60e01b815260040160405180910390fd5b600080602060008451602086016000885af180611581576040513d6000823e3d81fd5b50506000513d915081156115995780600114156115a6565b6001600160a01b0384163b155b1561116a57604051635274afe760e01b81526001600160a01b0385166004820152602401610452565b6060826115e4576115df8261162e565b611627565b81511580156115fb57506001600160a01b0384163b155b1561162457604051639996b31560e01b81526001600160a01b0385166004820152602401610452565b50805b9392505050565b80511561163e5780518082602001fd5b60405163d6bda27560e01b815260040160405180910390fd5b6001600160a01b0381168114610bbf57600080fd5b634e487b7160e01b600052604160045260246000fd5b600082601f83011261169357600080fd5b813567ffffffffffffffff8111156116ad576116ad61166c565b604051601f8201601f19908116603f0116810167ffffffffffffffff811182821017156116dc576116dc61166c565b6040528181528382016020018510156116f457600080fd5b816020850160208301376000918101602001919091529392505050565b6000806040838503121561172457600080fd5b823561172f81611657565b9150602083013567ffffffffffffffff81111561174b57600080fd5b61175785828601611682565b9150509250929050565b60006020828403121561177357600080fd5b813561162781611657565b60005b83811015611799578181015183820152602001611781565b50506000910152565b60208152600082518060208401526117c181604085016020870161177e565b601f01601f19169190910160400192915050565b6000806000604084860312156117ea57600080fd5b833567ffffffffffffffff81111561180157600080fd5b8401601f8101861361181257600080fd5b803567ffffffffffffffff81111561182957600080fd5b86602082840101111561183b57600080fd5b60209182019450925084013561185081611657565b809150509250925092565b60006020828403121561186d57600080fd5b5035919050565b60006020828403121561188657600080fd5b5051919050565b634e487b7160e01b600052601160045260246000fd5b8082028115828204841417610c5857610c5861188d565b6000826118d757634e487b7160e01b600052601260045260246000fd5b500490565b81810381811115610c5857610c5861188d565b6000806000806080858703121561190557600080fd5b843561191081611657565b9350602085013561192081611657565b925060408501359150606085013567ffffffffffffffff81111561194357600080fd5b61194f87828801611682565b91505092959194509250565b60006020828403121561196d57600080fd5b8151801515811461162757600080fd5b6000825161198f81846020870161177e565b9190910192915050565b634e487b7160e01b600052600160045260246000fdfe360894a13ba1a3210667c828492db98dca3e2076cc3735a920a3ca505d382bbccd5ed15c6e187e77e9aee88184c21f4f2182ab5827cb3b7e07fbedcd63f03300a26469706673582212205eb61123e45b365ff0e02020a54c7491475f5cca535e4a073fefa58ad4137aad64736f6c634300081a0033",
					"opcodes": "PUSH1 0xA0 PUSH1 0x40 MSTORE ADDRESS PUSH1 0x80 MSTORE CALLVALUE DUP1 ISZERO PUSH1 0x13 JUMPI PUSH1 0x0 DUP1 REVERT JUMPDEST POP PUSH1 0x80 MLOAD PUSH2 0x1A25 PUSH2 0x3D PUSH1 0x0 CODECOPY PUSH1 0x0 DUP2 DUP2 PUSH2 0xD1E ADD MSTORE DUP2 DUP2 PUSH2 0xD47 ADD MSTORE PUSH2 0xE88 ADD MSTORE PUSH2 0x1A25 PUSH1 0x0 RETURN INVALID PUSH1 0x80 PUSH1 0x40 MSTORE PUSH1 0x4 CALLDATASIZE LT PUSH2 0x118 JUMPI PUSH1 0x0 CALLDATALOAD PUSH1 0xE0 SHR DUP1 PUSH4 0x715018A6 GT PUSH2 0xA0 JUMPI DUP1 PUSH4 0xAE0CAEB3 GT PUSH2 0x64 JUMPI DUP1 PUSH4 0xAE0CAEB3 EQ PUSH2 0x321 JUMPI DUP1 PUSH4 0xBF16F65A EQ PUSH2 0x334 JUMPI DUP1 PUSH4 0xC4D66DE8 EQ PUSH2 0x354 JUMPI DUP1 PUSH4 0xF2FDE38B EQ PUSH2 0x374 JUMPI DUP1 PUSH4 0xF8B2CB4F EQ PUSH2 0x394 JUMPI PUSH1 0x0 DUP1 REVERT JUMPDEST DUP1 PUSH4 0x715018A6 EQ PUSH2 0x266 JUMPI DUP1 PUSH4 0x8456CB59 EQ PUSH2 0x27B JUMPI DUP1 PUSH4 0x8DA5CB5B EQ PUSH2 0x290 JUMPI DUP1 PUSH4 0xA4AC0D49 EQ PUSH2 0x2CD JUMPI DUP1 PUSH4 0xAD3CB1CC EQ PUSH2 0x2E3 JUMPI PUSH1 0x0 DUP1 REVERT JUMPDEST DUP1 PUSH4 0x52D1902D GT PUSH2 0xE7 JUMPI DUP1 PUSH4 0x52D1902D EQ PUSH2 0x1B3 JUMPI DUP1 PUSH4 0x540907BB EQ PUSH2 0x1D6 JUMPI DUP1 PUSH4 0x5C975ABB EQ PUSH2 0x1F6 JUMPI DUP1 PUSH4 0x5DC0B769 EQ PUSH2 0x226 JUMPI DUP1 PUSH4 0x70480275 EQ PUSH2 0x246 JUMPI PUSH1 0x0 DUP1 REVERT JUMPDEST DUP1 PUSH4 0x380FD03 EQ PUSH2 0x124 JUMPI DUP1 PUSH4 0x31F7D964 EQ PUSH2 0x161 JUMPI DUP1 PUSH4 0x3F4BA83A EQ PUSH2 0x189 JUMPI DUP1 PUSH4 0x4F1EF286 EQ PUSH2 0x1A0 JUMPI PUSH1 0x0 DUP1 REVERT JUMPDEST CALLDATASIZE PUSH2 0x11F JUMPI STOP JUMPDEST PUSH1 0x0 DUP1 REVERT JUMPDEST CALLVALUE DUP1 ISZERO PUSH2 0x130 JUMPI PUSH1 0x0 DUP1 REVERT JUMPDEST POP PUSH1 0x0 SLOAD PUSH2 0x144 SWAP1 PUSH1 0x1 PUSH1 0x1 PUSH1 0xA0 SHL SUB AND DUP2 JUMP JUMPDEST PUSH1 0x40 MLOAD PUSH1 0x1 PUSH1 0x1 PUSH1 0xA0 SHL SUB SWAP1 SWAP2 AND DUP2 MSTORE PUSH1 0x20 ADD JUMPDEST PUSH1 0x40 MLOAD DUP1 SWAP2 SUB SWAP1 RETURN JUMPDEST CALLVALUE DUP1 ISZERO PUSH2 0x16D JUMPI PUSH1 0x0 DUP1 REVERT JUMPDEST POP PUSH2 0x144 PUSH20 0xEEEEEEEEEEEEEEEEEEEEEEEEEEEEEEEEEEEEEEEE DUP2 JUMP JUMPDEST CALLVALUE DUP1 ISZERO PUSH2 0x195 JUMPI PUSH1 0x0 DUP1 REVERT JUMPDEST POP PUSH2 0x19E PUSH2 0x3B4 JUMP JUMPDEST STOP JUMPDEST PUSH2 0x19E PUSH2 0x1AE CALLDATASIZE PUSH1 0x4 PUSH2 0x1711 JUMP JUMPDEST PUSH2 0x3C6 JUMP JUMPDEST CALLVALUE DUP1 ISZERO PUSH2 0x1BF JUMPI PUSH1 0x0 DUP1 REVERT JUMPDEST POP PUSH2 0x1C8 PUSH2 0x3E5 JUMP JUMPDEST PUSH1 0x40 MLOAD SWAP1 DUP2 MSTORE PUSH1 0x20 ADD PUSH2 0x158 JUMP JUMPDEST CALLVALUE DUP1 ISZERO PUSH2 0x1E2 JUMPI PUSH1 0x0 DUP1 REVERT JUMPDEST POP PUSH2 0x19E PUSH2 0x1F1 CALLDATASIZE PUSH1 0x4 PUSH2 0x1761 JUMP JUMPDEST PUSH2 0x402 JUMP JUMPDEST CALLVALUE DUP1 ISZERO PUSH2 0x202 JUMPI PUSH1 0x0 DUP1 REVERT JUMPDEST POP PUSH1 0x0 DUP1 MLOAD PUSH1 0x20 PUSH2 0x19D0 DUP4 CODECOPY DUP2 MLOAD SWAP2 MSTORE SLOAD PUSH1 0xFF AND PUSH1 0x40 MLOAD SWAP1 ISZERO ISZERO DUP2 MSTORE PUSH1 0x20 ADD PUSH2 0x158 JUMP JUMPDEST CALLVALUE DUP1 ISZERO PUSH2 0x232 JUMPI PUSH1 0x0 DUP1 REVERT JUMPDEST POP PUSH1 0x1 SLOAD PUSH2 0x144 SWAP1 PUSH1 0x1 PUSH1 0x1 PUSH1 0xA0 SHL SUB AND DUP2 JUMP JUMPDEST CALLVALUE DUP1 ISZERO PUSH2 0x252 JUMPI PUSH1 0x0 DUP1 REVERT JUMPDEST POP PUSH2 0x19E PUSH2 0x261 CALLDATASIZE PUSH1 0x4 PUSH2 0x1761 JUMP JUMPDEST PUSH2 0x47D JUMP JUMPDEST CALLVALUE DUP1 ISZERO PUSH2 0x272 JUMPI PUSH1 0x0 DUP1 REVERT JUMPDEST POP PUSH2 0x19E PUSH2 0x51D JUMP JUMPDEST CALLVALUE DUP1 ISZERO PUSH2 0x287 JUMPI PUSH1 0x0 DUP1 REVERT JUMPDEST POP PUSH2 0x19E PUSH2 0x52F JUMP JUMPDEST CALLVALUE DUP1 ISZERO PUSH2 0x29C JUMPI PUSH1 0x0 DUP1 REVERT JUMPDEST POP PUSH32 0x9016D09D72D40FDAE2FD8CEAC6B6234C7706214FD39C1CD1E609A0528C199300 SLOAD PUSH1 0x1 PUSH1 0x1 PUSH1 0xA0 SHL SUB AND PUSH2 0x144 JUMP JUMPDEST CALLVALUE DUP1 ISZERO PUSH2 0x2D9 JUMPI PUSH1 0x0 DUP1 REVERT JUMPDEST POP PUSH2 0x1C8 PUSH1 0x2 SLOAD DUP2 JUMP JUMPDEST CALLVALUE DUP1 ISZERO PUSH2 0x2EF JUMPI PUSH1 0x0 DUP1 REVERT JUMPDEST POP PUSH2 0x314 PUSH1 0x40 MLOAD DUP1 PUSH1 0x40 ADD PUSH1 0x40 MSTORE DUP1 PUSH1 0x5 DUP2 MSTORE PUSH1 0x20 ADD PUSH5 0x352E302E3 PUSH1 0xDC SHL DUP2 MSTORE POP DUP2 JUMP JUMPDEST PUSH1 0x40 MLOAD PUSH2 0x158 SWAP2 SWAP1 PUSH2 0x17A2 JUMP JUMPDEST PUSH2 0x19E PUSH2 0x32F CALLDATASIZE PUSH1 0x4 PUSH2 0x17D5 JUMP JUMPDEST PUSH2 0x53F JUMP JUMPDEST CALLVALUE DUP1 ISZERO PUSH2 0x340 JUMPI PUSH1 0x0 DUP1 REVERT JUMPDEST POP PUSH2 0x19E PUSH2 0x34F CALLDATASIZE PUSH1 0x4 PUSH2 0x185B JUMP JUMPDEST PUSH2 0x9F8 JUMP JUMPDEST CALLVALUE DUP1 ISZERO PUSH2 0x360 JUMPI PUSH1 0x0 DUP1 REVERT JUMPDEST POP PUSH2 0x19E PUSH2 0x36F CALLDATASIZE PUSH1 0x4 PUSH2 0x1761 JUMP JUMPDEST PUSH2 0xA3C JUMP JUMPDEST CALLVALUE DUP1 ISZERO PUSH2 0x380 JUMPI PUSH1 0x0 DUP1 REVERT JUMPDEST POP PUSH2 0x19E PUSH2 0x38F CALLDATASIZE PUSH1 0x4 PUSH2 0x1761 JUMP JUMPDEST PUSH2 0xB84 JUMP JUMPDEST CALLVALUE DUP1 ISZERO PUSH2 0x3A0 JUMPI PUSH1 0x0 DUP1 REVERT JUMPDEST POP PUSH2 0x1C8 PUSH2 0x3AF CALLDATASIZE PUSH1 0x4 PUSH2 0x1761 JUMP JUMPDEST PUSH2 0xBC2 JUMP JUMPDEST PUSH2 0x3BC PUSH2 0xC5E JUMP JUMPDEST PUSH2 0x3C4 PUSH2 0xCB9 JUMP JUMPDEST JUMP JUMPDEST PUSH2 0x3CE PUSH2 0xD13 JUMP JUMPDEST PUSH2 0x3D7 DUP3 PUSH2 0xDB8 JUMP JUMPDEST PUSH2 0x3E1 DUP3 DUP3 PUSH2 0xDC0 JUMP JUMPDEST POP POP JUMP JUMPDEST PUSH1 0x0 PUSH2 0x3EF PUSH2 0xE7D JUMP JUMPDEST POP PUSH1 0x0 DUP1 MLOAD PUSH1 0x20 PUSH2 0x19B0 DUP4 CODECOPY DUP2 MLOAD SWAP2 MSTORE SWAP1 JUMP JUMPDEST PUSH2 0x40A PUSH2 0xC5E JUMP JUMPDEST PUSH1 0x1 PUSH1 0x1 PUSH1 0xA0 SHL SUB DUP2 AND PUSH2 0x45B JUMPI PUSH1 0x40 MLOAD PUSH3 0x461BCD PUSH1 0xE5 SHL DUP2 MSTORE PUSH1 0x20 PUSH1 0x4 DUP3 ADD MSTORE PUSH1 0x13 PUSH1 0x24 DUP3 ADD MSTORE PUSH19 0x7A65726F206164647265737320706172616D73 PUSH1 0x68 SHL PUSH1 0x44 DUP3 ADD MSTORE PUSH1 0x64 ADD JUMPDEST PUSH1 0x40 MLOAD DUP1 SWAP2 SUB SWAP1 REVERT JUMPDEST PUSH1 0x0 DUP1 SLOAD PUSH1 0x1 PUSH1 0x1 PUSH1 0xA0 SHL SUB NOT AND PUSH1 0x1 PUSH1 0x1 PUSH1 0xA0 SHL SUB SWAP3 SWAP1 SWAP3 AND SWAP2 SWAP1 SWAP2 OR SWAP1 SSTORE JUMP JUMPDEST PUSH2 0x485 PUSH2 0xC5E JUMP JUMPDEST PUSH1 0x1 PUSH1 0x1 PUSH1 0xA0 SHL SUB DUP2 AND PUSH2 0x4D3 JUMPI PUSH1 0x40 MLOAD PUSH3 0x461BCD PUSH1 0xE5 SHL DUP2 MSTORE PUSH1 0x20 PUSH1 0x4 DUP3 ADD MSTORE PUSH1 0x15 PUSH1 0x24 DUP3 ADD MSTORE PUSH21 0x496E76616C69642061646D696E2061646472657373 PUSH1 0x58 SHL PUSH1 0x44 DUP3 ADD MSTORE PUSH1 0x64 ADD PUSH2 0x452 JUMP JUMPDEST PUSH1 0x1 DUP1 SLOAD PUSH1 0x1 PUSH1 0x1 PUSH1 0xA0 SHL SUB NOT AND PUSH1 0x1 PUSH1 0x1 PUSH1 0xA0 SHL SUB DUP4 AND SWAP1 DUP2 OR SWAP1 SWAP2 SSTORE PUSH1 0x40 MLOAD PUSH32 0x44D6D25963F097AD14F29F06854A01F575648A1EF82F30E562CCD3889717E339 SWAP1 PUSH1 0x0 SWAP1 LOG2 POP JUMP JUMPDEST PUSH2 0x525 PUSH2 0xC5E JUMP JUMPDEST PUSH2 0x3C4 PUSH1 0x0 PUSH2 0xEC6 JUMP JUMPDEST PUSH2 0x537 PUSH2 0xC5E JUMP JUMPDEST PUSH2 0x3C4 PUSH2 0xF37 JUMP JUMPDEST PUSH2 0x547 PUSH2 0xF80 JUMP JUMPDEST PUSH2 0x54F PUSH2 0xFB1 JUMP JUMPDEST PUSH1 0x0 PUSH2 0x55B DUP5 DUP5 PUSH2 0xFFB JUMP JUMPDEST SWAP1 POP DUP1 PUSH1 0x40 ADD MLOAD PUSH1 0x0 SUB PUSH2 0x59F JUMPI PUSH1 0x40 MLOAD PUSH3 0x461BCD PUSH1 0xE5 SHL DUP2 MSTORE PUSH1 0x20 PUSH1 0x4 DUP3 ADD MSTORE PUSH1 0xB PUSH1 0x24 DUP3 ADD MSTORE PUSH11 0x616D6F756E74203D3D203 PUSH1 0xAC SHL PUSH1 0x44 DUP3 ADD MSTORE PUSH1 0x64 ADD PUSH2 0x452 JUMP JUMPDEST DUP1 MLOAD PUSH1 0x1 PUSH1 0x1 PUSH1 0xA0 SHL SUB AND ISZERO DUP1 ISZERO SWAP1 PUSH2 0x5C4 JUMPI POP PUSH1 0x20 DUP2 ADD MLOAD PUSH1 0x1 PUSH1 0x1 PUSH1 0xA0 SHL SUB AND ISZERO ISZERO JUMPDEST PUSH2 0x601 JUMPI PUSH1 0x40 MLOAD PUSH3 0x461BCD PUSH1 0xE5 SHL DUP2 MSTORE PUSH1 0x20 PUSH1 0x4 DUP3 ADD MSTORE PUSH1 0xE PUSH1 0x24 DUP3 ADD MSTORE PUSH14 0x696E76616C696420746F6B656E73 PUSH1 0x90 SHL PUSH1 0x44 DUP3 ADD MSTORE PUSH1 0x64 ADD PUSH2 0x452 JUMP JUMPDEST DUP1 PUSH1 0x20 ADD MLOAD PUSH1 0x1 PUSH1 0x1 PUSH1 0xA0 SHL SUB AND DUP2 PUSH1 0x0 ADD MLOAD PUSH1 0x1 PUSH1 0x1 PUSH1 0xA0 SHL SUB AND SUB PUSH2 0x663 JUMPI PUSH1 0x40 MLOAD PUSH3 0x461BCD PUSH1 0xE5 SHL DUP2 MSTORE PUSH1 0x20 PUSH1 0x4 DUP3 ADD MSTORE PUSH1 0x16 PUSH1 0x24 DUP3 ADD MSTORE PUSH22 0x39B931903A37B5B2B7101E9E903239BA103A37B5B2B7 PUSH1 0x51 SHL PUSH1 0x44 DUP3 ADD MSTORE PUSH1 0x64 ADD PUSH2 0x452 JUMP JUMPDEST CALLER ADDRESS EQ PUSH2 0x6B6 JUMPI CALLER PUSH1 0x1 PUSH1 0x1 PUSH1 0xA0 SHL SUB DUP4 AND EQ PUSH2 0x6B6 JUMPI PUSH1 0x40 MLOAD PUSH3 0x461BCD PUSH1 0xE5 SHL DUP2 MSTORE PUSH1 0x20 PUSH1 0x4 DUP3 ADD MSTORE PUSH1 0x11 PUSH1 0x24 DUP3 ADD MSTORE PUSH17 0x31B0B63632B910109E9039BBB0B83832B9 PUSH1 0x79 SHL PUSH1 0x44 DUP3 ADD MSTORE PUSH1 0x64 ADD PUSH2 0x452 JUMP JUMPDEST DUP1 MLOAD PUSH1 0x1 PUSH1 0x1 PUSH1 0xA0 SHL SUB AND PUSH20 0xEEEEEEEEEEEEEEEEEEEEEEEEEEEEEEEEEEEEEEED NOT ADD PUSH2 0x72A JUMPI DUP1 PUSH1 0x40 ADD MLOAD CALLVALUE EQ PUSH2 0x725 JUMPI PUSH1 0x40 MLOAD PUSH3 0x461BCD PUSH1 0xE5 SHL DUP2 MSTORE PUSH1 0x20 PUSH1 0x4 DUP3 ADD MSTORE PUSH1 0x13 PUSH1 0x24 DUP3 ADD MSTORE PUSH19 0x1B5CD9CB9D985B1D5948084F48185B5BDD5B9D PUSH1 0x6A SHL PUSH1 0x44 DUP3 ADD MSTORE PUSH1 0x64 ADD PUSH2 0x452 JUMP JUMPDEST PUSH2 0x851 JUMP JUMPDEST CALLVALUE ISZERO PUSH2 0x769 JUMPI PUSH1 0x40 MLOAD PUSH3 0x461BCD PUSH1 0xE5 SHL DUP2 MSTORE PUSH1 0x20 PUSH1 0x4 DUP3 ADD MSTORE PUSH1 0xE PUSH1 0x24 DUP3 ADD MSTORE PUSH14 0x6D73672E76616C756520213D203 PUSH1 0x94 SHL PUSH1 0x44 DUP3 ADD MSTORE PUSH1 0x64 ADD PUSH2 0x452 JUMP JUMPDEST DUP1 MLOAD PUSH1 0x40 MLOAD PUSH4 0x70A08231 PUSH1 0xE0 SHL DUP2 MSTORE PUSH1 0x1 PUSH1 0x1 PUSH1 0xA0 SHL SUB DUP5 DUP2 AND PUSH1 0x4 DUP4 ADD MSTORE SWAP1 SWAP2 AND SWAP1 PUSH4 0x70A08231 SWAP1 PUSH1 0x24 ADD PUSH1 0x20 PUSH1 0x40 MLOAD DUP1 DUP4 SUB DUP2 DUP7 GAS STATICCALL ISZERO DUP1 ISZERO PUSH2 0x7B2 JUMPI RETURNDATASIZE PUSH1 0x0 DUP1 RETURNDATACOPY RETURNDATASIZE PUSH1 0x0 REVERT JUMPDEST POP POP POP POP PUSH1 0x40 MLOAD RETURNDATASIZE PUSH1 0x1F NOT PUSH1 0x1F DUP3 ADD AND DUP3 ADD DUP1 PUSH1 0x40 MSTORE POP DUP2 ADD SWAP1 PUSH2 0x7D6 SWAP2 SWAP1 PUSH2 0x1874 JUMP JUMPDEST DUP2 PUSH1 0x40 ADD MLOAD GT ISZERO PUSH2 0x820 JUMPI PUSH1 0x40 MLOAD PUSH3 0x461BCD PUSH1 0xE5 SHL DUP2 MSTORE PUSH1 0x20 PUSH1 0x4 DUP3 ADD MSTORE PUSH1 0x14 PUSH1 0x24 DUP3 ADD MSTORE PUSH20 0x696E73756666696369656E742062616C616E6365 PUSH1 0x60 SHL PUSH1 0x44 DUP3 ADD MSTORE PUSH1 0x64 ADD PUSH2 0x452 JUMP JUMPDEST PUSH2 0x833 DUP2 PUSH1 0x0 ADD MLOAD DUP4 DUP4 PUSH1 0x40 ADD MLOAD PUSH2 0x1062 JUMP JUMPDEST DUP1 MLOAD PUSH1 0x0 SLOAD PUSH1 0x40 DUP4 ADD MLOAD PUSH2 0x851 SWAP3 SWAP2 PUSH1 0x1 PUSH1 0x1 PUSH1 0xA0 SHL SUB AND SWAP1 PUSH2 0x1077 JUMP JUMPDEST PUSH1 0x0 PUSH2 0x85C DUP3 PUSH2 0x1170 JUMP JUMPDEST SWAP1 POP PUSH1 0x0 PUSH2 0x2710 PUSH1 0x2 SLOAD DUP4 PUSH2 0x871 SWAP2 SWAP1 PUSH2 0x18A3 JUMP JUMPDEST PUSH2 0x87B SWAP2 SWAP1 PUSH2 0x18BA JUMP JUMPDEST SWAP1 POP PUSH20 0xEEEEEEEEEEEEEEEEEEEEEEEEEEEEEEEEEEEEEEEE PUSH1 0x1 PUSH1 0x1 PUSH1 0xA0 SHL SUB AND DUP4 PUSH1 0x20 ADD MLOAD PUSH1 0x1 PUSH1 0x1 PUSH1 0xA0 SHL SUB AND SUB PUSH2 0x932 JUMPI PUSH1 0x1 SLOAD PUSH1 0x40 MLOAD PUSH1 0x1 PUSH1 0x1 PUSH1 0xA0 SHL SUB SWAP1 SWAP2 AND SWAP1 DUP3 ISZERO PUSH2 0x8FC MUL SWAP1 DUP4 SWAP1 PUSH1 0x0 DUP2 DUP2 DUP2 DUP6 DUP9 DUP9 CALL SWAP4 POP POP POP POP ISZERO DUP1 ISZERO PUSH2 0x8E8 JUMPI RETURNDATASIZE PUSH1 0x0 DUP1 RETURNDATACOPY RETURNDATASIZE PUSH1 0x0 REVERT JUMPDEST POP PUSH2 0x8F3 DUP2 DUP4 PUSH2 0x18DC JUMP JUMPDEST PUSH1 0x40 MLOAD SWAP1 SWAP3 POP PUSH1 0x1 PUSH1 0x1 PUSH1 0xA0 SHL SUB DUP6 AND SWAP1 DUP4 ISZERO PUSH2 0x8FC MUL SWAP1 DUP5 SWAP1 PUSH1 0x0 DUP2 DUP2 DUP2 DUP6 DUP9 DUP9 CALL SWAP4 POP POP POP POP ISZERO DUP1 ISZERO PUSH2 0x92C JUMPI RETURNDATASIZE PUSH1 0x0 DUP1 RETURNDATACOPY RETURNDATASIZE PUSH1 0x0 REVERT JUMPDEST POP PUSH2 0x969 JUMP JUMPDEST PUSH1 0x20 DUP4 ADD MLOAD PUSH1 0x1 SLOAD PUSH2 0x94E SWAP2 SWAP1 PUSH1 0x1 PUSH1 0x1 PUSH1 0xA0 SHL SUB AND DUP4 PUSH2 0x1262 JUMP JUMPDEST PUSH2 0x958 DUP2 DUP4 PUSH2 0x18DC JUMP JUMPDEST SWAP2 POP PUSH2 0x969 DUP4 PUSH1 0x20 ADD MLOAD DUP6 DUP5 PUSH2 0x1262 JUMP JUMPDEST PUSH1 0x20 DUP1 DUP5 ADD MLOAD DUP5 MLOAD PUSH1 0x40 DUP1 DUP8 ADD MLOAD DUP2 MLOAD SWAP1 DUP2 MSTORE SWAP4 DUP5 ADD DUP7 SWAP1 MSTORE DUP4 ADD DUP5 SWAP1 MSTORE PUSH1 0x1 PUSH1 0x1 PUSH1 0xA0 SHL SUB SWAP2 DUP3 AND SWAP3 SWAP1 DUP3 AND SWAP2 DUP8 AND SWAP1 PUSH32 0xC9163C3BDF7263ACF1BB3D24072CC7DA025F7181C31E2EDC7E1673EDF5E0CA32 SWAP1 PUSH1 0x60 ADD PUSH1 0x40 MLOAD DUP1 SWAP2 SUB SWAP1 LOG4 POP POP POP PUSH2 0x9F3 PUSH1 0x1 PUSH32 0x9B779B17422D0DF92223018B32B4D1FA46E071723D6817E2486D003BECC55F00 SSTORE JUMP JUMPDEST POP POP POP JUMP JUMPDEST PUSH2 0xA00 PUSH2 0xC5E JUMP JUMPDEST PUSH1 0x2 DUP2 SWAP1 SSTORE PUSH1 0x40 MLOAD DUP2 DUP2 MSTORE PUSH32 0x382455F3B749ABDE7721258DCFA10A22F30D4A28C69151A002DCBD8D1462E4F2 SWAP1 PUSH1 0x20 ADD JUMPDEST PUSH1 0x40 MLOAD DUP1 SWAP2 SUB SWAP1 LOG1 POP JUMP JUMPDEST PUSH32 0xF0C57E16840DF040F15088DC2F81FE391C3923BEC73E23A9662EFC9C229C6A00 DUP1 SLOAD PUSH1 0x1 PUSH1 0x40 SHL DUP2 DIV PUSH1 0xFF AND ISZERO SWAP1 PUSH8 0xFFFFFFFFFFFFFFFF AND PUSH1 0x0 DUP2 ISZERO DUP1 ISZERO PUSH2 0xA82 JUMPI POP DUP3 JUMPDEST SWAP1 POP PUSH1 0x0 DUP3 PUSH8 0xFFFFFFFFFFFFFFFF AND PUSH1 0x1 EQ DUP1 ISZERO PUSH2 0xA9F JUMPI POP ADDRESS EXTCODESIZE ISZERO JUMPDEST SWAP1 POP DUP2 ISZERO DUP1 ISZERO PUSH2 0xAAD JUMPI POP DUP1 ISZERO JUMPDEST ISZERO PUSH2 0xACB JUMPI PUSH1 0x40 MLOAD PUSH4 0xF92EE8A9 PUSH1 0xE0 SHL DUP2 MSTORE PUSH1 0x4 ADD PUSH1 0x40 MLOAD DUP1 SWAP2 SUB SWAP1 REVERT JUMPDEST DUP5 SLOAD PUSH8 0xFFFFFFFFFFFFFFFF NOT AND PUSH1 0x1 OR DUP6 SSTORE DUP4 ISZERO PUSH2 0xAF5 JUMPI DUP5 SLOAD PUSH1 0xFF PUSH1 0x40 SHL NOT AND PUSH1 0x1 PUSH1 0x40 SHL OR DUP6 SSTORE JUMPDEST PUSH2 0xAFE CALLER PUSH2 0x129C JUMP JUMPDEST PUSH2 0xB06 PUSH2 0x12AD JUMP JUMPDEST PUSH2 0xB0E PUSH2 0x12BD JUMP JUMPDEST PUSH2 0xB16 PUSH2 0x12CD JUMP JUMPDEST PUSH1 0x32 PUSH1 0x2 SSTORE PUSH1 0x1 DUP1 SLOAD PUSH1 0x1 PUSH1 0x1 PUSH1 0xA0 SHL SUB NOT AND PUSH1 0x1 PUSH1 0x1 PUSH1 0xA0 SHL SUB DUP9 AND OR SWAP1 SSTORE DUP4 ISZERO PUSH2 0xB7C JUMPI DUP5 SLOAD PUSH1 0xFF PUSH1 0x40 SHL NOT AND DUP6 SSTORE PUSH1 0x40 MLOAD PUSH1 0x1 DUP2 MSTORE PUSH32 0xC7F505B2F371AE2175EE4913F4499E1F2633A7B5936321EED1CDAEB6115181D2 SWAP1 PUSH1 0x20 ADD PUSH1 0x40 MLOAD DUP1 SWAP2 SUB SWAP1 LOG1 JUMPDEST POP POP POP POP POP POP JUMP JUMPDEST PUSH2 0xB8C PUSH2 0xC5E JUMP JUMPDEST PUSH1 0x1 PUSH1 0x1 PUSH1 0xA0 SHL SUB DUP2 AND PUSH2 0xBB6 JUMPI PUSH1 0x40 MLOAD PUSH4 0x1E4FBDF7 PUSH1 0xE0 SHL DUP2 MSTORE PUSH1 0x0 PUSH1 0x4 DUP3 ADD MSTORE PUSH1 0x24 ADD PUSH2 0x452 JUMP JUMPDEST PUSH2 0xBBF DUP2 PUSH2 0xEC6 JUMP JUMPDEST POP JUMP JUMPDEST PUSH1 0x0 PUSH20 0xEEEEEEEEEEEEEEEEEEEEEEEEEEEEEEEEEEEEEEED NOT PUSH1 0x1 PUSH1 0x1 PUSH1 0xA0 SHL SUB DUP4 AND ADD PUSH2 0xBF0 JUMPI POP SELFBALANCE SWAP2 SWAP1 POP JUMP JUMPDEST PUSH1 0x40 MLOAD PUSH4 0x70A08231 PUSH1 0xE0 SHL DUP2 MSTORE ADDRESS PUSH1 0x4 DUP3 ADD MSTORE PUSH1 0x1 PUSH1 0x1 PUSH1 0xA0 SHL SUB DUP4 AND SWAP1 PUSH4 0x70A08231 SWAP1 PUSH1 0x24 ADD PUSH1 0x20 PUSH1 0x40 MLOAD DUP1 DUP4 SUB DUP2 DUP7 GAS STATICCALL ISZERO DUP1 ISZERO PUSH2 0xC34 JUMPI RETURNDATASIZE PUSH1 0x0 DUP1 RETURNDATACOPY RETURNDATASIZE PUSH1 0x0 REVERT JUMPDEST POP POP POP POP PUSH1 0x40 MLOAD RETURNDATASIZE PUSH1 0x1F NOT PUSH1 0x1F DUP3 ADD AND DUP3 ADD DUP1 PUSH1 0x40 MSTORE POP DUP2 ADD SWAP1 PUSH2 0xC58 SWAP2 SWAP1 PUSH2 0x1874 JUMP JUMPDEST SWAP3 SWAP2 POP POP JUMP JUMPDEST CALLER PUSH2 0xC90 PUSH32 0x9016D09D72D40FDAE2FD8CEAC6B6234C7706214FD39C1CD1E609A0528C199300 SLOAD PUSH1 0x1 PUSH1 0x1 PUSH1 0xA0 SHL SUB AND SWAP1 JUMP JUMPDEST PUSH1 0x1 PUSH1 0x1 PUSH1 0xA0 SHL SUB AND EQ PUSH2 0x3C4 JUMPI PUSH1 0x40 MLOAD PUSH4 0x118CDAA7 PUSH1 0xE0 SHL DUP2 MSTORE CALLER PUSH1 0x4 DUP3 ADD MSTORE PUSH1 0x24 ADD PUSH2 0x452 JUMP JUMPDEST PUSH2 0xCC1 PUSH2 0x12D5 JUMP JUMPDEST PUSH1 0x0 DUP1 MLOAD PUSH1 0x20 PUSH2 0x19D0 DUP4 CODECOPY DUP2 MLOAD SWAP2 MSTORE DUP1 SLOAD PUSH1 0xFF NOT AND DUP2 SSTORE PUSH32 0x5DB9EE0A495BF2E6FF9C91A7834C1BA4FDD244A5E8AA4E537BD38AEAE4B073AA CALLER JUMPDEST PUSH1 0x40 MLOAD PUSH1 0x1 PUSH1 0x1 PUSH1 0xA0 SHL SUB SWAP1 SWAP2 AND DUP2 MSTORE PUSH1 0x20 ADD PUSH2 0xA31 JUMP JUMPDEST ADDRESS PUSH1 0x1 PUSH1 0x1 PUSH1 0xA0 SHL SUB PUSH32 0x0 AND EQ DUP1 PUSH2 0xD9A JUMPI POP PUSH32 0x0 PUSH1 0x1 PUSH1 0x1 PUSH1 0xA0 SHL SUB AND PUSH2 0xD8E PUSH1 0x0 DUP1 MLOAD PUSH1 0x20 PUSH2 0x19B0 DUP4 CODECOPY DUP2 MLOAD SWAP2 MSTORE SLOAD PUSH1 0x1 PUSH1 0x1 PUSH1 0xA0 SHL SUB AND SWAP1 JUMP JUMPDEST PUSH1 0x1 PUSH1 0x1 PUSH1 0xA0 SHL SUB AND EQ ISZERO JUMPDEST ISZERO PUSH2 0x3C4 JUMPI PUSH1 0x40 MLOAD PUSH4 0x703E46DD PUSH1 0xE1 SHL DUP2 MSTORE PUSH1 0x4 ADD PUSH1 0x40 MLOAD DUP1 SWAP2 SUB SWAP1 REVERT JUMPDEST PUSH2 0xBBF PUSH2 0xC5E JUMP JUMPDEST DUP2 PUSH1 0x1 PUSH1 0x1 PUSH1 0xA0 SHL SUB AND PUSH4 0x52D1902D PUSH1 0x40 MLOAD DUP2 PUSH4 0xFFFFFFFF AND PUSH1 0xE0 SHL DUP2 MSTORE PUSH1 0x4 ADD PUSH1 0x20 PUSH1 0x40 MLOAD DUP1 DUP4 SUB DUP2 DUP7 GAS STATICCALL SWAP3 POP POP POP DUP1 ISZERO PUSH2 0xE1A JUMPI POP PUSH1 0x40 DUP1 MLOAD PUSH1 0x1F RETURNDATASIZE SWAP1 DUP2 ADD PUSH1 0x1F NOT AND DUP3 ADD SWAP1 SWAP3 MSTORE PUSH2 0xE17 SWAP2 DUP2 ADD SWAP1 PUSH2 0x1874 JUMP JUMPDEST PUSH1 0x1 JUMPDEST PUSH2 0xE42 JUMPI PUSH1 0x40 MLOAD PUSH4 0x4C9C8CE3 PUSH1 0xE0 SHL DUP2 MSTORE PUSH1 0x1 PUSH1 0x1 PUSH1 0xA0 SHL SUB DUP4 AND PUSH1 0x4 DUP3 ADD MSTORE PUSH1 0x24 ADD PUSH2 0x452 JUMP JUMPDEST PUSH1 0x0 DUP1 MLOAD PUSH1 0x20 PUSH2 0x19B0 DUP4 CODECOPY DUP2 MLOAD SWAP2 MSTORE DUP2 EQ PUSH2 0xE73 JUMPI PUSH1 0x40 MLOAD PUSH4 0x2A875269 PUSH1 0xE2 SHL DUP2 MSTORE PUSH1 0x4 DUP2 ADD DUP3 SWAP1 MSTORE PUSH1 0x24 ADD PUSH2 0x452 JUMP JUMPDEST PUSH2 0x9F3 DUP4 DUP4 PUSH2 0x1305 JUMP JUMPDEST ADDRESS PUSH1 0x1 PUSH1 0x1 PUSH1 0xA0 SHL SUB PUSH32 0x0 AND EQ PUSH2 0x3C4 JUMPI PUSH1 0x40 MLOAD PUSH4 0x703E46DD PUSH1 0xE1 SHL DUP2 MSTORE PUSH1 0x4 ADD PUSH1 0x40 MLOAD DUP1 SWAP2 SUB SWAP1 REVERT JUMPDEST PUSH32 0x9016D09D72D40FDAE2FD8CEAC6B6234C7706214FD39C1CD1E609A0528C199300 DUP1 SLOAD PUSH1 0x1 PUSH1 0x1 PUSH1 0xA0 SHL SUB NOT DUP2 AND PUSH1 0x1 PUSH1 0x1 PUSH1 0xA0 SHL SUB DUP5 DUP2 AND SWAP2 DUP3 OR DUP5 SSTORE PUSH1 0x40 MLOAD SWAP3 AND SWAP2 DUP3 SWAP1 PUSH32 0x8BE0079C531659141344CD1FD0A4F28419497F9722A3DAAFE3B4186F6B6457E0 SWAP1 PUSH1 0x0 SWAP1 LOG3 POP POP POP JUMP JUMPDEST PUSH2 0xF3F PUSH2 0xF80 JUMP JUMPDEST PUSH1 0x0 DUP1 MLOAD PUSH1 0x20 PUSH2 0x19D0 DUP4 CODECOPY DUP2 MLOAD SWAP2 MSTORE DUP1 SLOAD PUSH1 0xFF NOT AND PUSH1 0x1 OR DUP2 SSTORE PUSH32 0x62E78CEA01BEE320CD4E420270B5EA74000D11B0C9F74754EBDBFC544B05A258 CALLER PUSH2 0xCFB JUMP JUMPDEST PUSH1 0x0 DUP1 MLOAD PUSH1 0x20 PUSH2 0x19D0 DUP4 CODECOPY DUP2 MLOAD SWAP2 MSTORE SLOAD PUSH1 0xFF AND ISZERO PUSH2 0x3C4 JUMPI PUSH1 0x40 MLOAD PUSH4 0xD93C0665 PUSH1 0xE0 SHL DUP2 MSTORE PUSH1 0x4 ADD PUSH1 0x40 MLOAD DUP1 SWAP2 SUB SWAP1 REVERT JUMPDEST PUSH32 0x9B779B17422D0DF92223018B32B4D1FA46E071723D6817E2486D003BECC55F00 DUP1 SLOAD PUSH1 0x1 NOT ADD PUSH2 0xFF5 JUMPI PUSH1 0x40 MLOAD PUSH4 0x3EE5AEB5 PUSH1 0xE0 SHL DUP2 MSTORE PUSH1 0x4 ADD PUSH1 0x40 MLOAD DUP1 SWAP2 SUB SWAP1 REVERT JUMPDEST PUSH1 0x2 SWAP1 SSTORE JUMP JUMPDEST PUSH1 0x40 DUP1 MLOAD PUSH1 0x80 DUP2 ADD DUP3 MSTORE PUSH1 0x0 DUP1 DUP3 MSTORE PUSH1 0x20 DUP3 ADD DUP2 SWAP1 MSTORE SWAP2 DUP2 ADD DUP3 SWAP1 MSTORE PUSH1 0x60 DUP1 DUP3 ADD MSTORE SWAP1 DUP1 DUP1 DUP1 PUSH2 0x102D DUP8 DUP8 ADD DUP9 PUSH2 0x18EF JUMP JUMPDEST PUSH1 0x40 DUP1 MLOAD PUSH1 0x80 DUP2 ADD DUP3 MSTORE PUSH1 0x1 PUSH1 0x1 PUSH1 0xA0 SHL SUB SWAP6 DUP7 AND DUP2 MSTORE SWAP5 SWAP1 SWAP4 AND PUSH1 0x20 DUP6 ADD MSTORE SWAP2 DUP4 ADD MSTORE PUSH1 0x60 DUP3 ADD MSTORE SWAP5 POP POP POP POP POP SWAP3 SWAP2 POP POP JUMP JUMPDEST PUSH2 0x9F3 PUSH1 0x1 PUSH1 0x1 PUSH1 0xA0 SHL SUB DUP5 AND DUP4 ADDRESS DUP5 PUSH2 0x135B JUMP JUMPDEST PUSH1 0x40 MLOAD PUSH4 0x6EB1769F PUSH1 0xE1 SHL DUP2 MSTORE ADDRESS PUSH1 0x4 DUP3 ADD MSTORE PUSH1 0x1 PUSH1 0x1 PUSH1 0xA0 SHL SUB DUP4 DUP2 AND PUSH1 0x24 DUP4 ADD MSTORE PUSH1 0x0 SWAP2 SWAP1 DUP6 AND SWAP1 PUSH4 0xDD62ED3E SWAP1 PUSH1 0x44 ADD PUSH1 0x20 PUSH1 0x40 MLOAD DUP1 DUP4 SUB DUP2 DUP7 GAS STATICCALL ISZERO DUP1 ISZERO PUSH2 0x10C7 JUMPI RETURNDATASIZE PUSH1 0x0 DUP1 RETURNDATACOPY RETURNDATASIZE PUSH1 0x0 REVERT JUMPDEST POP POP POP POP PUSH1 0x40 MLOAD RETURNDATASIZE PUSH1 0x1F NOT PUSH1 0x1F DUP3 ADD AND DUP3 ADD DUP1 PUSH1 0x40 MSTORE POP DUP2 ADD SWAP1 PUSH2 0x10EB SWAP2 SWAP1 PUSH2 0x1874 JUMP JUMPDEST SWAP1 POP DUP2 DUP2 LT ISZERO PUSH2 0x116A JUMPI PUSH1 0x40 MLOAD PUSH4 0x95EA7B3 PUSH1 0xE0 SHL DUP2 MSTORE PUSH1 0x1 PUSH1 0x1 PUSH1 0xA0 SHL SUB DUP5 DUP2 AND PUSH1 0x4 DUP4 ADD MSTORE PUSH1 0x24 DUP3 ADD DUP5 SWAP1 MSTORE DUP6 AND SWAP1 PUSH4 0x95EA7B3 SWAP1 PUSH1 0x44 ADD PUSH1 0x20 PUSH1 0x40 MLOAD DUP1 DUP4 SUB DUP2 PUSH1 0x0 DUP8 GAS CALL ISZERO DUP1 ISZERO PUSH2 0x1144 JUMPI RETURNDATASIZE PUSH1 0x0 DUP1 RETURNDATACOPY RETURNDATASIZE PUSH1 0x0 REVERT JUMPDEST POP POP POP POP PUSH1 0x40 MLOAD RETURNDATASIZE PUSH1 0x1F NOT PUSH1 0x1F DUP3 ADD AND DUP3 ADD DUP1 PUSH1 0x40 MSTORE POP DUP2 ADD SWAP1 PUSH2 0x1168 SWAP2 SWAP1 PUSH2 0x195B JUMP JUMPDEST POP JUMPDEST POP POP POP POP JUMP JUMPDEST PUSH1 0x0 DUP1 PUSH2 0x1180 DUP4 PUSH1 0x20 ADD MLOAD PUSH2 0xBC2 JUMP JUMPDEST PUSH1 0x0 DUP1 SLOAD PUSH1 0x60 DUP7 ADD MLOAD PUSH1 0x40 MLOAD SWAP4 SWAP5 POP SWAP2 SWAP3 PUSH1 0x1 PUSH1 0x1 PUSH1 0xA0 SHL SUB SWAP1 SWAP2 AND SWAP2 CALLVALUE SWAP2 PUSH2 0x11A9 SWAP2 SWAP1 PUSH2 0x197D JUMP JUMPDEST PUSH1 0x0 PUSH1 0x40 MLOAD DUP1 DUP4 SUB DUP2 DUP6 DUP8 GAS CALL SWAP3 POP POP POP RETURNDATASIZE DUP1 PUSH1 0x0 DUP2 EQ PUSH2 0x11E6 JUMPI PUSH1 0x40 MLOAD SWAP2 POP PUSH1 0x1F NOT PUSH1 0x3F RETURNDATASIZE ADD AND DUP3 ADD PUSH1 0x40 MSTORE RETURNDATASIZE DUP3 MSTORE RETURNDATASIZE PUSH1 0x0 PUSH1 0x20 DUP5 ADD RETURNDATACOPY PUSH2 0x11EB JUMP JUMPDEST PUSH1 0x60 SWAP2 POP JUMPDEST POP POP SWAP1 POP DUP1 PUSH2 0x122A JUMPI PUSH1 0x40 MLOAD PUSH3 0x461BCD PUSH1 0xE5 SHL DUP2 MSTORE PUSH1 0x20 PUSH1 0x4 DUP3 ADD MSTORE PUSH1 0xB PUSH1 0x24 DUP3 ADD MSTORE PUSH11 0x1CDDD85C0819985A5B1959 PUSH1 0xAA SHL PUSH1 0x44 DUP3 ADD MSTORE PUSH1 0x64 ADD PUSH2 0x452 JUMP JUMPDEST PUSH1 0x0 PUSH2 0x1239 DUP6 PUSH1 0x20 ADD MLOAD PUSH2 0xBC2 JUMP JUMPDEST SWAP1 POP PUSH1 0x0 PUSH2 0x1247 DUP5 DUP4 PUSH2 0x18DC JUMP JUMPDEST SWAP1 POP DUP1 PUSH1 0x0 SUB PUSH2 0x1259 JUMPI PUSH2 0x1259 PUSH2 0x1999 JUMP JUMPDEST SWAP6 SWAP5 POP POP POP POP POP JUMP JUMPDEST PUSH2 0x9F3 PUSH1 0x1 PUSH1 0x1 PUSH1 0xA0 SHL SUB DUP5 AND DUP4 DUP4 PUSH2 0x13C2 JUMP JUMPDEST PUSH1 0x1 PUSH32 0x9B779B17422D0DF92223018B32B4D1FA46E071723D6817E2486D003BECC55F00 SSTORE JUMP JUMPDEST PUSH2 0x12A4 PUSH2 0x13F3 JUMP JUMPDEST PUSH2 0xBBF DUP2 PUSH2 0x143C JUMP JUMPDEST PUSH2 0x12B5 PUSH2 0x13F3 JUMP JUMPDEST PUSH2 0x3C4 PUSH2 0x1444 JUMP JUMPDEST PUSH2 0x12C5 PUSH2 0x13F3 JUMP JUMPDEST PUSH2 0x3C4 PUSH2 0x1465 JUMP JUMPDEST PUSH2 0x3C4 PUSH2 0x13F3 JUMP JUMPDEST PUSH1 0x0 DUP1 MLOAD PUSH1 0x20 PUSH2 0x19D0 DUP4 CODECOPY DUP2 MLOAD SWAP2 MSTORE SLOAD PUSH1 0xFF AND PUSH2 0x3C4 JUMPI PUSH1 0x40 MLOAD PUSH4 0x8DFC202B PUSH1 0xE0 SHL DUP2 MSTORE PUSH1 0x4 ADD PUSH1 0x40 MLOAD DUP1 SWAP2 SUB SWAP1 REVERT JUMPDEST PUSH2 0x130E DUP3 PUSH2 0x146D JUMP JUMPDEST PUSH1 0x40 MLOAD PUSH1 0x1 PUSH1 0x1 PUSH1 0xA0 SHL SUB DUP4 AND SWAP1 PUSH32 0xBC7CD75A20EE27FD9ADEBAB32041F755214DBC6BFFA90CC0225B39DA2E5C2D3B SWAP1 PUSH1 0x0 SWAP1 LOG2 DUP1 MLOAD ISZERO PUSH2 0x1353 JUMPI PUSH2 0x9F3 DUP3 DUP3 PUSH2 0x14D2 JUMP JUMPDEST PUSH2 0x3E1 PUSH2 0x153F JUMP JUMPDEST PUSH1 0x40 MLOAD PUSH1 0x1 PUSH1 0x1 PUSH1 0xA0 SHL SUB DUP5 DUP2 AND PUSH1 0x24 DUP4 ADD MSTORE DUP4 DUP2 AND PUSH1 0x44 DUP4 ADD MSTORE PUSH1 0x64 DUP3 ADD DUP4 SWAP1 MSTORE PUSH2 0x116A SWAP2 DUP7 SWAP2 DUP3 AND SWAP1 PUSH4 0x23B872DD SWAP1 PUSH1 0x84 ADD JUMPDEST PUSH1 0x40 MLOAD PUSH1 0x20 DUP2 DUP4 SUB SUB DUP2 MSTORE SWAP1 PUSH1 0x40 MSTORE SWAP2 POP PUSH1 0xE0 SHL PUSH1 0x20 DUP3 ADD DUP1 MLOAD PUSH1 0x1 PUSH1 0x1 PUSH1 0xE0 SHL SUB DUP4 DUP2 DUP4 AND OR DUP4 MSTORE POP POP POP POP PUSH2 0x155E JUMP JUMPDEST PUSH1 0x40 MLOAD PUSH1 0x1 PUSH1 0x1 PUSH1 0xA0 SHL SUB DUP4 DUP2 AND PUSH1 0x24 DUP4 ADD MSTORE PUSH1 0x44 DUP3 ADD DUP4 SWAP1 MSTORE PUSH2 0x9F3 SWAP2 DUP6 SWAP2 DUP3 AND SWAP1 PUSH4 0xA9059CBB SWAP1 PUSH1 0x64 ADD PUSH2 0x1390 JUMP JUMPDEST PUSH32 0xF0C57E16840DF040F15088DC2F81FE391C3923BEC73E23A9662EFC9C229C6A00 SLOAD PUSH1 0x1 PUSH1 0x40 SHL SWAP1 DIV PUSH1 0xFF AND PUSH2 0x3C4 JUMPI PUSH1 0x40 MLOAD PUSH4 0x1AFCD79F PUSH1 0xE3 SHL DUP2 MSTORE PUSH1 0x4 ADD PUSH1 0x40 MLOAD DUP1 SWAP2 SUB SWAP1 REVERT JUMPDEST PUSH2 0xB8C PUSH2 0x13F3 JUMP JUMPDEST PUSH2 0x144C PUSH2 0x13F3 JUMP JUMPDEST PUSH1 0x0 DUP1 MLOAD PUSH1 0x20 PUSH2 0x19D0 DUP4 CODECOPY DUP2 MLOAD SWAP2 MSTORE DUP1 SLOAD PUSH1 0xFF NOT AND SWAP1 SSTORE JUMP JUMPDEST PUSH2 0x1276 PUSH2 0x13F3 JUMP JUMPDEST DUP1 PUSH1 0x1 PUSH1 0x1 PUSH1 0xA0 SHL SUB AND EXTCODESIZE PUSH1 0x0 SUB PUSH2 0x14A3 JUMPI PUSH1 0x40 MLOAD PUSH4 0x4C9C8CE3 PUSH1 0xE0 SHL DUP2 MSTORE PUSH1 0x1 PUSH1 0x1 PUSH1 0xA0 SHL SUB DUP3 AND PUSH1 0x4 DUP3 ADD MSTORE PUSH1 0x24 ADD PUSH2 0x452 JUMP JUMPDEST PUSH1 0x0 DUP1 MLOAD PUSH1 0x20 PUSH2 0x19B0 DUP4 CODECOPY DUP2 MLOAD SWAP2 MSTORE DUP1 SLOAD PUSH1 0x1 PUSH1 0x1 PUSH1 0xA0 SHL SUB NOT AND PUSH1 0x1 PUSH1 0x1 PUSH1 0xA0 SHL SUB SWAP3 SWAP1 SWAP3 AND SWAP2 SWAP1 SWAP2 OR SWAP1 SSTORE JUMP JUMPDEST PUSH1 0x60 PUSH1 0x0 DUP1 DUP5 PUSH1 0x1 PUSH1 0x1 PUSH1 0xA0 SHL SUB AND DUP5 PUSH1 0x40 MLOAD PUSH2 0x14EF SWAP2 SWAP1 PUSH2 0x197D JUMP JUMPDEST PUSH1 0x0 PUSH1 0x40 MLOAD DUP1 DUP4 SUB DUP2 DUP6 GAS DELEGATECALL SWAP2 POP POP RETURNDATASIZE DUP1 PUSH1 0x0 DUP2 EQ PUSH2 0x152A JUMPI PUSH1 0x40 MLOAD SWAP2 POP PUSH1 0x1F NOT PUSH1 0x3F RETURNDATASIZE ADD AND DUP3 ADD PUSH1 0x40 MSTORE RETURNDATASIZE DUP3 MSTORE RETURNDATASIZE PUSH1 0x0 PUSH1 0x20 DUP5 ADD RETURNDATACOPY PUSH2 0x152F JUMP JUMPDEST PUSH1 0x60 SWAP2 POP JUMPDEST POP SWAP2 POP SWAP2 POP PUSH2 0x1259 DUP6 DUP4 DUP4 PUSH2 0x15CF JUMP JUMPDEST CALLVALUE ISZERO PUSH2 0x3C4 JUMPI PUSH1 0x40 MLOAD PUSH4 0xB398979F PUSH1 0xE0 SHL DUP2 MSTORE PUSH1 0x4 ADD PUSH1 0x40 MLOAD DUP1 SWAP2 SUB SWAP1 REVERT JUMPDEST PUSH1 0x0 DUP1 PUSH1 0x20 PUSH1 0x0 DUP5 MLOAD PUSH1 0x20 DUP7 ADD PUSH1 0x0 DUP9 GAS CALL DUP1 PUSH2 0x1581 JUMPI PUSH1 0x40 MLOAD RETURNDATASIZE PUSH1 0x0 DUP3 RETURNDATACOPY RETURNDATASIZE DUP2 REVERT JUMPDEST POP POP PUSH1 0x0 MLOAD RETURNDATASIZE SWAP2 POP DUP2 ISZERO PUSH2 0x1599 JUMPI DUP1 PUSH1 0x1 EQ ISZERO PUSH2 0x15A6 JUMP JUMPDEST PUSH1 0x1 PUSH1 0x1 PUSH1 0xA0 SHL SUB DUP5 AND EXTCODESIZE ISZERO JUMPDEST ISZERO PUSH2 0x116A JUMPI PUSH1 0x40 MLOAD PUSH4 0x5274AFE7 PUSH1 0xE0 SHL DUP2 MSTORE PUSH1 0x1 PUSH1 0x1 PUSH1 0xA0 SHL SUB DUP6 AND PUSH1 0x4 DUP3 ADD MSTORE PUSH1 0x24 ADD PUSH2 0x452 JUMP JUMPDEST PUSH1 0x60 DUP3 PUSH2 0x15E4 JUMPI PUSH2 0x15DF DUP3 PUSH2 0x162E JUMP JUMPDEST PUSH2 0x1627 JUMP JUMPDEST DUP2 MLOAD ISZERO DUP1 ISZERO PUSH2 0x15FB JUMPI POP PUSH1 0x1 PUSH1 0x1 PUSH1 0xA0 SHL SUB DUP5 AND EXTCODESIZE ISZERO JUMPDEST ISZERO PUSH2 0x1624 JUMPI PUSH1 0x40 MLOAD PUSH4 0x9996B315 PUSH1 0xE0 SHL DUP2 MSTORE PUSH1 0x1 PUSH1 0x1 PUSH1 0xA0 SHL SUB DUP6 AND PUSH1 0x4 DUP3 ADD MSTORE PUSH1 0x24 ADD PUSH2 0x452 JUMP JUMPDEST POP DUP1 JUMPDEST SWAP4 SWAP3 POP POP POP JUMP JUMPDEST DUP1 MLOAD ISZERO PUSH2 0x163E JUMPI DUP1 MLOAD DUP1 DUP3 PUSH1 0x20 ADD REVERT JUMPDEST PUSH1 0x40 MLOAD PUSH4 0xD6BDA275 PUSH1 0xE0 SHL DUP2 MSTORE PUSH1 0x4 ADD PUSH1 0x40 MLOAD DUP1 SWAP2 SUB SWAP1 REVERT JUMPDEST PUSH1 0x1 PUSH1 0x1 PUSH1 0xA0 SHL SUB DUP2 AND DUP2 EQ PUSH2 0xBBF JUMPI PUSH1 0x0 DUP1 REVERT JUMPDEST PUSH4 0x4E487B71 PUSH1 0xE0 SHL PUSH1 0x0 MSTORE PUSH1 0x41 PUSH1 0x4 MSTORE PUSH1 0x24 PUSH1 0x0 REVERT JUMPDEST PUSH1 0x0 DUP3 PUSH1 0x1F DUP4 ADD SLT PUSH2 0x1693 JUMPI PUSH1 0x0 DUP1 REVERT JUMPDEST DUP2 CALLDATALOAD PUSH8 0xFFFFFFFFFFFFFFFF DUP2 GT ISZERO PUSH2 0x16AD JUMPI PUSH2 0x16AD PUSH2 0x166C JUMP JUMPDEST PUSH1 0x40 MLOAD PUSH1 0x1F DUP3 ADD PUSH1 0x1F NOT SWAP1 DUP2 AND PUSH1 0x3F ADD AND DUP2 ADD PUSH8 0xFFFFFFFFFFFFFFFF DUP2 GT DUP3 DUP3 LT OR ISZERO PUSH2 0x16DC JUMPI PUSH2 0x16DC PUSH2 0x166C JUMP JUMPDEST PUSH1 0x40 MSTORE DUP2 DUP2 MSTORE DUP4 DUP3 ADD PUSH1 0x20 ADD DUP6 LT ISZERO PUSH2 0x16F4 JUMPI PUSH1 0x0 DUP1 REVERT JUMPDEST DUP2 PUSH1 0x20 DUP6 ADD PUSH1 0x20 DUP4 ADD CALLDATACOPY PUSH1 0x0 SWAP2 DUP2 ADD PUSH1 0x20 ADD SWAP2 SWAP1 SWAP2 MSTORE SWAP4 SWAP3 POP POP POP JUMP JUMPDEST PUSH1 0x0 DUP1 PUSH1 0x40 DUP4 DUP6 SUB SLT ISZERO PUSH2 0x1724 JUMPI PUSH1 0x0 DUP1 REVERT JUMPDEST DUP3 CALLDATALOAD PUSH2 0x172F DUP2 PUSH2 0x1657 JUMP JUMPDEST SWAP2 POP PUSH1 0x20 DUP4 ADD CALLDATALOAD PUSH8 0xFFFFFFFFFFFFFFFF DUP2 GT ISZERO PUSH2 0x174B JUMPI PUSH1 0x0 DUP1 REVERT JUMPDEST PUSH2 0x1757 DUP6 DUP3 DUP7 ADD PUSH2 0x1682 JUMP JUMPDEST SWAP2 POP POP SWAP3 POP SWAP3 SWAP1 POP JUMP JUMPDEST PUSH1 0x0 PUSH1 0x20 DUP3 DUP5 SUB SLT ISZERO PUSH2 0x1773 JUMPI PUSH1 0x0 DUP1 REVERT JUMPDEST DUP2 CALLDATALOAD PUSH2 0x1627 DUP2 PUSH2 0x1657 JUMP JUMPDEST PUSH1 0x0 JUMPDEST DUP4 DUP2 LT ISZERO PUSH2 0x1799 JUMPI DUP2 DUP2 ADD MLOAD DUP4 DUP3 ADD MSTORE PUSH1 0x20 ADD PUSH2 0x1781 JUMP JUMPDEST POP POP PUSH1 0x0 SWAP2 ADD MSTORE JUMP JUMPDEST PUSH1 0x20 DUP2 MSTORE PUSH1 0x0 DUP3 MLOAD DUP1 PUSH1 0x20 DUP5 ADD MSTORE PUSH2 0x17C1 DUP2 PUSH1 0x40 DUP6 ADD PUSH1 0x20 DUP8 ADD PUSH2 0x177E JUMP JUMPDEST PUSH1 0x1F ADD PUSH1 0x1F NOT AND SWAP2 SWAP1 SWAP2 ADD PUSH1 0x40 ADD SWAP3 SWAP2 POP POP JUMP JUMPDEST PUSH1 0x0 DUP1 PUSH1 0x0 PUSH1 0x40 DUP5 DUP7 SUB SLT ISZERO PUSH2 0x17EA JUMPI PUSH1 0x0 DUP1 REVERT JUMPDEST DUP4 CALLDATALOAD PUSH8 0xFFFFFFFFFFFFFFFF DUP2 GT ISZERO PUSH2 0x1801 JUMPI PUSH1 0x0 DUP1 REVERT JUMPDEST DUP5 ADD PUSH1 0x1F DUP2 ADD DUP7 SGT PUSH2 0x1812 JUMPI PUSH1 0x0 DUP1 REVERT JUMPDEST DUP1 CALLDATALOAD PUSH8 0xFFFFFFFFFFFFFFFF DUP2 GT ISZERO PUSH2 0x1829 JUMPI PUSH1 0x0 DUP1 REVERT JUMPDEST DUP7 PUSH1 0x20 DUP3 DUP5 ADD ADD GT ISZERO PUSH2 0x183B JUMPI PUSH1 0x0 DUP1 REVERT JUMPDEST PUSH1 0x20 SWAP2 DUP3 ADD SWAP5 POP SWAP3 POP DUP5 ADD CALLDATALOAD PUSH2 0x1850 DUP2 PUSH2 0x1657 JUMP JUMPDEST DUP1 SWAP2 POP POP SWAP3 POP SWAP3 POP SWAP3 JUMP JUMPDEST PUSH1 0x0 PUSH1 0x20 DUP3 DUP5 SUB SLT ISZERO PUSH2 0x186D JUMPI PUSH1 0x0 DUP1 REVERT JUMPDEST POP CALLDATALOAD SWAP2 SWAP1 POP JUMP JUMPDEST PUSH1 0x0 PUSH1 0x20 DUP3 DUP5 SUB SLT ISZERO PUSH2 0x1886 JUMPI PUSH1 0x0 DUP1 REVERT JUMPDEST POP MLOAD SWAP2 SWAP1 POP JUMP JUMPDEST PUSH4 0x4E487B71 PUSH1 0xE0 SHL PUSH1 0x0 MSTORE PUSH1 0x11 PUSH1 0x4 MSTORE PUSH1 0x24 PUSH1 0x0 REVERT JUMPDEST DUP1 DUP3 MUL DUP2 ISZERO DUP3 DUP3 DIV DUP5 EQ OR PUSH2 0xC58 JUMPI PUSH2 0xC58 PUSH2 0x188D JUMP JUMPDEST PUSH1 0x0 DUP3 PUSH2 0x18D7 JUMPI PUSH4 0x4E487B71 PUSH1 0xE0 SHL PUSH1 0x0 MSTORE PUSH1 0x12 PUSH1 0x4 MSTORE PUSH1 0x24 PUSH1 0x0 REVERT JUMPDEST POP DIV SWAP1 JUMP JUMPDEST DUP2 DUP2 SUB DUP2 DUP2 GT ISZERO PUSH2 0xC58 JUMPI PUSH2 0xC58 PUSH2 0x188D JUMP JUMPDEST PUSH1 0x0 DUP1 PUSH1 0x0 DUP1 PUSH1 0x80 DUP6 DUP8 SUB SLT ISZERO PUSH2 0x1905 JUMPI PUSH1 0x0 DUP1 REVERT JUMPDEST DUP5 CALLDATALOAD PUSH2 0x1910 DUP2 PUSH2 0x1657 JUMP JUMPDEST SWAP4 POP PUSH1 0x20 DUP6 ADD CALLDATALOAD PUSH2 0x1920 DUP2 PUSH2 0x1657 JUMP JUMPDEST SWAP3 POP PUSH1 0x40 DUP6 ADD CALLDATALOAD SWAP2 POP PUSH1 0x60 DUP6 ADD CALLDATALOAD PUSH8 0xFFFFFFFFFFFFFFFF DUP2 GT ISZERO PUSH2 0x1943 JUMPI PUSH1 0x0 DUP1 REVERT JUMPDEST PUSH2 0x194F DUP8 DUP3 DUP9 ADD PUSH2 0x1682 JUMP JUMPDEST SWAP2 POP POP SWAP3 SWAP6 SWAP2 SWAP5 POP SWAP3 POP JUMP JUMPDEST PUSH1 0x0 PUSH1 0x20 DUP3 DUP5 SUB SLT ISZERO PUSH2 0x196D JUMPI PUSH1 0x0 DUP1 REVERT JUMPDEST DUP2 MLOAD DUP1 ISZERO ISZERO DUP2 EQ PUSH2 0x1627 JUMPI PUSH1 0x0 DUP1 REVERT JUMPDEST PUSH1 0x0 DUP3 MLOAD PUSH2 0x198F DUP2 DUP5 PUSH1 0x20 DUP8 ADD PUSH2 0x177E JUMP JUMPDEST SWAP2 SWAP1 SWAP2 ADD SWAP3 SWAP2 POP POP JUMP JUMPDEST PUSH4 0x4E487B71 PUSH1 0xE0 SHL PUSH1 0x0 MSTORE PUSH1 0x1 PUSH1 0x4 MSTORE PUSH1 0x24 PUSH1 0x0 REVERT INVALID CALLDATASIZE ADDMOD SWAP5 LOG1 EXTCODESIZE LOG1 LOG3 0x21 MOD PUSH8 0xC828492DB98DCA3E KECCAK256 PUSH23 0xCC3735A920A3CA505D382BBCCD5ED15C6E187E77E9AEE8 DUP2 DUP5 0xC2 0x1F 0x4F 0x21 DUP3 0xAB PC 0x27 0xCB EXTCODESIZE PUSH31 0x7FBEDCD63F03300A26469706673582212205EB61123E45B365FF0E02020A5 0x4C PUSH21 0x91475F5CCA535E4A073FEFA58AD4137AAD64736F6C PUSH4 0x4300081A STOP CALLER "
				},
				"gasEstimates": {
					"creation": {
						"codeDepositCost": "1338600",
						"executionCost": "infinite",
						"totalCost": "infinite"
					},
					"external": {
						"NATIVE_TOKEN()": "251",
						"UPGRADE_INTERFACE_VERSION()": "infinite",
						"addAdmin(address)": "23347",
						"getBalance(address)": "infinite",
						"initialize(address)": "infinite",
						"newExchange()": "1050",
						"owner()": "1087",
						"pause()": "infinite",
						"paused()": "infinite",
						"proxiableUUID()": "infinite",
						"renounceOwnership()": "infinite",
						"setNewExchange(address)": "22142",
						"swap(bytes,address)": "infinite",
						"swapAdmin()": "1115",
						"swapFeePercentage()": "1084",
						"transferOwnership(address)": "infinite",
						"unpause()": "infinite",
						"updateSwapFee(uint256)": "22231",
						"upgradeToAndCall(address,bytes)": "infinite"
					},
					"internal": {
						"_approve(address,address,uint256)": "infinite",
						"_authorizeUpgrade(address)": "infinite",
						"_decode(bytes calldata)": "infinite",
						"_swap(struct Swapper.SwapDescription memory)": "infinite",
						"_transfer(address,address,uint256)": "infinite",
						"_transferFrom(address,address,uint256)": "infinite"
					}
				},
				"methodIdentifiers": {
					"NATIVE_TOKEN()": "31f7d964",
					"UPGRADE_INTERFACE_VERSION()": "ad3cb1cc",
					"addAdmin(address)": "70480275",
					"getBalance(address)": "f8b2cb4f",
					"initialize(address)": "c4d66de8",
					"newExchange()": "0380fd03",
					"owner()": "8da5cb5b",
					"pause()": "8456cb59",
					"paused()": "5c975abb",
					"proxiableUUID()": "52d1902d",
					"renounceOwnership()": "715018a6",
					"setNewExchange(address)": "540907bb",
					"swap(bytes,address)": "ae0caeb3",
					"swapAdmin()": "5dc0b769",
					"swapFeePercentage()": "a4ac0d49",
					"transferOwnership(address)": "f2fde38b",
					"unpause()": "3f4ba83a",
					"updateSwapFee(uint256)": "bf16f65a",
					"upgradeToAndCall(address,bytes)": "4f1ef286"
				}
			},
			"storageLayout": {
				"storage": [
					{
						"astId": 2352,
						"contract": "contracts/Swapper.sol:Swapper",
						"label": "newExchange",
						"offset": 0,
						"slot": "0",
						"type": "t_address"
					},
					{
						"astId": 2354,
						"contract": "contracts/Swapper.sol:Swapper",
						"label": "swapAdmin",
						"offset": 0,
						"slot": "1",
						"type": "t_address"
					},
					{
						"astId": 2356,
						"contract": "contracts/Swapper.sol:Swapper",
						"label": "swapFeePercentage",
						"offset": 0,
						"slot": "2",
						"type": "t_uint256"
					}
				],
				"types": {
					"t_address": {
						"encoding": "inplace",
						"label": "address",
						"numberOfBytes": "20"
					},
					"t_uint256": {
						"encoding": "inplace",
						"label": "uint256",
						"numberOfBytes": "32"
					}
				}
			},
			"userdoc": {
				"kind": "user",
				"methods": {},
				"version": 1
			}
		}
	}
}